:020000040800F2
:100000003C640020CD6A0008251A0008A3100008EF
:10001000291A00082D1A0008311A000800000000F3
:10002000000000000000000000000000351A000879
:10003000391A0008000000003D1A0008411A0008A3
:10004000C96A0008C96A0008C96A0008C96A0008C4
:10005000C96A0008C96A0008451A0008C96A000888
:10006000C96A0008C96A0008C96A0008D92F0008CF
:10007000C96A0008C96A0008C96A0008C96A000894
:10008000C96A0008514B0008C96A0008C96A00081B
:10009000C96A0008C96A0008C96A0008C96A000874
:1000A000C96A0008C96A0008C96A0008C96A000864
:1000B000C96A0008C96A0008C96A0008C96A000854
:1000C000C96A0008C96A0008C96A0008C96A000844
:1000D000C96A0008C96A0008C96A0008C96A000834
:1000E000C96A0008C96A0008A11A0008C96A00089C
:1000F000C96A0008C96A0008C96A00089D4B00085F
:10010000C96A0008C96A0008C96A0008E54B000806
:10011000C96A0008C96A0008C96A0008C96A0008F3
:10012000C96A0008C96A0008C96A0008C96A0008E3
:10013000C96A0008C96A0008C96A0008C96A0008D3
:10014000C96A0008C96A0008C96A0008D11A00080B
:10015000C96A0008C96A0008C96A0008C96A0008B3
:10016000C96A0008C96A0008C96A0008C96A0008A3
:10017000C96A0008C96A0008C96A0008C96A000893
:10018000C96A0008C96A000830B50F4C054683B03B
:1001900054F82000012104EB450404F08FF80B4AC9
:1001A000238A52F825000093022201230024694685
:1001B0008DF804308DF807308DF806408DF8052055
:1001C00003F030FB03B030BD3C7800080000002095
:1001D000044B054A03EB400352F820201B8A13838B
:1001E000704700BF3C78000800000020044B054A1F
:1001F00003EB400352F820201B8A5383704700BF53
:100200003C78000800000020054B064A52F82020E8
:1002100003EB40005369018A4B405361704700BFB4
:100220003C7800080000002030B50446012087B06B
:100230000D46014604F042F84FF48040012104F0DD
:100240006DF8184806A900EB84000123002441F84A
:10025000103D00698DF80C408DF80F4003F0E2FA74
:10026000012D01D007B030BD2146204602F072FCBE
:10027000082304A88DF8153004958DF814408DF8E6
:10028000165003F0D1F90F23062201A88DF807506C
:100290008DF804208DF805308DF8063004F00AF949
:1002A00007B030BD0000002008B5044B03EB800010
:1002B0000121006903F02CFB08BD00BF00000020F5
:1002C00008B5604B984235D0B0F1804F3CD05E4BC2
:1002D000984243D05D4B98424AD05D4B984251D0F2
:1002E0005C4B984258D05C4B98425FD05B4B984235
:1002F00066D05B4B98426DD05A4B984276D05A4BA1
:1003000098427FD0594B984200F08880584B9842D1
:1003100000F08E80574B984200D008BD4FF480709B
:10032000012104F02BF84FF480700021BDE8084053
:1003300004F024B80120014604F02CF8012000212B
:10034000BDE8084004F026B80120014604F016F884
:1003500001200021BDE8084004F010B8022001216E
:1003600004F00CF802200021BDE8084004F006B8B3
:100370000420012104F002F804200021BDE8084017
:1003800003F0FCBF0820012103F0F8FF0820002142
:10039000BDE8084003F0F2BF1020012103F0EEFF9A
:1003A00010200021BDE8084003F0E8BF2020012113
:1003B00003F0E4FF20200021BDE8084003F0DEBF89
:1003C0000220012103F0E6FF02200021BDE80840E1
:1003D00003F0E0BF4FF48030012103F0DBFF4FF466
:1003E00080300021BDE8084003F0D4BF4FF4003056
:1003F000012103F0CFFF4FF400300021BDE8084099
:1004000003F0C8BF4FF48020012103F0C3FF4FF475
:1004100080200021BDE8084003F0BCBF402001213E
:1004200003F0ACFF40200021BDE8084003F0A6BF68
:100430008020012103F0A2FF80200021BDE80840B8
:1004400003F09CBF00000140000400400008004091
:10045000000C004000100040001400400004014067
:1004600000400140004401400048014000180040A5
:10047000001C004000200040224A038890429BB2AA
:1004800012D002F5806290420ED0B0F1804F0BD0B6
:10049000A2F58032904207D002F58062904203D0EC
:1004A00002F58062904203D14A8823F0700313431F
:1004B000154A90421ED002F5806290421AD00A89F5
:1004C00070B423F440730F4C4E680D889BB21343F5
:1004D000A0420380C662058506D00C4B984203D02B
:1004E0000123838270BC70478B7A03860123838249
:1004F00070BC704703800B884A68C2620385012381
:100500008382704700000140001000400004014059
:1005100000234FF0FF3242600380038143808372E7
:10052000704700BF01858282704700BF038823F0B7
:1005300070031B041B0C1943018070474162704714
:10054000C1627047406A7047008D80B2704700BF3B
:10055000038829B923F002031B041B0C0380704796
:100560009BB243F002030380704700BF038829B9A0
:1005700023F004031B041B0C038070479BB243F061
:1005800004030380704700BF038829B923F0800368
:100590001B041B0C038070479BB243F08003038055
:1005A000704700BF038823F008031B041B0C038063
:1005B00003889BB219430180704700BF038823F46E
:1005C00040731B041B0C038003889BB219430180FA
:1005D000704700BF038829B923F001031B041B0CDB
:1005E000038070479BB243F001030380704700BF54
:1005F000F0B5048CB1F802C08B890F881B4E24F033
:1006000001042404240C0484058CB0F804E0048B59
:1006100025F0020524F073022D042D0C4CEA03038F
:1006200012042B43120CB0429BB21FFA8EF442EA22
:10063000070208D00E4DA84205D089688480028345
:1006400041630384F0BDCE89B1F812E00D8A8F8832
:1006500023F0080324F4407433434EEA050523F0E5
:1006600004032C433B43A4B2E7E700BF0000014072
:1006700000040140F0B5058C0C88B1F80CC0B1F84D
:1006800002E01E4E25F010052D042D0C0584028C71
:100690008788058B22F020031B0425F4E6421B0CFF
:1006A000120443EA0C13120C43EA0E1342EA04222A
:1006B000B0429BB2BDB294B208D0114A904205D06C
:1006C0008A688580048382630384F0BD23F08002FE
:1006D000CB89B1F810E08F884E8A92B242EA0312B9
:1006E00025F440654FF6BF73134045EA8E0543EA93
:1006F000071345EA86059BB2ADB2E1E70000014071
:1007000000040140F0B5058CB1F80CC0B1F802E06E
:100710000C881E4F25F480752D042D0C0584028C49
:100720008688858B22F400731B0425F073021B0C52
:1007300043EA0C23120443EA0E23120CB8429BB284
:10074000B5B244EA020408D0114A904205D08A6842
:1007500085808483C2630384F0BD23F40062CB8967
:10076000B1F810E08F884E8A92B242EA032225F453
:1007700040554FF6FF33134045EA0E1543EA072371
:1007800045EA06159BB2ADB2E1E700BF00000140AB
:1007900000040140028CB1F802C022F4805212041D
:1007A000120C2DE9F041B1F80C80B1F800E00284A0
:1007B000058C8788828B124E25F4005422F4E64380
:1007C0002404240C1B0444EA08341B0C44EA0C34B3
:1007D00043EA0E23B042A4B2BAB29BB209D0094D8B
:1007E000A84206D089688280838301640484BDE8BE
:1007F000F0810D8A22F4804242EA851292B2F1E73A
:1008000000000140000401400023038043808380F6
:1008100083608381C38103824382704710B4048C58
:100820000123A4B28B4024EA030321F008040384CB
:1008300018307CB10439C1F34E0148F6FF730C58EF
:1008400023400B5012020B585DF8044B92B21A432E
:100850000A50704749084FF68F734458234043505D
:1008600043585DF8044B1A43425070474163704748
:1008700081637047C163704701647047038B23F045
:1008800070031B041B0C194301837047038B23F473
:10089000E0431B041B0C43EA012189B2018370472A
:1008A000838B23F070031B041B0C19438183704757
:1008B000838B23F4E0431B041B0C43EA012189B220
:1008C00081837047038B23F008031B041B0C19431F
:1008D00001837047038B23F400631B041B0C43EA62
:1008E000012189B201837047838B23F008031B0425
:1008F0001B0C194381837047838B23F400631B0413
:100900001B0C43EA012189B281837047038B23F0DA
:1009100004031B041B0C194301837047038B23F44E
:1009200080631B041B0C43EA012189B201837047D9
:10093000838B23F004031B041B0C19438183704732
:10094000838B23F480631B041B0C43EA012189B2CF
:1009500081837047038B23F080031B041B0C194316
:1009600001837047038BC3F30E0343EA012189B26D
:1009700001837047838B23F080031B041B0C1943F6
:1009800081837047838BC3F30E0343EA012189B24D
:1009900081837047038C23F002031B041B0C194353
:1009A00001847047038C23F008031B041B0C1943BC
:1009B00001847047038C23F020031B041B0C43EAC3
:1009C000011189B201847047038C23F080031B045A
:1009D0001B0C43EA011189B201847047038C23F494
:1009E00000731B041B0C43EA012189B20184704788
:1009F000038C23F400631B041B0C43EA012189B21E
:100A000001847047038C23F400531B041B0C43EA3E
:100A1000013189B20184704710B4048C0123A4B25F
:100A20008B4024EA03030384038C5DF8044B8A4063
:100A300013439BB20384704710B4048C0423A4B204
:100A40008B4024EA03030384038C5DF8044B8A4043
:100A500013439BB2038470470B88F0B5002B32D050
:100A6000042B57D0082B00F08380028C4F88B1F8FC
:100A700004E00E89CD8822F480521204120C028404
:100A8000848B028C24F4407122F4005309055B042A
:100A9000090D5B0C41EA0E2143EA073341EA0631B6
:100AA0009BB243F4805389B281830384828B22F406
:100AB00040621204120C8283838B9BB243EA0523AB
:100AC0009BB28383F0BD028C4E888D880B89CC88C5
:100AD00022F001021204120C0284028B018C92B2E9
:100AE00022F0F30221F00A0142EA0313090446F05E
:100AF00001029BB2090C2B43114303830184038B36
:100B000023F00C031B041B0C0383038B9BB21C43BD
:100B10000483F0BD058C4F888E88B1F808E0CC883E
:100B200025F010010904090C0184028B018C22F4C8
:100B300040731B051B0D8AB243EA0E3322F0A0025C
:100B40009BB242EA071243EA062392B29BB242F0FA
:100B5000100203830284038B23F440631B041B0CE9
:100B60000383038B9BB243EA04239BB20383F0BD50
:100B7000068C4F888D880A89CC8826F480710904F8
:100B8000090C0184818B038C89B29BB221F0F301A3
:100B900023F4206341EA021243EA072392B29BB294
:100BA00043F480732A4382830384838B23F00C03F2
:100BB0001B041B0C8383838B9BB21C438483F0BD7B
:100BC00000230122828003804380C3800381704719
:100BD000B1F802C00B88F0B5B1F804E0BCF1000F29
:100BE0000CBF02240024BEF1010F0BBF4FF40076AE
:100BF0004FF4807602250125002B4BD0038C0E8903
:100C0000C98823F010031B041B0C0384028B078C80
:100C100022F440731B051B0DBAB243EA063322F0DF
:100C2000A0029BB242EA0C1243EA0E2392B29BB29C
:100C300042F0100203830284038B23F440631B04FD
:100C40001B0C0383038B9BB243EA01239BB20383F8
:100C5000038C23F001031B041B0C0384038B028C05
:100C60009BB223F0F30392B243EA061622F00A0382
:100C700043F00103B6B21C432E4306830484038B66
:100C800023F00C031B041B0C0383038B9BB219433F
:100C90000183F0BD038C0F89CD8823F001031B0471
:100CA0001B0C0384018B038C89B221F0F30123F028
:100CB0000A0341EA07111B044CF0010289B21B0C24
:100CC000134341EA0E0EA0F818E00384038B23F0CF
:100CD0000C031B041B0C0383038B9BB22B4303836A
:100CE000038C23F010031B041B0C0384028B018C68
:100CF00022F440731B051B0D8AB243EA073322F02E
:100D0000A0029BB242F01002334342EA0414038370
:100D10000484038B23F440631B041B0C0383038BA9
:100D20009BB243EA0525ADB20583F0BD406B704729
:100D3000806B7047C06B7047006C7047038B23F06B
:100D40000C031B041B0C0383038B9BB2194301830D
:100D5000704700BF038B23F440631B041B0C038309
:100D6000038B9BB243EA012189B20183704700BF24
:100D7000838B23F00C031B041B0C8383838B9BB29C
:100D800019438183704700BF838B23F440631B04A6
:100D90001B0C8383838B9BB243EA012189B281833D
:100DA000704700BFF0B50B88B1F802E08F88CE889D
:100DB0000D894C898A894EEA03033B4333432B4315
:100DC000234313439BB2A0F84430F0BD00230380BB
:100DD00043808380C380038143818381704700BF48
:100DE000B0F8443021B9C3F30E03A0F84430704783
:100DF0006FEA43436FEA53439BB2A0F84430704715
:100E0000838829B923F004031B041B0C83807047DB
:100E10009BB243F004038380704700BF838829B9E5
:100E200023F001031B041B0C838070479BB243F02B
:100E300001038380704700BF83899BB21AB923EAFC
:100E40000101818170471943818170478182704718
:100E5000038A194214BF012000207047C94389B298
:100E600001827047038A828911EA030092B203D09B
:100E7000114214BF01200020704700BFC94389B24E
:100E8000018270470A43A0F84820704783899BB2CB
:100E90001AB923EA010181817047194381817047A2
:100EA000838829B923F008031B041B0C8380704737
:100EB0009BB243F008038380704700BF038923F08F
:100EC00007031B041B0C0381704700BF038923F039
:100ED00070031B041B0C1943018103899BB243F06F
:100EE00007030381704700BF602930B4048C24D00D
:100EF00024F001042404240C0484048B058CA4B283
:100F000024F0F304ADB244F0010425F00A0544EAEC
:100F1000031345F001049BB2224303830284038937
:100F200023F070031B041B0C0B43038103899BB24A
:100F300043F00703038130BC704724F010042404FD
:100F4000240C0484048B058C24F440742405ADB275
:100F5000240D25F0A00544F4807445F0100544EA02
:100F6000033345EA02129BB292B203830284D6E7AE
:100F700010B4048942EA0323E4B223439BB2194329
:100F8000018103895DF8044B23F077031B041B0CDC
:100F900043F077030381704710B4048942EA0323C6
:100FA000E4B223439BB21943018103895DF8044BEA
:100FB0009BB243F480430381704700BF038923F051
:100FC00070031B041B0C194301817047838823F0B5
:100FD00070031B041B0C838083889BB219438180A0
:100FE000704700BF038923F007031B041B0C038118
:100FF00003899BB219430181704700BF038923F025
:1010000080031B041B0C038103899BB219430181DC
:10101000704700BF10B40489E4B221430A4342EA96
:10102000032399B201815DF8044B704770B40689BF
:10103000048B058C24F4407424F00304ADB225F035
:10104000220526F0070624042A433604240C360C15
:1010500044F4807442EA0313314344F001049AB229
:1010600001810483028470BC704700BF838829B962
:1010700023F080031B041B0C838070479BB243F05A
:1010800080038380704700BFA0F85010704700BFF6
:10109000ABBE01E000207047002A00D010600120A4
:1010A000704706980188034A914202D104300690A5
:1010B0007047FEE7ABBE000008B5174B984212D050
:1010C000164B98421BD0164B984200D008BD4FF4E7
:1010D0000040012103F052F94FF400400021BDE827
:1010E000084003F04BB94FF48050012103F052F94E
:1010F0004FF480500021BDE8084003F04BB94FF495
:101100008040012103F03AF94FF480400021BDE80E
:10111000084003F033B900BF003001400038004000
:10112000003C00402DE9F0410B88B1F80280B1F895
:1011300004C0CA88B1F808E04F898E89CC89058837
:10114000098A48EA030343EA0C03134343EA0E0304
:101150003B43334343EA040205F4415313439BB238
:101160000380838B23F400631B041B0C83830182A5
:10117000BDE8F081F0B5848B8B6824F47B6424F0A7
:101180000F0424040222240C84830284858B93425E
:10119000ADB23ED0204E8C88B768204ADFF888E098
:1011A000002C08BF72463F0225D5CE88B6F5007FD9
:1011B00029D0B2FBF3F2531D9AB2194BA3FB0223C1
:1011C000DB085A08971E03F00103FD2F94BF42EA83
:1011D000032302230F88B1F802E08A893D4345F4D6
:1011E000006545EA0E0515431E43ABB2B6B21C437B
:1011F00006848483F0BDB76847F40007B760CE88E3
:10120000B6F5007FD5D1074FB7FBF3F305339AB29C
:10121000D3E78C88CE88DDE700380240004C1D0003
:10122000CDCCCCCC0053070000983A000023072215
:101230000282038043808380C38003814381838152
:10124000C381704700230222826003604360838170
:10125000704700BF038829B923F040031B041B0C0F
:10126000038070479BB243F040030380704700BF88
:10127000838B29B923F480631B041B0C8383704781
:101280009BB243F480638383704700BF038823F4D9
:1012900000631B041B0C038003889BB2194301806D
:1012A000704700BFB1F5804F038805D023F4804319
:1012B0001B041B0C038070479BB243F480430380E4
:1012C000704700BF4FF6FF639942038804D09BB27A
:1012D00043F480730380704723F480731B041B0C5A
:1012E00003807047838829B923F004031B041B0C77
:1012F000838070479BB243F004038380704700BF34
:10130000838829B923F010031B041B0C83807047CA
:101310009BB243F010038380704700BF838B23F49C
:101320007B6323F00F031B0402221B0C83830284C4
:10133000838B8A8970B44D880C888E889BB22B432E
:1013400024F4007143F40063334389B2134300294A
:101350009BB20CBF4FF4807200221343838370BC96
:10136000704700BF808980B2704700BF818170479D
:10137000038829B923F400531B041B0C0380704716
:101380009BB243F400530380704700BF03889BB2B5
:1013900043F4805303807047012914BF008B808A77
:1013A00080B27047008A80B2704700BF83889BB2CA
:1013B0001AB923EA0101818070471943818070477F
:1013C000090901238B409BB22AB9828892B222EA92
:1013D000030383807047828892B2134383807047EF
:1013E0000389194214BF012000207047C94389B204
:1013F0000181704710B484880389012201F00F0035
:101400009BB202FA00F01840A4B205D009098A4044
:10141000144214BF012000205DF8044B704700BF48
:1014200001F00F0101238B40DB439BB20381704726
:10143000404B41481A68002142F001021A6099604D
:101440001A6822F0847222F480321A6058601A6896
:1014500082B022F480221A60D960009101911A684A
:1014600042F480321A601A4603E0009BB3F5A06F85
:1014700009D0136803F400330193009B01330093F8
:10148000019B002BF1D02B4B1B6813F4003318BFCA
:1014900001230193019B012B1AD0264A2749936807
:1014A00023F400039360C2F88410136843F0806350
:1014B000136013681B01FCD5214BD3F888204FF033
:1014C000006142F47002C3F88820996002B070474E
:1014D000184B1C491A6C1C4842F080521A640A6866
:1014E00042F480420A609A689A609A6842F4004224
:1014F0009A609A6842F4A0529A6058601A6842F062
:1015000080721A601A4611680A4B8901FBD50F4A8E
:1015100040F2056111609A6822F003029A609A68AD
:1015200042F002029A601A46936803F00C03082BFB
:10153000FAD1B2E700380240103000248040003079
:1015400000ED00E000700040086C4009003C0240E3
:101550001848836803F00C03042B28D0082B09D00B
:10156000154B144A15499268C2F303128A5CD340A2
:101570000B6170474368416813F4800F436818BFDC
:101580000F4801F03F020CBF0B49B0FBF2F1C3F36F
:10159000881308BFB1FBF2F101FB03F2054B5B6856
:1015A000C3F3014301335B00B2FBF3F3D9E7044B10
:1015B000D7E700BF003802400024F40014000020E8
:1015C00000127A0008B5174B984212D0164B984279
:1015D0001BD0164B984200D008BD4FF400000121EB
:1015E00002F0CCFE4FF400000021BDE8084002F0FC
:1015F000C5BE4FF40010012102F0C0FE4FF40010F0
:101600000021BDE8084002F0B9BE4FF4800001217E
:1016100002F0B4FE4FF480000021BDE8084002F063
:10162000ADBE00BF0054004000580040005C0040C8
:10163000F0B5054685B068460E46AC8802F0C8FD98
:10164000029B32483268DFF8CCE0A0FB031024F0A4
:101650003F042404800C240C87B23C43AC802988CE
:1016600021F001010904090C7245298024D8520097
:10167000B3FBF2F39BB2032B07F1010798BF0423DE
:101680002F84AB8328887789B2883489B18980B266
:1016900040F0010028802B8823F4816323F00203AB
:1016A0001B043A431B0C134344EA01029BB292B25F
:1016B0002B802A8105B0F0BDF4884BF6FF718C4277
:1016C0001DD002EB820202EB8202B3FBF2F39BB26B
:1016D00043F48043C3F30B020AB943F001034FF410
:1016E00096710B4C01FB00F284FB0201D217C2EB96
:1016F000A112013292B243F400432A84C1E702EB03
:101700004202B3FBF2F39BB2E4E700BF83DE1B436C
:10171000D34D6210A0860100002310B44BF6FF7178
:1017200041F288344FF480420460C180828183801A
:10173000038143815DF8044B704700BF038829B9DA
:1017400023F001031B041B0C038070479BB243F082
:1017500001030380704700BF038829B923F4807315
:101760001B041B0C038070479BB243F480730380FF
:10177000704700BF038829B923F400731B041B0CB6
:10178000038070479BB243F400730380704700BF2F
:1017900022B901F0FE0189B20182704741F00101D6
:1017A00089B20182704700BF038829B923F480639E
:1017B0001B041B0C038070479BB243F480630380BF
:1017C000704700BF83899BB201F0FE0123F0FE0346
:1017D00019438181704700BF838929B923F0010330
:1017E0001B041B0C838170479BB243F00103838170
:1017F000704700BF038829B923F040031B041B0C6A
:10180000038070479BB243F040030380704700BFE2
:10181000038819B9C3F30E03038070476FEA43438B
:101820006FEA53439BB20380704700BF038829B11E
:1018300023F080031B041B0C038070479BB243F012
:1018400080030380704700BFB1F5804F838B05D0C4
:1018500023F480431B041B0C838370479BB243F427
:1018600080438383704700BFB1F5006F038805D0C4
:1018700023F400631B041B0C038070479BB243F4EA
:1018800000630380704700BFB1F5005F038805D097
:1018900023F400531B041B0C038070479BB243F4DA
:1018A00000530380704700BF038829B923F0100359
:1018B0001B041B0C038070479BB243F01003038092
:1018C000704700BF01827047008AC0B2704700BFF6
:1018D000038829B923F480531B041B0C0380704731
:1018E0009BB243F480530380704700BFB1F5006F93
:1018F000038805D023F400631B041B0C038070478E
:101900009BB243F400630380704700BF038829B98A
:1019100023F020031B041B0C038070479BB243F091
:1019200020030380704700BF008BC0F3072070477F
:10193000838829B923F400631B041B0C8380704740
:101940009BB243F400638380704700BF838829B94A
:1019500023F480531B041B0C838070479BB243F419
:1019600080538380704700BF82B0002301930190B1
:10197000019B19440191019B188880B202B0704705
:1019800083889BB21AB923EA010181807047194309
:1019900081807047838A008B9BB243EA004321F029
:1019A0007F401840081AB0FA80F04009704700BF25
:1019B000838A028B98B240EA024020F07F40704751
:1019C00082B000230A0F0093019301900092009BC4
:1019D00021F07F4153B1019B14330193019B1B689C
:1019E000194214BF0120002002B07047019B183338
:1019F000090C0193F2E700BFC94389B281827047A5
:101A00008388808A80B208409BB206D001F0E061F2
:101A100013EA114314BF012000207047C94389B263
:101A200081827047704700BFFEE700BFFEE700BF3E
:101A3000FEE700BF704700BF704700BF704700BFA0
:101A400005F0EEBC10B5154C23780133DBB22370E2
:101A50002378032B84BF002323702378DA074FF009
:101A600002000DD5FEF7B4FB23789B074FF0010071
:101A70000DD4FEF7BBFB0120BDE8104001F040BED5
:101A8000FEF7B4FB23789B074FF00100F1D5FEF77A
:101A90009FFB0120BDE8104001F032BEB51E0020C2
:101AA00010B5094CA37A4BB1084A136923F0060319
:101AB0001361FFF7BDFC204604F09EFD4FF480202B
:101AC000BDE8104001F01CBEB04C002000ED00E06D
:101AD000014801F09FBA00BFB04C002008B54FF09C
:101AE0000050012102F04AFC4FF000500021BDE8F7
:101AF000084002F043BC00BFF0B491E8C000094DBB
:101B00008C68CB682A6847EA06010C4340F6FE71F0
:101B100023438140834022EA010213432B60F0BC3F
:101B2000704700BF0074004000230360436083607F
:101B3000C360704739B9074901230A68834022EA24
:101B400003030B607047034901230A688340134372
:101B50000B6070470074004041B9084900094A68A9
:101B60000123834022EA03034B60704703490009C5
:101B70004A680123834013434B6070470074004060
:101B8000054A536818B923F003035360704743F0C4
:101B900003035360704700BF0074004032B9064A27
:101BA0001368814023EA010111607047024A1368FB
:101BB00081401943116070470074004082B00022D8
:101BC000054B01920193019B083318440190019B3E
:101BD000196002B0704700BF0074004082B000225C
:101BE000054B01920193019B143318440190019B12
:101BF000196002B0704700BF007400400828044B11
:101C00000CBF42EA012242EA0142C250704700BFC3
:101C10002074004082B00022064B01920193019B88
:101C20002C3303EB90000190019B186880B202B046
:101C3000704700BF0074004041B908494FF4805319
:101C40000A68834022EA03030B60704703494FF49C
:101C500080530A68834013430B6070470074004050
:101C600032B9064A1368814023EA010111607047C6
:101C7000024A1368814019431160704700740040A4
:101C8000034B5B6B8140194214BF01200020704759
:101C900000740040014B814059637047007400405C
:101CA000054B1A685B6B814011EA030003D01142B7
:101CB00014BF01200020704700740040014B814098
:101CC000596370470074004070B5049C826004F151
:101CD0008044013C05460C4401801E46A200184683
:101CE000002105F05DFD6E6070BD00BF012903D1CC
:101CF000024B00221A705A80002070473C1E0020C0
:101D0000002070476D230B8000487047280000209A
:101D100070B50C7814F060040D4612D0202C0DD153
:101D20004C78012C08D0812C20D1CA882849002465
:101D300001F01CFF204670BDCA883ABB0024204633
:101D400070BD4B780A2B1CD00B2B064613D0062BEC
:101D5000F5D14B881B0A212B03D1CA88092A28BF39
:101D6000092230461B4901F001FFE8E7022400F098
:101D7000F9FB204670BD8B78012B13D900F0F2FBE4
:101D8000DDE71549012201F0F1FED8E7104901F025
:101D900005FFAA88114BE9881C71120A1A73996011
:101DA0000024CCE70D4D2B612B69012B09D02B6949
:101DB0000A4A002BC2D130468121137005F0BEF9CA
:101DC000BDE781216C802C7005F0B8F9EFE700BF0A
:101DD000B81E00203A0000204C1E00203C1E0020AF
:101DE00010B50121044605F0A9F92046812105F02E
:101DF000A5F92046012105F0FFF82046812105F0D4
:101E0000FBF8064B06495A68002318460B709047AA
:101E1000002814BF0220002010BD00BF9C0100203C
:101E20003C1E002010B50E4C2379012B0CD0812BC9
:101E300008D10C4A00238020BB2110705170937090
:101E40002371A360002010BD237B022BFAD1054A29
:101E5000054B10781B69984700232371A360F1E7B5
:101E60003C1E0020B81E00209C010020094A538817
:101E70009BB2012B01D913780BB90020704710B524
:101E800081210024147005F059F92046FEF7BCF9B1
:101E9000002010BD3C1E00202DE9F843394C236979
:101EA000012B02D00020BDE8F8836369364D064659
:101EB000002B31D0286F6B6FA169344AE1611B1A86
:101EC000A3615268324BA3FB02139B0903EB43034C
:101ED000A2EB43132362A369002B4BDBA369E269E6
:101EE00028499B1A6362636AB3F5806F03DA4B6A11
:101EF00013F5806F43DC0023A362264BC0219B684F
:101F0000012298472B6F244A1F49C03393422ABFAE
:101F1000A2F5C0620B670A674FF08043AA6F586B47
:101F20006388DFF86480174F01339BB263802178A8
:101F30008318AB6701F0FF0961B12A6F6B6F9A429A
:101F4000B0D1144B15489B68C0210222984700234A
:101F50006361A7E742465B0142F87C3F30460323BA
:101F6000812105F08BF801233B70C8F87890A7F821
:101F70000290E2E7A36903F5C063A361AEE74B6A91
:101F80008B62BAE73C1E002028000020B8600240A7
:101F9000ABAAAAAA9C010020F8240020F81E002069
:101FA00001292DE9F84302D00020BDE8F8830C4652
:101FB000054601F02BFEDFF8A880DFF8A890254F3A
:101FC0000646214603464246284605F031F8D9F830
:101FD0007400C41BC4F5C064A4B2A6422BD974BB60
:101FE00008EB0401324605F041FBD9F87400304497
:101FF000C9F87400184A90420BD3C9F8747095F868
:102000009D33B3FA83F35B0985F89D330020BDE867
:10201000F883124995F89D334C69B3FA83F35B0951
:1020200085F89D33002CBFD1A2F540729042BBD3FE
:1020300001234B61B8E7002EDCD04146D2E7361BC6
:102040004146224605F012FB002EC9F87470D6DD19
:102050003846C5E7F81E0020F82400203C1E00206A
:10206000F82A002028000020012138B5D0220B4694
:10207000054604F091FF032201238121284604F044
:102080008BFF8121284605F059F80D4B4BF6803027
:102090001B68502100229847044610B102242046B4
:1020A00038BD28460121074AC02304F0C1FF064A73
:1020B0000649536F0120C03308705367204638BD6E
:1020C0009C010020F81E0020280000203C1E00205B
:1020D000704700BF70B54B7882B00C460546092B9F
:1020E00006D8DFE803F040520565057C9805AF206F
:1020F00094F90030002B11DBE3887BB128460021E6
:1021000004F0E0FF284604F033FA002002B070BD6E
:1021100091F90030002B01DB002AEFD12846802105
:1021200004F0D0FFEEE78978AC4E01293170DFD89A
:1021300090F81231022B00F09E80032BD8D1002999
:1021400000F0418190F81011012900F0E08004F0C6
:10215000B3FC317885F81011284604F0A1FC28461C
:1021600001F034FDD1E790F81231023B012BBFD8CA
:10217000D0F814319949002B14BF0323012341F8EF
:10218000083F012201F0F2FCBFE790F81231023B58
:10219000012BADD84B88012BB7D1D0F8E035002208
:1021A0009B68C0F814219847284601F00FFDACE762
:1021B0004B88012B00F0FD80022BA6D18B8813F0F9
:1021C000FF0FA2D101691B0A4A68013B1046042B8C
:1021D00000F29C80DFE803F0A9AEA49F96008B88F4
:1021E000002B85D1CB88002B3BD190F812318C7815
:1021F000032B04F07F0491D080F81341214604F0B2
:10220000ABFF284601F0E2FC002C00F0CE80022358
:1022100085F8123179E74A88130A013B062B3FF60D
:1022200067AF01A151F823F0E3220008A5220008BE
:1022300093220008F1200008F1200008F120000896
:10224000F1200008CA88012A7FF462AF90F81231A9
:10225000022B0CD0032B04D100F5887101F086FC11
:1022600053E794F90030002BBFF648AF56E75C49BE
:1022700001F07CFC49E7002949D00121032380F8C3
:10228000101180F8123104F00BFC284601F09EFC7E
:102290003BE7D2B2052A3FF62BAFDFE802F07D74B0
:1022A0006B625950D0F8E03580789B6A0DF10601D9
:1022B0009847022343700146C5F8EC05BDF8062097
:1022C000002A3FF422AFE388002B3FF41EAF934275
:1022D00028BF13461A462846ADF8063001F046FCE2
:1022E00013E7D0F8E83580781B680DF106019847B0
:1022F000E388402B014603D095F81221012ADDD155
:102300000822E1E7052363F3061002464A602846E7
:1023100001F05CFCF9E6042363F306100246F5E7DE
:10232000032363F306100246F0E7012363F306106C
:102330000246EBE7022363F306100246E6E7D0F815
:10234000E83580789B690DF1060198470146B5E7AD
:10235000D0F8E83580785B690DF1060198470146B1
:10236000ACE7D0F8E83580781B690DF10601984795
:102370000146A3E7D0F8E8358078DB680DF1060167
:10238000984701469AE7D0F8E83580789B680DF1C8
:1023900006019847014691E7D0F8E83580785B68F8
:1023A0000DF106019847014688E7012385F81231AF
:1023B000ABE6D0F8E025C0F814319368984728467A
:1023C00001F004FCA1E6022380F8101180F812311C
:1023D00004F072FB284601F0F9FB96E66C1E002023
:1023E000701E002038B590F81231032B04460D46BC
:1023F00002D10B79012B13D995F90030002B0ADBA0
:10240000EB8843B12046002104F05CFE204604F036
:10241000AFF8002038BD2046802104F053FEF5E7D8
:10242000D0F8E0359B689847EB88002BF1D1204627
:1024300001F0CCFBEDE700BF38B54B788A88012B63
:102440000C460546D1B222D018D3032B14D190F8F4
:102450001231022B16D0032B3BD163881BB94A06DD
:1024600001D004F02FFED5F8E03521469B682846C0
:102470009847284601F0AAFB002038BD90F8123199
:10248000022B12D14A06F7D004F01CFEF4E790F8B4
:102490001231022BF6D0032B1BD16388002BEBD11A
:1024A0004B06E6D004F02CFEDDE7032B11D113061A
:1024B00023D401EB810100EBC10191F8723333BBEE
:1024C000154B0022DA6028461449022201F04EFB27
:1024D000D2E794F90030002B0ADBE38843B12846A9
:1024E000002104F0EFFD284604F042F8002038BD3A
:1024F0002846802104F0E6FDF5E701F07F0101EBBD
:10250000810100EBC10191F81A31002BD8D0024BA8
:102510000122DA60D7E700BF6C1E0020781E002081
:1025200090F8C8350B7090F8C9354B7090F8CB25F2
:1025300090F8CA3503EB02234B8090F8CD2590F834
:10254000CC3503EB02238B8090F8CF2590F8CE3565
:1025500003EB02239BB20122CB80C0F83C3180F810
:102560001121704710B591F90030002B044609DBAA
:10257000CB883BB1002104F0A5FD2046BDE810400A
:1025800003F0F6BF2046802104F09CFD2046BDE804
:10259000104003F0EDBF00BF00B3037830B4F3B1D7
:1025A0000446002314F8015F0133DBB2002DF9D19A
:1025B0005B000233DCB2032513800C704D7004788D
:1025C0005CB1022300255A1CD2B2CC548D5410F8B1
:1025D000014F0233DBB2002CF5D130BC704702242E
:1025E0002346E8E702683749002310B422F00102CD
:1025F000212488420260036043608360C3600361FA
:1026000044614DD0304B984235D0304B984239D050
:102610002F4B98423DD02F4B984247D02E4B98429B
:1026200048D02E4B98421DD02D4B98421ED02D4B9A
:10263000984243D02C4B98421DD02C4B984221D02D
:102640002B4B984225D02B4B98422FD02A4B9842A7
:1026500030D02A4B984205D0294B984206D05DF8DD
:10266000044B7047274A43F8942CF8E74FF03D524B
:1026700043F8AC2CF3E74FF4746243F8202C5DF878
:10268000044B70474FF4741243F8382C5DF8044B38
:1026900070474FF0746243F8502C5DF8044B70475C
:1026A000194B5DF8044B3D229A607047174A43F876
:1026B000642CD4E7164A43F87C2CD0E73D2243F83B
:1026C000082CCCE7106002402860024040600240C5
:1026D000586002407060024088600240A060024082
:1026E000B860024010640240286402404064024026
:1026F000586402407064024088640240A064024052
:10270000B864024000003D20006002403D0000200F
:10271000400F00202DE9F04182B08B6A0193CB6815
:102720004F698E69CD690C6A4A6AD0F800C0DFF83B
:1027300050E098460B6848EA030848EA07073E431A
:1027400035432C43019B0E6B0D69224313434A6BA7
:102750004C6813438A6B0CEA0E0E134343EA0E03D4
:1027600003604269CB6A896822F00702334313434E
:10277000436145608460C16002B0BDE8F08100BF84
:102780003F801CF00023036043608360C3600361EB
:1027900043618361C361036243628362C362036313
:1027A00043638363704700BF036819B923F00103D3
:1027B0000360704743F0010303607047036819B971
:1027C00023F400430360704743F400430360704701
:1027D000036819B923F020030360704743F0200316
:1027E0000360704741607047406880B2704700BF27
:1027F000036822B923F4002303600161704743F4A6
:102800000023036001617047036819B923F4802332
:102810000360704743F48023036070470AB9C160C6
:1028200070470161704700BF0068C0F3C040704747
:10283000006800F001007047406900F03800704700
:102840000B4B0C4A10B40C4CA04294BF18461046D7
:102850008B004CBF436803685DF8044B21F0F02106
:1028600021F08211194214BF01200020704700BFDF
:1028700000600240006402400F64024010B4094B43
:10288000094C0A4AA04294BF1846104611F0005F56
:1028900021F0F02121F0821114BFC16081605DF848
:1028A000044B7047006002400F6402400064024025
:1028B0000B060CD54369AAB143F08003802943611C
:1028C0000FD0036801F01E01194301607047802991
:1028D00007D0002AF5D1036801F01E0123EA0101A7
:1028E0000160704723F0800380294361F3D1704772
:1028F00070B4104A104E114C21F0F02323F0C31590
:10290000B04298BF14468DB1006800F01E0000EA86
:10291000D12289004CBF6068206823F082131840E0
:1029200002D0101C18BF012070BC7047406900F035
:102930008002EEE7006002400F6402400064024043
:1029400010B4094B094C0A4AA04294BF18461046DD
:1029500011F0005F21F0F02121F0821114BFC1605D
:1029600081605DF8044B7047006002400F640240D4
:10297000006402402DE9F04F8DB0846807914188D2
:102980000A91254609940C4601F1804101390492CF
:10299000D0F804B00B9305EB81021E46002B00F02B
:1029A000C08004F00301A3080C4600930191591E56
:1029B000631E9BB289B2013301319B0002910592E3
:1029C00005EB011903930696A846079A52F8043BB3
:1029D0000792059A42F8043B037805921E46089335
:1029E000002B54D0DDF810C003F1010A4FF0010EA6
:1029F00009F11007009BDFED4C7ACEEB06050BEBDF
:102A00008505002B00F08B80B40008F110012B46E7
:102A100011ED045A93ED007A11ED036A51ED025A5B
:102A200051ED016AE5EE077A23441A1993ED007A15
:102A3000E6EE077A1319103192ED006A93ED007AF1
:102A4000E5EE867A8F422344E6EE877AE0D1029B58
:102A5000A40004FB03554B46019A5AB1039AB600F1
:102A60009A18F3EC016A95ED007A93423544E6EE4C
:102A7000877AF6D10EF1010ED645ECEC017A01D041
:102A80000678B7E7049B089A03EB82030493069B3E
:102A9000013B08F1040809F10409069395D1099B4B
:102AA0000B9A03EB82010A9B581EC0F38F0323B3DA
:102AB000099A013B9DB2AE1C134602EB0616103379
:102AC00001F1100252F8104C43F8104C52F80C4C23
:102AD00043F80C4C52F8084C43F8084C52F8044C9C
:102AE00043F8044C1033B34202F11002EAD1099AC0
:102AF0006B1C1B011A440992194410F003020BD0FD
:102B0000013A92B20132099B01EB820251F8040BA7
:102B100043F8040B9142F9D10DB0BDE8F08F434664
:102B20009AE72946BFE700BF0000000008B54FF450
:102B30008040012101F02EFC4FF480400021BDE8CF
:102B4000084001F027BC00BF014B1860704700BF70
:102B50000038014001F0FC0303F1804303F59C338E
:102B600001F0030110B489009C680F228A4024EA16
:102B700002029A609A685DF8044B884002439A60AA
:102B8000704700BF014B1860704700BFDC00274250
:102B9000014B1860704700BF00042742024B186ABF
:102BA000C0F30020704700BF003801402DE9F0431A
:102BB00083B002AC0220012101F080FB4FF480665B
:102BC0000620012101F07AFB224D44F8086D032212
:102BD0000023284621464FF00109DFF87C808DF85C
:102BE00005208DF806308DF807308DF8049000F040
:102BF00019FE4FF480732146284600934FF4006776
:102C000000F010FE21464046009700F00BFE4846BB
:102C100004F0FAFB4046394600F08EFE28460A21B1
:102C2000052200F099FE28460F21052200F094FEAF
:102C300002224FF40043214628468DF804200093D9
:102C400000F0F0FD21462846009600F0EBFD03B0B1
:102C5000BDE8F0830004024000080240F0B5164CC5
:102C600087B0074601214FF4804001F04BFB20461E
:102C7000FEF722FA4FF4404600234FF4007220463C
:102C800001A94FF48275ADF80830ADF80A30ADF8FF
:102C90000C30ADF81230ADF80E20ADF81070ADF874
:102CA0000460ADF80650FEF73DFA20460121FEF71C
:102CB000D1FA07B0F0BD00BF0038004010B5B0F544
:102CC000887F82B038BF4FF488700446ADF80600A4
:102CD00028488021FEF784FB0028F9D125480221ED
:102CE000FEF77EFB0028F9D022482821FEF73EFBA4
:102CF00020488021FEF774FB0028F9D1012004F060
:102D000083FB1D484FF4807100F016FE012004F093
:102D10007BFB18480221FEF763FB0028F9D0E1B2E3
:102D20001448FEF723FB13480221FEF759FB002845
:102D3000F9D010489DF80710FEF718FB0D48022146
:102D4000FEF74EFB0028F9D00A481221FEF70EFBD1
:102D500008488021FEF744FB0028F9D1012004F047
:102D600053FB05484FF4807102B0BDE8104000F0FD
:102D7000E5BD00BF003800400004024000B583B04C
:102D8000019029488021FEF72BFB0028F9D1264825
:102D90000221FEF725FB0028F9D023482921FEF760
:102DA000E5FA21488021FEF71BFB0028F9D101201C
:102DB00004F02AFB1D484FF4807100F0BDFD012096
:102DC00004F022FB18480221FEF70AFB0028F9D084
:102DD00015489DF80410FEF7C9FA13480221FEF7C2
:102DE000FFFA0028F9D010489DF80510FEF7BEFA4A
:102DF0000D480221FEF7F4FA0028F9D00A489DF8A0
:102E00000610FEF7B3FA08488021FEF7E9FA002819
:102E1000F9D1012004F0F8FA04484FF4807100F071
:102E20008DFD03B05DF804FB003800400004024053
:102E3000464B002202212DE9F0411D465F1D1E4632
:102E40001C461A705A709A70D970197140488021C6
:102E5000FEF7C6FA0028F9D114F8011B3C48FEF72A
:102E600085FABC42F2D13A488021FEF7B9FA04460D
:102E70000028F8D13748DFF8E8804FF4807100F07F
:102E80005BFD34484FF4807100F058FD01224F2360
:102E90007470B4703270F370A8F1040634462C4894
:102EA0008021FEF79DFA0028F9D114F8011B28486B
:102EB000FEF75CFA4445F2D125488021FEF790FAEE
:102EC0000028F9D100F1804000F501304FF4807105
:102ED00000F032FD1F484FF4807100F02FFD1E4AB4
:102EE0001E4B13601BBA4FF0804C4FF0040E26248B
:102EF000542032210F22CCF8403086F800E0747064
:102F0000B070F170327112488021FEF769FA002822
:102F1000F9D115F8011B0E48FEF728FAAF42F2D19D
:102F20000B488021FEF75CFA0028F9D100F18040BF
:102F300000F501304FF4807100F0FEFC05484FF4BD
:102F40008071BDE8F04100F0F9BC00BF882C002082
:102F50000038004000040240842C00200F32542628
:102F60008C2C002038B51849184A42F6F11303FB9F
:102F700000F004230860137000BA1446C2F8010080
:102F8000551D13488021FEF72BFA0028F9D114F8BB
:102F9000011B0F48FEF7EAF9AC42F2D10C48802140
:102FA000FEF71EFA0028F9D100F1804000F501304B
:102FB0004FF4807100F0C0FC06484FF48071BDE80A
:102FC000384000F0BBBC00BF842C0020882C0020BF
:102FD000003800400004024008B50B480B49FFF7D9
:102FE00087FC58B908480A49FFF782FC00B908BDB8
:102FF00005480749BDE80840FFF7A2BC024803495D
:10300000FFF79EFCEEE700BF10600240104000108A
:10301000208000102DE9F04F83B0054602F0D0FF6C
:1030200018B9002003B0BDE8F08F284602F0D6FFA3
:1030300001900028F5D0C0F3074707F0080303F01C
:10304000FF00002B40F0A3807E0730D49DF80440A1
:10305000A10702D5EB6802225A61019B002BC0F246
:10306000F281C3F30726320700F1CD81270700F173
:10307000C081E10600F19781F20600F1FB80B30602
:1030800000F1DC80019BC3F3074919F0100F40F0F9
:10309000CA8019F0200FC5D0754B1B6828461B6AE3
:1030A0009847EB684FF400125A610120BAE72846AE
:1030B00003F058FA8046002867D02E4605F118091B
:1030C0004FF0000A2FE0580703D5D9F80020042359
:1030D0009360190703D5D9F8002008239360DA0616
:1030E00003D5D9F80020102393609F0603D5D9F8A3
:1030F0000020202393605C0603D5D9F800204023EC
:103100009360980703D5D9F8002002239360DB0968
:1031100040F0DB815FEA58080AF1010A06F128064F
:1031200009F1040931D02AF08003012B02D10320D8
:10313000FDF76AF818F0010FECD029695FFA8AFBF5
:1031400008694B6B05EB8B0223FA0BF39269DB01E9
:10315000DBB2926803431340DBB2DC07B3D5444AC9
:103160004B6BD9F800401268012000FA0AF723EAF5
:1031700007034B635368A060594628469847EC788C
:10318000012C00F0EF8101239DE701205EE7284636
:1031900003F0DAF90446002843D0DFF8D48005F1C3
:1031A0005406A9464FF0000B07E064080BF1010B31
:1031B00006F1040609F1280933D0E207F5D55FFAD4
:1031C0008BFA5146284603F0C5F9C0B2C30713D5A0
:1031D000336801209860EA78824200F0DF81D8F8F5
:1031E000003051461B682846984795F803A0BAF16D
:1031F000010F00F0C5810120810702D5336802204C
:103200009860420702D53368042098600307CCD544
:10321000D8F8003028469B689847336808209860A3
:10322000C3E7012010E7124B1B682846DB6998476B
:10323000EB684FF480125A6101202AE7284602F019
:10324000D1FFEB682846DC6802F0BCFF032800F0E1
:103250003381012140220523A970AA8063F38D24C4
:10326000EB684FF40052DC6001205A610AE700BFAE
:10327000B80100202A695368002723F00103536036
:103280003946284602F038FE6B78002B6BD0AA69CD
:10329000FF2393606A6D93606A78012A63D9EA69B3
:1032A0009360AA6D93606A78022A5CD92A6A936057
:1032B000EA6D93606A78032A55D96A6A93602A6E28
:1032C00093606A78042A4ED9AA6A93606A6E936002
:1032D0006A78052A47D9EA6A9360AA6E93606A7889
:1032E000062A40D92A6B9360EA6E93606A78072AAF
:1032F00039D96A6B93602A6F93606B78082B32D947
:10330000AA6BFF2393606A6F93606A78092A2AD9AF
:10331000EA6B9360AA6F93606A780A2A23D92A6CB1
:103320009360EA6F93606A780B2A1CD96A6C936089
:10333000D5F8802093606A780C2A14D9AA6C93601F
:10334000D5F8842093606A780D2A0CD9EA6C9360D2
:10335000D5F8882093606A780E2A04D92A6D936084
:10336000D5F88C20936001242B6964F30F070F219B
:103370004FF0FF302F2264F31F479861DF615961DE
:103380001A611A686FF30A121A60284603F0F0F8FF
:10339000874BEA681B684FF480511B6951612846CE
:1033A000984720466BE6EB689A6922F010029A6112
:1033B0001C6AC4F34342022A04F00F075FD0062AB6
:1033C00011D107EB870705EBC707284605F5B9615B
:1033D000082202F0F1FAD7F88833C4F30A141C4427
:1033E000C7F88843EB689A6942F010029A6101209D
:1033F00042E66F4B1B682846DB689847EB6808225B
:103400005A61012035E66A4B1B6828465B6998477C
:103410002A69EB6891684FF400625A61AB7A83B114
:10342000CB070ED5D5F80C3162491A6842F001027B
:103430001A601A6842F003021A600B6943F006032F
:103440000B61012012E6AB7A43B1D5F80C31D5F807
:103450000C216FF341036FF3000313602A69544991
:103460005368096823F00103536028468B69984725
:10347000EB684FF000425A610120019BF1E547F6ED
:10348000F0722240002AAED007EB870705EBC70792
:10349000C4F30A142246D7F87C13284602F08CFAAB
:1034A000D7F87C23D7F8883322442344C7F87C23F9
:1034B000C7F88833EB6896E700214FF400720923C0
:1034C000A970AA8063F38D24CAE6D6F82C71D6F8C9
:1034D00030E1D6F82021D9F80010CEEB0704944251
:1034E0008B69204628BF104603309BB2B3EB900F88
:1034F00033D9774531D987B3D6F8241109E0D9F803
:103500000040A26992B297422AD248B3D6F820214D
:10351000C41A944228BF1446A3B228465A4602F061
:1035200037FAD6F83031D6F82411D6F82C012344D6
:10353000E71C214483424FEA9707C6F82411C6F8D6
:103540003031DCD3286996F81841426BD9F8001065
:103550000123A34022EA0303436380238B60D9E560
:103560002146FAE7BAF1000F7FF40DAE95F811315C
:10357000042B7FF408AE284602F0FAFF2346A2E5AA
:10358000BBF1000F7FF437AE95F81131052B7FF4B6
:1035900032AE284602F0ECFF50462DE61A69D9F803
:1035A0007833C2F312029B1AC9F8883317E600BFBA
:1035B000B801002000ED00E00B4B0C4A1B68A2FB99
:1035C00003231B09B3F1807F00D3FEE730B4084A20
:1035D000084CF025013B5360002084F8235007215C
:1035E000906030BC1160704724000020ABAAAAAAEA
:1035F00010E000E000ED00E0704700BF704700BF42
:10360000704700BF704700BF704700BF044B0549BB
:1036100000221A605A609A60DA605961704700BFF0
:10362000003C0140FFFF7F00837933B31C4B0279DC
:103630004179F0B404681E68E7433E401E605D684F
:1036400002F1804202F59E323D405D6015682C43D8
:10365000146002689C68D5432C409C60D86810298F
:1036600000EA0500D86013D001F1804303F59E33D2
:10367000F0BC19680A431A6070470379016803F1C6
:10368000804303F59E331A6822EA01021A607047EC
:10369000996811439960D9680A43DA60F0BC7047B1
:1036A000003C014000230C224271036003718371CE
:1036B000704700BF024A136918431061704700BF8A
:1036C000003C0140034B5B69184214BF01200020FD
:1036D000704700BF003C0140014B5861704700BF7C
:1036E000003C0140054B1A685B69034004D010425E
:1036F00014BF01200020704718467047003C01406D
:10370000014B5861704700BF003C014008B53C4B7D
:10371000984224D03B4B98422BD03B4B984232D01E
:103720003A4B984239D03A4B984240D0394B984264
:1037300047D0394B98424ED0384B984255D0384BF1
:10374000984200D008BD4FF48070012100F0F2FDD6
:103750004FF480700021BDE8084000F0EBBD01206F
:10376000014600F0E7FD01200021BDE8084000F01F
:10377000E1BD0220012100F0DDFD02200021BDE8B5
:10378000084000F0D7BD0420012100F0D3FD042043
:103790000021BDE8084000F0CDBD0820012100F067
:1037A000C9FD08200021BDE8084000F0C3BD10207D
:1037B000012100F0BFFD10200021BDE8084000F00D
:1037C000B9BD2020012100F0B5FD20200021BDE879
:1037D000084000F0AFBD4020012100F0ABFD4020CB
:1037E0000021BDE8084000F0A5BD8020012100F0C7
:1037F000A1FD80200021BDE8084000F09BBD00BF76
:10380000000002400004024000080240000C024098
:10381000001002400014024000180240001C024048
:103820000020024000222DE9F0431346D1F800E0C9
:1038300001274FF0030C04E00133102B02F10202C8
:1038400028D007FA03F404EA0E05A542F4D1D0F813
:1038500000800E790CFA02F4E44304EA0808C0F888
:103860000080D0F8008006FA02F9013E49EA080813
:10387000012EC0F800800FD9C568CE792C40C460F5
:10388000C56806FA02F401332C43102BC46002F120
:103890000202D6D1BDE8F083D0F8089091F80580F7
:1038A0008E7904EA0909C0F80890D0F8089008FA5F
:1038B00002F848EA0908C0F80880D0F8048028EA2D
:1038C00005054560D0F8048006FA03F5ADB245EA77
:1038D00008054560D0E700BF00234FF6FF72026085
:1038E000037143718371C371704700BF82B04FF49D
:1038F00080330193019B0B430193019BC361C16121
:10390000019BC361C3690193C369019302B070470E
:103910000369194214BF012000207047006980B27A
:10392000704700BF4369194214BF0120002070474F
:10393000406980B2704700BF018370474183704780
:103940000AB9418370470183704700BF41617047E6
:103950004369594041617047CB0800EB830001F097
:10396000070110B48900046A0F238B4024EA030383
:103970000362036A5DF8044B8A4013430362704795
:1039800012230B8000487047F000002004230B80B6
:10399000004870470401002010B5044C04480A4652
:1039A0002146FEF7F9FD204610BD00BFBC2B0020CC
:1039B0006C78000808B50A4628B106480649FEF7A3
:1039C000EBFD054808BD05480349FEF7E5FD024843
:1039D00008BD00BFA4780008BC2B00208078000838
:1039E00008B50A4628B106480649FEF7D5FD054840
:1039F00008BD05480349FEF7CFFD024808BD00BFDA
:103A0000D8780008BC2B0020C878000810B5044CFA
:103A100004480A462146FEF7BFFD204610BD00BF00
:103A2000BC2B0020E878000810B5044C04480A4676
:103A30002146FEF7B1FD204610BD00BFBC2B002083
:103A4000F878000870B50120284C82B0014600F0DB
:103A500035FC032600232046694602224FF4D85540
:103A60008DF806308DF8073000958DF804208DF81C
:103A70000560FFF7D7FE204608210A22FFF76CFFFA
:103A8000204609210A22FFF767FF20460B210A2260
:103A9000FFF762FF20460A220C21FFF75DFF012598
:103AA0004FF480636946204600938DF805608DF8D9
:103AB00006508DF80750FFF7B5FE0A210A4620464A
:103AC000FFF74AFF29464FF4804000F027FC2946C3
:103AD000802000F0FFFB29464FF0805000F04EFCA4
:103AE0002846FFF70DFE02B070BD00BF0000024087
:103AF00000B54FF4C06083B000F0D2FC0123432135
:103B0000032201A88DF804108DF805308DF80730D8
:103B10008DF8062000F0CEFC03B05DF804FB00BF7A
:103B2000C0EB0010064BC200A3FB0213D21A03EB3A
:103B300052029208002301339A42FCD2704700BF20
:103B400025499224074A084B02FB00F0A3FB0023FF
:103B5000C21A03EB52029208002301339A42FCD2AC
:103B6000704700BFC0D401002549922438B51346E0
:103B700002250A46C0F83831C0F8343180F81151B6
:103B8000002103F07BFA002038BD00BF08B51346C2
:103B90000A46002103F072FA002008BD38B513462A
:103BA00003250A46C0F89033C0F88C3380F81151D1
:103BB000002103F03DFA002038BD00BF08B51346D0
:103BC0000A46002103F034FA002008BD10B5002198
:103BD000042304460A4680F811310B4603F04EFADE
:103BE000204602F0C5FC002010BD00BF10B500212A
:103BF000052304460A4680F811310B4603F018FAF3
:103C0000204602F0B5FC002010BD00BF01EB810191
:103C100000EBC100B0F88803704700BF2DE9F04FFA
:103C2000334CDFF8E080334E4FF4407283B0A71876
:103C30000D4682464146204603F018FD08F54071C6
:103C400038464FF48C784FF4C87203F00FFD4246AB
:103C500004F5C060002103F0A3FD04F638094246D4
:103C60004FF4137B04F21C70002103F099FD04F65D
:103C700084285A464846002103F092FD5A464046A1
:103C8000002103F08DFD04F5C063306851468DE8D6
:103C90002800C022234601F0CDFD04F21C73706899
:103CA00051468DE82800C022234601F0C3FDB068CC
:103CB00000954B463A466421FEF706F8F0680095F9
:103CC0003A4643466421FDF7FFFF0B4E0B4D0C496E
:103CD00004F54D6304F6DC4400224FF07E501E6074
:103CE0005D609A60A2602060616003B0BDE8F08F03
:103CF000F401002030010020CDCC4C40FBE300C09B
:103D000042535F3E087900082DE9F04F83B0BDF8BB
:103D100030000746002800F0F480884E013856ED48
:103D2000022A96ED004A16ED063A96ED041AD6EDF3
:103D3000034A56ED053AD6ED010AD6ED071A96ED7F
:103D4000065A96ED0A2AD6ED095A80B206F10C0EF3
:103D500006F1180906F1240C023088461C4602EBD5
:103D60008000131DB1EE620A06F1300106F1F00287
:103D70000FE0B0EE652AF0EE451AB0EE641AF0EEF0
:103D8000440AF0EE675AB0EE665AF0EE474AB0EEDB
:103D9000464A33F9045C06EE105A33F9025C06EE2B
:103DA000905AB8EEC66A24EE237AF8EEE66A63EE1D
:103DB000857AA6EE037A04338342E6EE837AA4EE94
:103DC000E27AE0EE257AA1EC017AE2EC017AD0D138
:103DD0005B4D5C49A8685C4A8EED021A3B46CEED0D
:103DE000014A8EED007AC9ED021A89ED015AC9ED3A
:103DF000006AC6ED020A86ED014A86ED006A8CED86
:103E0000022ACCED015ACCED007A03F0D9F9E8682A
:103E10004E494F4A3B4603F0D3F928684A494D4A78
:103E20003B46FEF7A7FD4A4968683B46A1F5D862C4
:103E3000FEF7A0FD08F1FF33DBB201339B004FF02A
:103E4000000A01934FEA88030093B946D346424BD8
:103E5000DFF814E1B8F1000F4ED03E4A02EB0A063B
:103E60003E4A02EB0A00019A04EB020C1F683C492F
:103E70003C4AF6EC015AB0EC016AD5ED044AD5EDA6
:103E8000056A95ED064A3944196059680A445A6032
:103E90001A68920C0EEB420275EEC67AB2F99024C3
:103EA0009A605A68920C0EEB420227EEA47AB2F99D
:103EB0009024DA60D3ED027A93ED035AF8EEE77AB4
:103EC000B8EEC55A67EEA67A35EE866A67EE277AAF
:103ED000E5EE047AE4EE867AE4EC017A6445C5D135
:103EE0000BF1010B1FFA8BF2009991458A4405D919
:103EF0006446B8F1000FB0D1A446F1E703B0BDE8C5
:103F0000F08F0F4C0F49A0680F4A3B4603F058F959
:103F1000E0680E490E4A3B4603F052F920680A4910
:103F20000C4A3B46FEF726FD094960683B46A1F571
:103F3000D86203B0BDE8F04FFEF71CBDDC0E0020D8
:103F4000300100200C0F00208C1C0020CC0F002022
:103F50004C1D00208C1000207C1E00208C160020A0
:103F600000DD5419806EAA0C08790008AAB130B49B
:103F70000A4D541EA4B2ED6903EB8404043BF1EC3A
:103F8000017AFDEEE77A17EE902A05FB020212BADB
:103F900043F8042FA342F2D130BC70473001002017
:103FA000704700BF2DE9F0431B4CBDF81C1004FB0B
:103FB00002F204FB03F361B301F1FF3E1FFA8EFE30
:103FC0000EF1020E1549164F164E00EB8E0E043000
:103FD0000C6914440C614C691C444C610D694C69BA
:103FE000AD0CA40C07EB440407EB4505B4F990C4F1
:103FF000B5F9908486FB084586FB0C94A5EBE87523
:10400000A4EBEC7420F8045C20F8024C04307045FA
:10401000DED1BDE8F08300BF865D01007C1E00207C
:1040200008790008ABAAAA2A0A4B0B481A68002193
:1040300042F001021A6099601A6822F0847222F438
:1040400080321A6058601A6822F480221A60D9609F
:10405000704700BF0038024010300024024B00229D
:104060001A701870704700BF0238024082B00023F7
:104070000A4A019302E0B3F5A06F08D0136813F465
:10408000003F019B03F101030193019BF3D0034B1C
:104090001868C0F3404002B0704700BF00380240CB
:1040A000034A136823F0F80343EAC0001060704726
:1040B00000380240014B1860704700BF00004742C3
:1040C000064B002201281A701A7005D0042802D16C
:1040D00005221A7070477047187070477038024098
:1040E000014B1860704700BF800E474230B4029CFD
:1040F000064D40EA046001435B08013B41EA82123D
:1041000042EA0340686030BC704700BF003802409C
:10411000014B1860704700BF600047420907034B1E
:1041200041EA8010C3F88400704700BF00380240A5
:10413000014B1860704700BF68004742014B186090
:10414000704700BF4C004742034A936823F0EC637A
:10415000194308439060704700380240034A93684F
:1041600023F07843194308439060704700380240B9
:10417000034A936823F0030318439060704700BF1D
:1041800000380240024B986800F00C00704700BFF6
:1041900000380240034A936823F0F003184390600C
:1041A000704700BF00380240034A936823F4E0538D
:1041B00018439060704700BF00380240034A93687C
:1041C00023F4604343EAC000906070470038024027
:1041D00010B4214CA36803F00C03042B1BD0082B54
:1041E0001CD01E4B03601C4A1D499468C4F3031481
:1041F0000C5DE34043609468C4F382240C5D23FAB1
:1042000004F4846092685DF8044BC2F342328A5C25
:10421000D340C3607047134B0360E4E76368616891
:1042200013F4800F636818BF0E4C01F03F020CBFFF
:104230000A49B4FBF2F1C3F3881308BFB1FBF2F1F2
:1042400001FB03F2044B5B68C3F3014301335B00E2
:10425000B2FBF3F30360C6E7003802400024F40029
:104260005401002000127A0000F44073B3F5407F3F
:1042700009D108498B6820F0704223F4F81322F426
:10428000407213438B60034A136FC0F30B00184353
:104290001067704700380240014B1860704700BF3C
:1042A0003C0E4742014B1860704700BF400E47422A
:1042B000014B1860704700BF5C014742044A136B12
:1042C00019B923EA00001063704718431063704760
:1042D00000380240044A536B19B923EA00005063C6
:1042E000704718435063704700380240044A936B8C
:1042F00019B923EA00009063704718439063704730
:1043000000380240044A136C19B923EA0000106413
:10431000704718431064704700380240044A536CD9
:1043200019B923EA0000506470471843506470477D
:1043300000380240044A136919B923EA00001061E9
:10434000704718431061704700380240044A5369AF
:1043500019B923EA00005061704718435061704753
:1043600000380240044A936919B923EA00009061B9
:10437000704718439061704700380240044A136A3E
:1043800019B923EA000010627047184310627047A1
:1043900000380240044A536A19B923EA0000506207
:1043A000704718435062704700380240044A136D4A
:1043B00019B923EA0000106570471843106570476B
:1043C00000380240044A536D19B923EA00005065D1
:1043D000704718435065704700380240044A936D97
:1043E00019B923EA0000906570471843906570473B
:1043F00000380240044A136E19B923EA000010661F
:10440000704718431066704700380240044A536EE4
:1044100019B923EA00005066704718435066704788
:1044200000380240044A137819B923EA00001070DA
:1044300070471843107070470D3802404309012B34
:104440000BD0022B094B0CBF1A6F5A6F00F01F03E1
:1044500022FA03F000F001007047044B1A6800F0E4
:104460001F0322FA03F000F00100704700380240F9
:10447000024A536F43F0807353677047003802401D
:10448000034BDB68184214BF01200020704700BFB7
:1044900000380240014B1870704700BF0E380240D0
:1044A00040F0BF60024B40F40030D860704700BF5E
:1044B00000ED00E0C3785BB9037818485A09203250
:1044C00003F01F03012101FA03F340F82230704783
:1044D000134BF0B4D9684578827804780F4EC943FD
:1044E000C1F30221C1F10407FFB20F23BD400B410C
:1044F0001340E9B20B4304F1604202F561421B0133
:10450000DBB282F800330378012203F01F015B095C
:104510008A4046F82320F0BC704700BF00E100E06D
:1045200000ED00E021F0604121F07F01014B0843E4
:104530009860704700ED00E0044A136919B923EA56
:1045400000001061704718431061704700ED00E0F3
:10455000044A136804280CBF43F0040323F0040347
:104560001360704710E000E070B5854C4FF496136F
:1045700005460E46236004E023685A1E2260002B85
:1045800078D080484FF40031FDF71AFA0028F3D1B3
:104590007C480121FDF7E0F84FF48053236004E0EC
:1045A00023685A1E2260002B65D076487649FDF7B5
:1045B000F1F90028F4D0734894210022FDF7E8F8BF
:1045C0004FF48053236004E023685A1E2260002BBE
:1045D00052D06C486D49FDF7DDF90028F4D06948E8
:1045E0002946FDF76FF94FF48053236004E02368F8
:1045F0005A1E2260002B40D062486549FDF7CAF977
:104600000028F4D05F483146FDF75CF94FF496136B
:10461000236004E023685A1E2260002B2ED05948E4
:104620005C49FDF7CDF90028F4D056480121FDF78B
:10463000A1F84FF49613236003E023685A1E22600A
:10464000EBB150484FF40031FDF7BAF90028F4D12E
:104650004C480121FDF780F84FF48053236049480E
:104660004949FDF797F958B923685A1E2260002B73
:10467000F5D1FEE7FEE7FEE7FEE7FEE7FEE7FEE731
:10468000404894210022FDF783F84FF480532360C3
:104690003C483E49FDF77EF928B923685A1E22603E
:1046A000002BF5D1FEE729463648FDF70BF94FF40C
:1046B0008053236033483749FDF782F928B92368CE
:1046C0005A1E2260002BF5D1FEE72E480121FDF78E
:1046D00043F84FF4805323602A482B49FDF75AF9D9
:1046E00028B923685A1E2260002BF5D1FEE7254821
:1046F00094210122FDF74CF84FF480532360214DA3
:1047000025492846FDF75CF928B923685A1E22601E
:10471000002BF4D1FEE728460021FDF745F8284696
:1047200001212B8BFDF726F84FF4805323601548A9
:104730001A49FDF745F928B923685A1E2260002B53
:10474000F5D1FEE70F48FDF7BFF84FF480530D4A4F
:104750002360054613889B0505D52368591E2160F3
:10476000002BF7D1FEE707480121FDF71DF80548AA
:104770000B49FDF741F9701B18BF012070BD00BF48
:104780006401002000540040010003008200070083
:10479000800007000400001002000010400000101C
:1047A000000400101D4B2DE9F04158605A68012AA1
:1047B0001FD0022801D0BDE8F081194EDFF884C077
:1047C000184F194D194C1A481A491B4ADE604FF010
:1047D00060684FF4001E1126CCF80080C3F808E092
:1047E0001F615E619D61DC61186259629A62BDE879
:1047F000F081124ADA60DFF84CC0114F4FF0000828
:104800004FF4001E2F264FF020554FF010544FF05C
:1048100001504FF008514FF00452DDE764010020D1
:10482000A06002401874004000002020000010200A
:10483000000001200000082000000420B8600240B1
:104840000C3C00409C1E002030B52E4D83B06B699F
:104850008DF8003001220223002468468DF80120E3
:104860008DF802308DF80340FFF724FE2146E868FA
:10487000FDF79AFFE868FDF7B5FE224622481021B1
:10488000FFF75EF844F6FF74013CFDD101221E489B
:104890001021FFF755F801210220FFF765FE4FF4C4
:1048A000A0536946194800938DF804408DF80540DF
:1048B0008DF806408DF80740FEF7B4FF10236946D7
:1048C00013480093FEF7AEFF224611480421FFF77C
:1048D00043F822460D480A21FFF73EF822460B48CE
:1048E0000C21FFF739F821460A48FCF7C1FC0948BA
:1048F000FCF7E2FB4FF400402146FFF703FD2046A2
:1049000003B030BD64010020000C024000080240EA
:1049100000000240003C00402DE9F047DFF8A48091
:10492000284ED8F804904C08B4F5003F34BF8D08E9
:104930004FF6FF75B9F1010F0746C8F82C4030D08B
:10494000214BDFF898E0214ADFF89490F0689F60EF
:1049500019464FF0000C4FEA450A1D61A9F800A066
:10496000AEF800C01760FDF7D5FEF0680121FDF735
:104970001BFF1748838B5B0502D40121FCF778FCF1
:10498000D8F82C001349144A4FF6FF73984228BFF9
:104990001846241A07EB400010604C600020BDE868
:1049A000F087F0680021FDF7FFFE074BF0689F607D
:1049B00019466D001D61FDF7ADFEF0684946FDF733
:1049C000F3FED6E764010020E04A0020A04A002060
:1049D000003C00409C1E00209C4A00201C4B0020F4
:1049E000984A002070B520B3204D0420297AFFF7A3
:1049F000BBFD297A04460420FFF7B6FD9E2104443E
:104A00000220FFF7B1FD241801D0012070BD184E1F
:104A1000022130460122FCF7C9FC164B0121D8685F
:104A2000FDF7C2FEB08B00F4806085B2C5B12046B0
:104A300070BDFF210420FFF797FD012104460220ED
:104A4000FFF792FD0419E0D1224609480221FCF744
:104A5000ADFC084B2146D868FDF7A6FE204670BD88
:104A600030460121FCF704FC284670BD9C1E002046
:104A7000003C00406401002070B5FF210446042082
:104A8000FFF772FD022C27D002209F21FFF76CFD5B
:104A900040F6FF720446013AFDD112481021FEF79C
:104AA0004FFF0CB1012070BD0F4D2146E868FDF7A6
:104AB0007BFEEE69AA692B6A696AE8683243134390
:104AC0001943FDF7DBFE09482146FCF7D1FB084BF3
:104AD000EA6A5A60204670BD20469F21FFF744FDD8
:104AE0000446DEE7000C024064010020003C004068
:104AF0009C1E0020642838B50FD80E4BC0EB002058
:104B000083FB0023C017C0EB6310C4B21934E6283E
:104B1000E4B203DD2146202002E07D24202021464E
:104B2000FFF722FD214605462120FFF71DFD284401
:104B300038BD00BF1F85EB51012803D0034B042073
:104B4000197A11E50420FF210EE500BF9C1E00200C
:104B500008B50E480E49FDF773FE70B90B480D49B4
:104B6000FDF76EFE00B908BD0B4B0848094901224C
:104B70001A70BDE80840FDF781BE074B03480449A1
:104B800002221A70FDF77AFEE8E700BFA06002403B
:104B90000000202000001020B41E002010B50F4C93
:104BA000E068A169FDF74CFE78B9E068E1690B4C5B
:104BB000FDF746FE00B910BD094BE068E16901222E
:104BC0001A70BDE81040FDF759BE054BE068A169B9
:104BD00002221A70FDF752FEE7E700BF64010020D1
:104BE000944A002010B52E480221FCF7F9FBD8B1F9
:104BF0002C4A2D4953682D48022B00880B881BD066
:104C0000984212D3526801339BB2022A0B8023D000
:104C1000274B28481A68941C118841811C60204841
:104C2000BDE81040FCF7A2BB10BD224B59891C48BF
:104C3000BDE81040FCF79ABB984219D35268013383
:104C40009BB2022A0B801ED0194B1A481A68118891
:104C50004181941C1C600DE015490A68DB075CBFAC
:104C6000131D0B601188134B81F400415981DEE75D
:104C7000104B59890420FCF7A1FF09480021BDE829
:104C80001040FCF773BB0A490A68D8075CBF131DC4
:104C90000B601188074B81F400415981EAE700BF9E
:104CA000003C0040640100201C4B0020984A00207A
:104CB000A04A00209C1E0020F0B4294C07460FCCCF
:104CC00094B001AD0FC594E8030004F1080685E82F
:104CD00003000FCE0DAD0FC596E80700243485E81C
:104CE00007000FCC07AD0FC594E80300019BBB4242
:104CF00085E803002CD0029BBB422FD0039BBB4214
:104D00002AD0049BBB4225D0059ABA4214BF052283
:104D1000042214481449836814AC43F400038360EC
:104D200004EB82028B8B52F8340C52F81C2C23F4C7
:104D3000806342EA00221B041B0C92B28B830A841C
:104D40008B8B9BB243F480638B8314B0F0BC7047B1
:104D50000022DEE70322DCE70222DAE70122D8E7BD
:104D600098FD000800380240003C0040FEE700BF0C
:104D70002DE9F0411C4C6768012F06460D4622D0F4
:104D80001A4BDFF878C01A4A1A4FE0689E6019463D
:104D90004FF0000E4FEA45081D61ACF80080A7F8FF
:104DA00000E01660FDF7B6FCE0680121FDF7FCFCB1
:104DB0001148838B5B0501D5BDE8F0810121BDE879
:104DC000F041FCF755BAE0680021FDF7EDFC074B18
:104DD000E0689E6019466D001D61FDF79BFCE06870
:104DE0003946FDF7E1FCE3E764010020E04A0020DA
:104DF000A04A00201C4B0020003C0040984A0020A4
:104E000070B50E4C06460D4620460021FDF7CCFC41
:104E10000B4B204619469E601D61FDF77BFC20462A
:104E20000121FDF7C1FC10200121FCF783FE1020B9
:104E30000121BDE87040FCF7FFBE00BFA06002404A
:104E4000E04A0020704700BF2DE9F04F3848394D47
:104E5000DFF8ECA089B00121FFF730FA4FF00050E5
:104E600001210024FFF74EFA2022032302A9324831
:104E700002928DF80C308DF80F40FEF7D3FCFCF752
:104E80002DFE10202C230DEB0001049305940794B4
:104E90000694FCF731FE4FF400100121FFF70EFAE3
:104EA00021462846FDF780FC2846FDF79BFB234B57
:104EB0004FF4806C4FF4006E194628464FF40032D0
:104EC0004FF0606B4FF040094FF6FE784FF40057FB
:104ED0004FF48076C3F818C0C3F81CE09C605C6196
:104EE000DC621C635C639C63C3F800B0C3F804A07D
:104EF000C3F80C90C3F810801F625E629A62FDF7DF
:104F000009FC284618210122FDF7D2FC01231121BA
:104F1000022201A88DF804108DF805308DF80730B5
:104F20008DF80620FFF7C6FA09B0BDE8F08F00BF84
:104F300001002000A060024000000240E04A002082
:104F4000187400402DE9F04F642989B0174600F22B
:104F50003781D04BC1EB012183FB0138C917C1EB6D
:104F600068185FFA88F808F119095FFA89F94FF0B3
:104F7000100B08200121FFF7A1F9002401260DEBF9
:104F80000B01C548CDF810B08DF814608DF8156090
:104F90008DF816408DF81740FEF744FC3146072087
:104FA000FFF78CF94FF0020A4FF410730DEB0B0171
:104FB000BA4804938DF816608DF817408DF814A048
:104FC0008DF815A0FEF72EFCB448B54D062104223D
:104FD000FEF7C2FC0422B1480921FEF7BDFC4FF4E4
:104FE000A0530DEB0B01AF4804938DF814A08DF87E
:104FF00015A08DF816408DF81740FEF713FCAA484F
:1050000004210622FEF7A8FCA6480A210622FEF784
:10501000A3FC6B68534500F0F880A348CDF810B0AE
:105020000DEB0B01FEF7FEFB9E480C210622FEF75E
:1050300093FC0024802302269A48049304A98DF847
:1050400014408DF816408DF817408DF81560FEF766
:10505000E9FB062293480721FEF77EFC4FF400731C
:105060009048049304A98DF816408DF817408DF8E8
:1050700014608DF81560FEF7D5FB8A4809210522DA
:10508000FEF76AFC224684481021FEF759FC44F6DC
:10509000FF74013CFDD101227F48844E1021FEF7B0
:1050A0004FFC01214FF40010FFF72CF98048FCF76A
:1050B00089FA4BF6FF7A4FF0330C4FF4806E4FF4C1
:1050C00080427C4B7A48ADF818C00121ADF81AE057
:1050D000ADF81C200493ADF81440ADF816A0FCF711
:1050E0002DFB734804A9FCF7A3FA01210220FFF766
:1050F0003BFAAF2104460420FFF736FAAF230444FD
:10510000812105203372FFF72FFA04210444062081
:10511000FFF72AFA494604442020FFF725FA4946BA
:105120002120FFF721FA6B68022B00F093809E216B
:105130000220FFF719FA002104440A20FFF714FAAD
:105140006B68022B044404D00E200421FFF70CFAF4
:10515000044400212720FFF707FA0F2104441F20F1
:10516000FFF702FA0A2104441A20FFF7FDF90A2189
:1051700004441B20FFF7F8F9012104444FF40040D8
:10518000FFF7C0F84C48FBF797FF4FF000084FF4CB
:10519000007369464848ADF800300297ADF80280C8
:1051A000ADF80480ADF80C80ADF80680FBF7E2FFA7
:1051B0006B68022B39D034B1012009B0BDE8F08F03
:1051C0004FF07D09D3E600BF6F68DFF8D480012F70
:1051D00074D06A68012A58D0FFF736FE364871212C
:1051E0000122FCF7EDF801233321022204A88DF8F7
:1051F00010108DF811308DF813308DF81220FFF754
:1052000059F9002009B0BDE8F08F30463146FFF76C
:1052100055F803232448CDF810B004A98DF81740A1
:105220008DF81430FEF7FEFA03E74FF0005001212D
:10523000FFF768F810200DEB0001CDF81080CDF8D5
:105240001480CDF81C80FCF757FC10200121FCF7DE
:1052500071FCB0E701210820FFF786F901218046A3
:105260000920FFF781F9C02180440E20FFF77CF967
:105270004444002104441420FFF776F9002104443B
:105280001520FFF771F9044451E70B480221FCF7A0
:105290008DF8B6E71F85EB51000C02400004024078
:1052A0006401002000080240000002409C1E002013
:1052B00000540040A0860100003C0040D8F80800DF
:1052C0003946FEF7FBFF2146D8F80C00FDF76CFAD3
:1052D000D8F80C00FDF786F9214B31681960D8F831
:1052E00010209C6040214FF4806C4FF4006E5C6194
:1052F000DC621C635C639C635A60D960D8F80C0064
:10530000C3F818C019464FF400324FF6FE794FF437
:1053100000564FF48074C3F81090C3F81CE01E626E
:105320005C629A62FDF7F6F9D8F80C003A46102153
:10533000FDF7BEFAD8F80C0008213A46FDF7B8FA96
:10534000D8F814308DF80030684602238DF80170CB
:105350008DF803708DF80230FFF7ACF839E700BF25
:10536000E04A002070B5144D84B006460C4610206B
:105370000121FEF7C7FF28460021FBF72BF9B4FBFC
:10538000F6F400234FF6FF72284601A9013C029271
:10539000ADF80C30ADF806308DF80E30ADF80440A5
:1053A000FBF76AF828462021FBF710FE284601216A
:1053B000FBF710F904B070BD00100040704700BF4B
:1053C00030B5334C8FB04FF400432046022501A97D
:1053D00001938DF80850FEF725FA012220460F218F
:1053E000FEF7BAFA01200146FEF78CFF4FF080402D
:1053F00000210024FBF7EEF84FF0FF3306A94FF031
:1054000080400793ADF81840ADF82040ADF81A4041
:105410008DF82240FBF730F82246214623464FF014
:105420008040FBF7B9FD032303A94FF08040ADF89E
:105430001030ADF80C40ADF80E40ADF81240ADF8AC
:105440001440FBF709FB4FF080404FF40061FBF77D
:105450001BFE4FF080401021FBF7B0FD4FF0804065
:105460000421FBF7BFFD60220A4BADF8242009A9F7
:105470004FF080400B93ADF83050ADF82640FBF76D
:1054800089F94FF080400121FBF7A4F80FB030BD3F
:1054900000000240C0CAA1452DE9F04F504E514DC9
:1054A000514F8DB081468846022001210024FEF72D
:1054B00029FF4FF0020A032330464FF4C07202A9BD
:1054C0008DF80D3002928DF80CA08DF80E408DF8FD
:1054D0000F40FEF7A7F9304652460721FEF73CFA87
:1054E000524630460821FEF737FA04200121FEF724
:1054F00009FF28461F2304A90126ADF81040ADF886
:105500001840ADF8124005934FF0600BFAF7B4FF66
:105510001D23284607A9ADF828A0ADF81CB00993B3
:105520000193ADF81E60FBF7EDF8019B099307A905
:105530002846FBF75DF8284632464FF40071FBF72A
:10554000A5FC2246234628465946FBF7CDFC2846B3
:105550002021FBF73BFD28460721FBF743FD3146A1
:105560004FF40010FEF7AAFE21463846FDF71CF95D
:105570003846FDF737F81D4B4FF48042C3F80890CA
:105580004FF4806C4FF4805E19465C61DC621C63F2
:105590005C639C631A6238464FF480724FF0806BF4
:1055A0004FF040094FF4003A114CC3F81080C3F893
:1055B00000B05C60C3F80C90C3F818C0C3F81CE0DE
:1055C0005A62C3F828A0FDF7A5F838463146FDF722
:1055D000EBF828463146FAF7FDFF0DB0BDE8F08F35
:1055E000000402400008004010600240E04A002031
:1055F000400000402DE9F04F664F674D674EDFF8E1
:10560000A891674CDFF8A4B18DB04FF002084FF0BD
:10561000040A384602A9CDF808A08DF80C80FEF7E0
:1056200001F9102302A9284602938DF80C80FEF799
:10563000F9F8384641464246FEF78EF9424628467A
:105640005146FEF789F940460121FEF75BFE4FF413
:10565000001001210025FEF731FE4FF0050C304609
:1056600004A9CDF814C0CDF804C00127ADF810503E
:10567000ADF81850ADF81250FAF7FEFE3046602330
:1056800007A9ADF82880ADF81C30ADF81E70099759
:10569000FBF780F82B462A4630462946FBF77CFC70
:1056A00030464021FBF78AFC30465146FBF79AFC16
:1056B00030462946FBF78AFC30463A464FF4804193
:1056C000FBF7E4FB3A4630464FF48051FBF7DEFB34
:1056D00029464846FDF768F84846FCF783FF314AFB
:1056E000DDF804C0DFF8C880C4F810C04FF02063B4
:1056F00002F1330E4FF4806C402248462146C4F834
:1057000004804FF4807A4FF40038C4F808E0E26077
:10571000C4F818C0236001936561E5612562E56204
:1057200025636563A563C4F824A0C4F82880FCF74A
:10573000F1FF48463946FDF737F81A4BDFF874C0D9
:10574000C4F804C003F134024FF4805E019BA260F0
:1057500021464FF4804258462360C4F81CE0226280
:10576000E56027616561A561C4F824A0C4F82880BC
:10577000E56225636563A563FCF7CCFF58463946AF
:10578000FDF712F830463946FAF724FF0DB0BDE8B0
:10579000F08F00BF000C02400004024000040040F3
:1057A000E04A002064010020406002407060024036
:1057B0000C38004040000040134A144913880988FF
:1057C000994211D31249496801339BB202291380CF
:1057D0000DD0104B10491A6810B410884881941CE1
:1057E0001C605DF8044B70470B4B588970470949A2
:1057F0000A68DB0758BF131D108858BF0B60064BA3
:1058000080F40040588170471C4B0020984A0020CB
:1058100064010020A04A00209C1E0020014B0222AF
:105820001A707047944A0020014B01221A70704789
:10583000944A002070B592FBF1F601FB162494B94E
:10584000059A436002F18042013A324401700546F4
:10585000468092000498214601F0A2FF049BAB60B1
:10586000204640B270BDFE20FBE700BF014B002088
:1058700018707047A81E002000207047014B187850
:10588000704700BFA81E002008B5FFF755F918B1F2
:10589000024B05221A70FF2008BD00BFA81E002081
:1058A00008B5FFF727F918B1024B05221A70FF203F
:1058B00008BD00BFA81E002070B5254C23781BB979
:1058C00005232370FF2070BD052BF9D0022A0E4658
:1058D000014605D0032A19D0012A0BD0FF2070BD44
:1058E000022BFBD10020FFF77DF80028E8D103232D
:1058F000237070BD012B13D0042B11D0032B1ED0AD
:10590000022BEBD1134B0020196070BD022BE5D1A7
:105910001846FFF7B1F80028D2D10423237070BDD8
:1059200032460D4801F0A2FE0C4B0B4800256021C9
:105930001D70FFF71DFA02232370284670BD104624
:10594000FFF750F80028BBD10223237070BD00BFC1
:10595000A81E0020204B0020BC520020944A0020AA
:1059600010B50A4C63681BB101232370002010BDE1
:105970000246C9B20220FFF7E5FA18B105232370E9
:10598000FF2010BD01236360EEE700BFA81E0020CA
:1059900030B4C4786CB900EB820003339B10D0F8AC
:1059A000D05006D02246013251F8040B28609342B1
:1059B000F9D1002030BC70470332921030B4D0F8D7
:1059C000D05009D00846002301332C6840F8044B1E
:1059D0009A42F9D101EB8201084630BC704700BF02
:1059E000F0B5012440220023A14284708280C3705C
:1059F00000F06E81002900F050814278C3604FF4BE
:105A0000006101610678002A00F075814FF460673B
:105A10004FF488644FF4806103F5106E03F5306530
:105A2000012AC0F818E045657ED003F5126E03F533
:105A30003265022AC0F81CE0856575D003F5146E46
:105A400003F53465032AC0F820E0C5656CD003F582
:105A5000166E03F53665042AC0F824E0056663D0A7
:105A600003F5186E03F53865052AC0F828E0456689
:105A70005AD003F51A6E03F53A65062AC0F82CE0F1
:105A8000856651D003F51C6E03F53C65072AC0F806
:105A900030E0C56648D003F51E6E03F53E65082A62
:105AA000C0F834E005673FD003F5206E03F540658C
:105AB000092AC0F838E0456736D003F5226E03F5B1
:105AC00042650A2AC0F83CE085672DD003F5246EB4
:105AD00003F544650B2AC0F840E0C56724D003F500
