:020000040800F2
:10000000DC7E0020D5800008A11A0008A31000089B
:10001000A51A0008A91A0008AD1A0008000000007F
:10002000000000000000000000000000B11A0008FD
:10003000B51A000800000000B91A0008BD1A00082F
:10004000D1800008D1800008D1800008D18000084C
:10005000D1800008D1800008C11A0008D1800008B2
:10006000D1800008D1800008D180000875430008C5
:10007000D1800008D1800008D1800008D18000081C
:10008000D18000086D880008D1800008D180000868
:10009000D1800008D1800008D1800008D1800008FC
:1000A000D1800008D1800008D1800008D1800008EC
:1000B000D1800008D1800008D1800008D1800008DC
:1000C000D1800008D1800008D1800008D1800008CC
:1000D000D1800008D1800008D1800008D1800008BC
:1000E000D1800008D18000081D1B0008D1800008C5
:1000F000D1800008D1800008D1800008A9610008E3
:10010000D1800008D1800008D18000080162000879
:10011000D1800008D1800008D1800008D18000087B
:10012000D1800008D1800008D1800008D18000086B
:10013000D1800008D1800008D1800008D18000085B
:10014000D1800008D1800008D18000084D1B000834
:10015000D1800008D1800008D1800008D18000083B
:10016000D1800008D1800008D1800008D18000082B
:10017000D1800008D1800008D1800008D18000081B
:10018000D1800008D180000830B50F4C054683B0FF
:1001900054F82000012104EB450405F0BBFB0B4A99
:1001A000238A52F825000093022201230024694685
:1001B0008DF804308DF807308DF806408DF8052055
:1001C00004F0F8FC03B030BDE49300080000002008
:1001D000044B054A03EB400352F820201B8A13838B
:1001E000704700BFE493000800000020044B054A5C
:1001F00003EB400352F820201B8A5383704700BF53
:10020000E493000800000020054B064A52F8202025
:1002100003EB40005369018A4B405361704700BFB4
:10022000E49300080000002030B50446012087B0A8
:100230000D46014605F06EFB4FF48040012105F0AC
:1002400099FB184806A900EB84000123002441F81B
:10025000103D00698DF80C408DF80F4004F0AAFCA9
:10026000012D01D007B030BD2146204603F040FEED
:10027000082304A88DF8153004958DF814408DF8E6
:10028000165004F099FB0F23062201A88DF80750A1
:100290008DF804208DF805308DF8063005F036FC19
:1002A00007B030BD0000002008B5044B03EB800010
:1002B0000121006904F0F4FC08BD00BF000000202B
:1002C00008B5604B984235D0B0F1804F3CD05E4BC2
:1002D000984243D05D4B98424AD05D4B984251D0F2
:1002E0005C4B984258D05C4B98425FD05B4B984235
:1002F00066D05B4B98426DD05A4B984276D05A4BA1
:1003000098427FD0594B984200F08880584B9842D1
:1003100000F08E80574B984200D008BD4FF480709B
:10032000012105F057FB4FF480700021BDE8084023
:1003300005F050BB0120014605F058FB01200021CB
:10034000BDE8084005F052BB0120014605F042FB24
:1003500001200021BDE8084005F03CBB022001213E
:1003600005F038FB02200021BDE8084005F032BB53
:100370000420012105F02EFB04200021BDE80840E7
:1003800005F028BB0820012105F024FB08200021EE
:10039000BDE8084005F01EBB1020012105F01AFB46
:1003A00010200021BDE8084005F014BB20200121E9
:1003B00005F010FB20200021BDE8084005F00ABB35
:1003C0000220012105F012FB02200021BDE80840B7
:1003D00005F00CBB4FF48030012105F007FB4FF412
:1003E00080300021BDE8084005F000BB4FF400302C
:1003F000012105F0FBFA4FF400300021BDE8084070
:1004000005F0F4BA4FF48020012105F0EFFA4FF423
:1004100080200021BDE8084005F0E8BA4020012115
:1004200005F0D8FA40200021BDE8084005F0D2BA16
:100430008020012105F0CEFA80200021BDE808408F
:1004400005F0C8BA00000140000400400008004068
:10045000000C004000100040001400400004014067
:1004600000400140004401400048014000180040A5
:10047000001C004000200040224A038890429BB2AA
:1004800012D002F5806290420ED0B0F1804F0BD0B6
:10049000A2F58032904207D002F58062904203D0EC
:1004A00002F58062904203D14A8823F0700313431F
:1004B000154A90421ED002F5806290421AD00A89F5
:1004C00070B423F440730F4C4E680D889BB21343F5
:1004D000A0420380C662058506D00C4B984203D02B
:1004E0000123838270BC70478B7A03860123838249
:1004F00070BC704703800B884A68C2620385012381
:100500008382704700000140001000400004014059
:1005100000234FF0FF3242600380038143808372E7
:10052000704700BF01858282704700BF038823F0B7
:1005300070031B041B0C1943018070474162704714
:10054000C1627047406A7047008D80B2704700BF3B
:10055000038829B923F002031B041B0C0380704796
:100560009BB243F002030380704700BF038829B9A0
:1005700023F004031B041B0C038070479BB243F061
:1005800004030380704700BF038829B923F0800368
:100590001B041B0C038070479BB243F08003038055
:1005A000704700BF038823F008031B041B0C038063
:1005B00003889BB219430180704700BF038823F46E
:1005C00040731B041B0C038003889BB219430180FA
:1005D000704700BF038829B923F001031B041B0CDB
:1005E000038070479BB243F001030380704700BF54
:1005F000F0B5048CB1F802C08B890F881B4E24F033
:1006000001042404240C0484058CB0F804E0048B59
:1006100025F0020524F073022D042D0C4CEA03038F
:1006200012042B43120CB0429BB21FFA8EF442EA22
:10063000070208D00E4DA84205D089688480028345
:1006400041630384F0BDCE89B1F812E00D8A8F8832
:1006500023F0080324F4407433434EEA050523F0E5
:1006600004032C433B43A4B2E7E700BF0000014072
:1006700000040140F0B5058C0C88B1F80CC0B1F84D
:1006800002E01E4E25F010052D042D0C0584028C71
:100690008788058B22F020031B0425F4E6421B0CFF
:1006A000120443EA0C13120C43EA0E1342EA04222A
:1006B000B0429BB2BDB294B208D0114A904205D06C
:1006C0008A688580048382630384F0BD23F08002FE
:1006D000CB89B1F810E08F884E8A92B242EA0312B9
:1006E00025F440654FF6BF73134045EA8E0543EA93
:1006F000071345EA86059BB2ADB2E1E70000014071
:1007000000040140F0B5058CB1F80CC0B1F802E06E
:100710000C881E4F25F480752D042D0C0584028C49
:100720008688858B22F400731B0425F073021B0C52
:1007300043EA0C23120443EA0E23120CB8429BB284
:10074000B5B244EA020408D0114A904205D08A6842
:1007500085808483C2630384F0BD23F40062CB8967
:10076000B1F810E08F884E8A92B242EA032225F453
:1007700040554FF6FF33134045EA0E1543EA072371
:1007800045EA06159BB2ADB2E1E700BF00000140AB
:1007900000040140028CB1F802C022F4805212041D
:1007A000120C2DE9F041B1F80C80B1F800E00284A0
:1007B000058C8788828B124E25F4005422F4E64380
:1007C0002404240C1B0444EA08341B0C44EA0C34B3
:1007D00043EA0E23B042A4B2BAB29BB209D0094D8B
:1007E000A84206D089688280838301640484BDE8BE
:1007F000F0810D8A22F4804242EA851292B2F1E73A
:1008000000000140000401400023038043808380F6
:1008100083608381C38103824382704710B4048C58
:100820000123A4B28B4024EA030321F008040384CB
:1008300018307CB10439C1F34E0148F6FF730C58EF
:1008400023400B5012020B585DF8044B92B21A432E
:100850000A50704749084FF68F734458234043505D
:1008600043585DF8044B1A43425070474163704748
:1008700081637047C163704701647047038B23F045
:1008800070031B041B0C194301837047038B23F473
:10089000E0431B041B0C43EA012189B2018370472A
:1008A000838B23F070031B041B0C19438183704757
:1008B000838B23F4E0431B041B0C43EA012189B220
:1008C00081837047038B23F008031B041B0C19431F
:1008D00001837047038B23F400631B041B0C43EA62
:1008E000012189B201837047838B23F008031B0425
:1008F0001B0C194381837047838B23F400631B0413
:100900001B0C43EA012189B281837047038B23F0DA
:1009100004031B041B0C194301837047038B23F44E
:1009200080631B041B0C43EA012189B201837047D9
:10093000838B23F004031B041B0C19438183704732
:10094000838B23F480631B041B0C43EA012189B2CF
:1009500081837047038B23F080031B041B0C194316
:1009600001837047038BC3F30E0343EA012189B26D
:1009700001837047838B23F080031B041B0C1943F6
:1009800081837047838BC3F30E0343EA012189B24D
:1009900081837047038C23F002031B041B0C194353
:1009A00001847047038C23F008031B041B0C1943BC
:1009B00001847047038C23F020031B041B0C43EAC3
:1009C000011189B201847047038C23F080031B045A
:1009D0001B0C43EA011189B201847047038C23F494
:1009E00000731B041B0C43EA012189B20184704788
:1009F000038C23F400631B041B0C43EA012189B21E
:100A000001847047038C23F400531B041B0C43EA3E
:100A1000013189B20184704710B4048C0123A4B25F
:100A20008B4024EA03030384038C5DF8044B8A4063
:100A300013439BB20384704710B4048C0423A4B204
:100A40008B4024EA03030384038C5DF8044B8A4043
:100A500013439BB2038470470B88F0B5002B32D050
:100A6000042B57D0082B00F08380028C4F88B1F8FC
:100A700004E00E89CD8822F480521204120C028404
:100A8000848B028C24F4407122F4005309055B042A
:100A9000090D5B0C41EA0E2143EA073341EA0631B6
:100AA0009BB243F4805389B281830384828B22F406
:100AB00040621204120C8283838B9BB243EA0523AB
:100AC0009BB28383F0BD028C4E888D880B89CC88C5
:100AD00022F001021204120C0284028B018C92B2E9
:100AE00022F0F30221F00A0142EA0313090446F05E
:100AF00001029BB2090C2B43114303830184038B36
:100B000023F00C031B041B0C0383038B9BB21C43BD
:100B10000483F0BD058C4F888E88B1F808E0CC883E
:100B200025F010010904090C0184028B018C22F4C8
:100B300040731B051B0D8AB243EA0E3322F0A0025C
:100B40009BB242EA071243EA062392B29BB242F0FA
:100B5000100203830284038B23F440631B041B0CE9
:100B60000383038B9BB243EA04239BB20383F0BD50
:100B7000068C4F888D880A89CC8826F480710904F8
:100B8000090C0184818B038C89B29BB221F0F301A3
:100B900023F4206341EA021243EA072392B29BB294
:100BA00043F480732A4382830384838B23F00C03F2
:100BB0001B041B0C8383838B9BB21C438483F0BD7B
:100BC00000230122828003804380C3800381704719
:100BD000B1F802C00B88F0B5B1F804E0BCF1000F29
:100BE0000CBF02240024BEF1010F0BBF4FF40076AE
:100BF0004FF4807602250125002B4BD0038C0E8903
:100C0000C98823F010031B041B0C0384028B078C80
:100C100022F440731B051B0DBAB243EA063322F0DF
:100C2000A0029BB242EA0C1243EA0E2392B29BB29C
:100C300042F0100203830284038B23F440631B04FD
:100C40001B0C0383038B9BB243EA01239BB20383F8
:100C5000038C23F001031B041B0C0384038B028C05
:100C60009BB223F0F30392B243EA061622F00A0382
:100C700043F00103B6B21C432E4306830484038B66
:100C800023F00C031B041B0C0383038B9BB219433F
:100C90000183F0BD038C0F89CD8823F001031B0471
:100CA0001B0C0384018B038C89B221F0F30123F028
:100CB0000A0341EA07111B044CF0010289B21B0C24
:100CC000134341EA0E0EA0F818E00384038B23F0CF
:100CD0000C031B041B0C0383038B9BB22B4303836A
:100CE000038C23F010031B041B0C0384028B018C68
:100CF00022F440731B051B0D8AB243EA073322F02E
:100D0000A0029BB242F01002334342EA0414038370
:100D10000484038B23F440631B041B0C0383038BA9
:100D20009BB243EA0525ADB20583F0BD406B704729
:100D3000806B7047C06B7047006C7047038B23F06B
:100D40000C031B041B0C0383038B9BB2194301830D
:100D5000704700BF038B23F440631B041B0C038309
:100D6000038B9BB243EA012189B20183704700BF24
:100D7000838B23F00C031B041B0C8383838B9BB29C
:100D800019438183704700BF838B23F440631B04A6
:100D90001B0C8383838B9BB243EA012189B281833D
:100DA000704700BFF0B50B88B1F802E08F88CE889D
:100DB0000D894C898A894EEA03033B4333432B4315
:100DC000234313439BB2A0F84430F0BD00230380BB
:100DD00043808380C380038143818381704700BF48
:100DE000B0F8443021B9C3F30E03A0F84430704783
:100DF0006FEA43436FEA53439BB2A0F84430704715
:100E0000838829B923F004031B041B0C83807047DB
:100E10009BB243F004038380704700BF838829B9E5
:100E200023F001031B041B0C838070479BB243F02B
:100E300001038380704700BF83899BB21AB923EAFC
:100E40000101818170471943818170478182704718
:100E5000038A194214BF012000207047C94389B298
:100E600001827047038A828911EA030092B203D09B
:100E7000114214BF01200020704700BFC94389B24E
:100E8000018270470A43A0F84820704783899BB2CB
:100E90001AB923EA010181817047194381817047A2
:100EA000838829B923F008031B041B0C8380704737
:100EB0009BB243F008038380704700BF038923F08F
:100EC00007031B041B0C0381704700BF038923F039
:100ED00070031B041B0C1943018103899BB243F06F
:100EE00007030381704700BF602930B4048C24D00D
:100EF00024F001042404240C0484048B058CA4B283
:100F000024F0F304ADB244F0010425F00A0544EAEC
:100F1000031345F001049BB2224303830284038937
:100F200023F070031B041B0C0B43038103899BB24A
:100F300043F00703038130BC704724F010042404FD
:100F4000240C0484048B058C24F440742405ADB275
:100F5000240D25F0A00544F4807445F0100544EA02
:100F6000033345EA02129BB292B203830284D6E7AE
:100F700010B4048942EA0323E4B223439BB2194329
:100F8000018103895DF8044B23F077031B041B0CDC
:100F900043F077030381704710B4048942EA0323C6
:100FA000E4B223439BB21943018103895DF8044BEA
:100FB0009BB243F480430381704700BF038923F051
:100FC00070031B041B0C194301817047838823F0B5
:100FD00070031B041B0C838083889BB219438180A0
:100FE000704700BF038923F007031B041B0C038118
:100FF00003899BB219430181704700BF038923F025
:1010000080031B041B0C038103899BB219430181DC
:10101000704700BF10B40489E4B221430A4342EA96
:10102000032399B201815DF8044B704770B40689BF
:10103000048B058C24F4407424F00304ADB225F035
:10104000220526F0070624042A433604240C360C15
:1010500044F4807442EA0313314344F001049AB229
:1010600001810483028470BC704700BF838829B962
:1010700023F080031B041B0C838070479BB243F05A
:1010800080038380704700BFA0F85010704700BFF6
:10109000ABBE01E000207047002A00D010600120A4
:1010A000704706980188034A914202D104300690A5
:1010B0007047FEE7ABBE000008B5174B984212D050
:1010C000164B98421BD0164B984200D008BD4FF4E7
:1010D0000040012104F07EFC4FF400400021BDE8F7
:1010E000084004F077BC4FF48050012104F07EFCEE
:1010F0004FF480500021BDE8084004F077BC4FF465
:101100008040012104F066FC4FF480400021BDE8DE
:10111000084004F05FBC00BF0030014000380040D0
:10112000003C00402DE9F0410B88B1F80280B1F895
:1011300004C0CA88B1F808E04F898E89CC89058837
:10114000098A48EA030343EA0C03134343EA0E0304
:101150003B43334343EA040205F4415313439BB238
:101160000380838B23F400631B041B0C83830182A5
:10117000BDE8F081F0B5848B8B6824F47B6424F0A7
:101180000F0424040222240C84830284858B93425E
:10119000ADB23ED0204E8C88B768204ADFF888E098
:1011A000002C08BF72463F0225D5CE88B6F5007FD9
:1011B00029D0B2FBF3F2531D9AB2194BA3FB0223C1
:1011C000DB085A08971E03F00103FD2F94BF42EA83
:1011D000032302230F88B1F802E08A893D4345F4D6
:1011E000006545EA0E0515431E43ABB2B6B21C437B
:1011F00006848483F0BDB76847F40007B760CE88E3
:10120000B6F5007FD5D1074FB7FBF3F305339AB29C
:10121000D3E78C88CE88DDE700380240004C1D0003
:10122000CDCCCCCC0053070000983A000023072215
:101230000282038043808380C38003814381838152
:10124000C381704700230222826003604360838170
:10125000704700BF038829B923F040031B041B0C0F
:10126000038070479BB243F040030380704700BF88
:10127000838B29B923F480631B041B0C8383704781
:101280009BB243F480638383704700BF038823F4D9
:1012900000631B041B0C038003889BB2194301806D
:1012A000704700BFB1F5804F038805D023F4804319
:1012B0001B041B0C038070479BB243F480430380E4
:1012C000704700BF4FF6FF639942038804D09BB27A
:1012D00043F480730380704723F480731B041B0C5A
:1012E00003807047838829B923F004031B041B0C77
:1012F000838070479BB243F004038380704700BF34
:10130000838829B923F010031B041B0C83807047CA
:101310009BB243F010038380704700BF838B23F49C
:101320007B6323F00F031B0402221B0C83830284C4
:10133000838B8A8970B44D880C888E889BB22B432E
:1013400024F4007143F40063334389B2134300294A
:101350009BB20CBF4FF4807200221343838370BC96
:10136000704700BF808980B2704700BF818170479D
:10137000038829B923F400531B041B0C0380704716
:101380009BB243F400530380704700BF03889BB2B5
:1013900043F4805303807047012914BF008B808A77
:1013A00080B27047008A80B2704700BF83889BB2CA
:1013B0001AB923EA0101818070471943818070477F
:1013C000090901238B409BB22AB9828892B222EA92
:1013D000030383807047828892B2134383807047EF
:1013E0000389194214BF012000207047C94389B204
:1013F0000181704710B484880389012201F00F0035
:101400009BB202FA00F01840A4B205D009098A4044
:10141000144214BF012000205DF8044B704700BF48
:1014200001F00F0101238B40DB439BB20381704726
:10143000404B41481A68002142F001021A6099604D
:101440001A6822F0847222F480321A6058601A6896
:1014500082B022F480221A60D960009101911A684A
:1014600042F480321A601A4603E0009BB3F5A06F85
:1014700009D0136803F400330193009B01330093F8
:10148000019B002BF1D02B4B1B6813F4003318BFCA
:1014900001230193019B012B1AD0264A2749936807
:1014A00023F400039360C2F88410136843F0806350
:1014B000136013681B01FCD5214BD3F888204FF033
:1014C000006142F47002C3F88820996002B070474E
:1014D000184B1C491A6C1C4842F080521A640A6866
:1014E00042F480420A609A689A609A6842F4004224
:1014F0009A609A6842F480529A6058601A6842F082
:1015000080721A601A4611680A4B8901FBD50F4A8E
:1015100040F2056111609A6822F003029A609A68AD
:1015200042F002029A601A46936803F00C03082BFB
:10153000FAD1B2E700380240103000248040003079
:1015400000ED00E000700040086C4009003C0240E3
:101550001848836803F00C03042B28D0082B09D00B
:10156000154B144A15499268C2F303128A5CD340A2
:101570000B6170474368416813F4800F436818BFDC
:101580000F4801F03F020CBF0B49B0FBF2F1C3F36F
:10159000881308BFB1FBF2F101FB03F2054B5B6856
:1015A000C3F3014301335B00B2FBF3F3D9E7044B10
:1015B000D7E700BF003802400024F40014000020E8
:1015C00000127A0030B40C4C2278531CDBB2224457
:1015D000E11800250E2B107123700D7102D80A2816
:1015E00000D038B9002323701A460420034930BCC8
:1015F000FFF74EBD30BC7047E0270020E4270020F5
:10160000014600220420FFF743BD00BF00B583B0B0
:1016100001E0019B53B940F20110002101AAFFF73C
:1016200037FD0028F5D103B05DF804FB01AA0021C5
:101630000720FFF72DFD9DF8040003B05DF804FBC3
:1016400008B5174B984212D0164B98421BD0164B38
:10165000984200D008BD4FF40000012104F0BAF90F
:101660004FF400000021BDE8084004F0B3B94FF486
:101670000010012104F0AEF94FF400100021BDE884
:10168000084004F0A7B94FF48000012104F0A2F94A
:101690004FF480000021BDE8084004F09BB900BF72
:1016A0000054004000580040005C0040F0B5054682
:1016B00085B068460E46AC8804F0B6F8029B324806
:1016C0003268DFF8CCE0A0FB031024F03F042404D0
:1016D000800C240C87B23C43AC80298821F00101A6
:1016E0000904090C7245298024D85200B3FBF2F397
:1016F0009BB2032B07F1010798BF04232F84AB8310
:1017000028887789B2883489B18980B240F0010095
:1017100028802B8823F4816323F002031B043A43BF
:101720001B0C134344EA01029BB292B22B802A8124
:1017300005B0F0BDF4884BF6FF718C421DD002EB72
:10174000820202EB8202B3FBF2F39BB243F48043CA
:10175000C3F30B020AB943F001034FF496710B4C2B
:1017600001FB00F284FB0201D217C2EBA11201328D
:1017700092B243F400432A84C1E702EB4202B3FB76
:10178000F2F39BB2E4E700BF83DE1B43D34D62104C
:10179000A0860100002310B44BF6FF7141F288349B
:1017A0004FF480420460C180828183800381438141
:1017B0005DF8044B704700BF038829B923F001038B
:1017C0001B041B0C038070479BB243F00103038092
:1017D000704700BF038829B923F480731B041B0CD6
:1017E000038070479BB243F480730380704700BF4F
:1017F000038829B923F400731B041B0C0380704772
:101800009BB243F400730380704700BF22B901F01C
:10181000FE0189B20182704741F0010189B2018263
:10182000704700BF038829B923F480631B041B0C95
:10183000038070479BB243F480630380704700BF0E
:1018400083899BB201F0FE0123F0FE0319438181DD
:10185000704700BF838929B923F001031B041B0CC7
:10186000838170479BB243F001038381704700BFBF
:10187000038829B923F040031B041B0C0380704725
:101880009BB243F040030380704700BF038819B93F
:10189000C3F30E03038070476FEA43436FEA534379
:1018A0009BB20380704700BF038829B123F08003F7
:1018B0001B041B0C038070479BB243F08003038022
:1018C000704700BFB1F5804F838B05D023F4804370
:1018D0001B041B0C838370479BB243F480438383B8
:1018E000704700BFB1F5006F038805D023F4006393
:1018F0001B041B0C038070479BB243F400630380FE
:10190000704700BFB1F5005F038805D023F4005392
:101910001B041B0C038070479BB243F400530380ED
:10192000704700BF038829B923F010031B041B0C68
:10193000038070479BB243F010030380704700BFE1
:1019400001827047008AC0B2704700BF038829B97E
:1019500023F480531B041B0C038070479BB243F499
:1019600080530380704700BFB1F5006F038805D036
:1019700023F400631B041B0C038070479BB243F4E9
:1019800000630380704700BF038829B923F0200358
:101990001B041B0C038070479BB243F020030380A1
:1019A000704700BF008BC0F307207047838829B9B8
:1019B00023F400631B041B0C838070479BB243F429
:1019C00000638380704700BF838829B923F4805364
:1019D0001B041B0C838070479BB243F480538380AD
:1019E000704700BF82B0002301930190019B19440E
:1019F0000191019B188880B202B0704783889BB226
:101A00001AB923EA01018180704719438180704728
:101A1000838A008B9BB243EA004321F07F40184049
:101A2000081AB0FA80F04009704700BF838A028B21
:101A300098B240EA024020F07F40704782B0002315
:101A40000A0F0093019301900092009B21F07F41C7
:101A500053B1019B14330193019B1B68194214BFBE
:101A60000120002002B07047019B1833090C01933C
:101A7000F2E700BFC94389B2818270478388808AB8
:101A800080B208409BB206D001F0E06113EA114336
:101A900014BF012000207047C94389B2818270477A
:101AA000704700BFFEE700BFFEE700BFFEE700BFD4
:101AB000704700BF704700BF704700BF06F090BE80
:101AC00010B5154C23780133DBB223702378032B38
:101AD00084BF002323702378DA074FF002000DD56E
:101AE000FEF776FB23789B074FF001000DD4FEF73D
:101AF0007DFB0120BDE8104002F0CABFFEF776FB77
:101B000023789B074FF00100F1D5FEF761FB012020
:101B1000BDE8104002F0BCBFC328002010B5094C3E
:101B2000A37A4BB1084A136923F006031361FFF748
:101B30007FFC204606F066F84FF48020BDE8104098
:101B400002F0A6BF5067002000ED00E0014802F05F
:101B50002FBC00BF5067002008B54FF00050012196
:101B600003F038FF4FF000500021BDE8084003F0BB
:101B700031BF00BFF0B491E8C000094D8C68CB685C
:101B80002A6847EA06010C4340F6FE712343814070
:101B9000834022EA010213432B60F0BC704700BF70
:101BA000007400400023036043608360C36070479B
:101BB00039B9074901230A68834022EA03030B600D
:101BC0007047034901230A68834013430B60704741
:101BD0000074004041B9084900094A680123834064
:101BE00022EA03034B607047034900094A68012356
:101BF000834013434B60704700740040054A5368AC
:101C000018B923F003035360704743F00303536094
:101C1000704700BF0074004032B9064A1368814023
:101C200023EA010111607047024A13688140194399
:101C3000116070470074004082B00022054B019291
:101C40000193019B083318440190019B196002B075
:101C5000704700BF0074004082B00022054B019223
:101C60000193019B143318440190019B196002B049
:101C7000704700BF007400400828044B0CBF42EAC4
:101C8000012242EA0142C250704700BF2074004066
:101C900082B00022064B01920193019B2C3303EB8F
:101CA00090000190019B186880B202B0704700BF9D
:101CB0000074004041B908494FF480530A688340DA
:101CC00022EA03030B60704703494FF480530A680C
:101CD000834013430B6070470074004032B9064ADA
:101CE0001368814023EA010111607047024A1368BA
:101CF000814019431160704700740040034B5B6BD7
:101D00008140194214BF0120002070470074004038
:101D1000014B81405963704700740040054B1A68BD
:101D20005B6B814011EA030003D0114214BF012014
:101D30000020704700740040014B81405963704798
:101D40000074004070B5049C826004F18044013C42
:101D500005460C4401801E46A2001846002107F0EB
:101D6000F3FA6E6070BD00BF38B5144C2378012BB8
:101D700017D0812B0BD0124D2868FF2805D0EB68B7
:101D8000A26810499847FF232B60002038BD0E4AF7
:101D900000238020BB21107051709370237063600A
:101DA000E9E76378022BE6D1074A084B10781B69F4
:101DB0009847002323706360DDE700BFF42700200D
:101DC000280000202C380020D03000207C06002085
:101DD00000207047C1230B8000487047400000205E
:101DE0000020704700207047A1B170B40A4C0B4D21
:101DF000E3680144002610F8012BEA540133B3F5DF
:101E0000006F12BFE360E66000238842F3D1002038
:101E100070BC704700207047F42700204038002035
:101E2000E1B1F0B40E4A0F4C166823680E4D014420
:101E3000002701E088420ED010F8012BEA5401334C
:101E4000B3F5006F0ABF0023236027609E42F1D1E3
:101E50000220F0BC70470020F0BC704700207047A3
:101E6000E837002044400020D02800202DE9F0472A
:101E7000744C2369012B054608D0236A71495A1C0A
:101E8000052B22622DD00020BDE8F087A369002237
:101E9000012B22755AD04FF080436B495A6BD1F811
:101EA000E4301A44C1F8E420A38B664801339BB2A6
:101EB000A383A38B9BB2202B3CD0A37F614E002B2E
:101EC000DBD12B699B68F27FC3F300239342D4D10B
:101ED0000323284681215D4A06F0D4FB0123B37712
:101EE000CBE791F82430012B1FD0886ACB68B0F57E
:101EF000006F00F09980984200F09B8000F28B8088
:101F000082B21B1A402B40F28380A3F1400700F1FC
:101F1000400640234E49E76228460A4401258221B3
:101F2000A66284F8245006F0ADFB00232362002053
:101F3000BDE8F087D1F8E83003EB420252080023F5
:101F4000C1F8E8208383C1F8E430B6E73E49414E4A
:101F5000D1F8E070D1F8DC20DFF808A13E48DFF8C6
:101F60000891DFF8F8C0DFF80481DFF8F4E0D21B55
:101F70003260DAF8047003F1AA33A3FB07A29209D6
:101F800002EB4202A7EB42120260D9F80470A3FBF5
:101F90000792120A02EB4202A7EBC212CCF8002011
:101FA000D8F80420A3FB02731B0A03EB4303A2EB44
:101FB000C313CEF80030036813B9036860330360BD
:101FC000DCF80020254B1AB91A6802F5C0721A60B5
:101FD000DEF80020224B12B333681E4A002B2CDBA4
:101FE00002683068D1F8E430174E52004FF0804755
:101FF000C2F54072101A7A6BC0F3C70020751A44FC
:1020000000283FF44FAF42FA80F2C6F8E4204BE7D5
:10201000C61800277EE7C0F5006382B272E71A682F
:1020200002F5C0721A60D7E700228A620BB110462F
:1020300067E7002384F8243077E7136803F5C0636B
:102040001360CDE7F42700202800002010010020B5
:102050004038002040400020CC28002038380020A4
:10206000C8280020B8600240A06002401060024012
:1020700001292DE9F0470C46054614D0022902D06B
:102080000020BDE8F08703F0F3FA3B4B01465B69A3
:102090003A48984728462146384A402306F0CCFA69
:1020A0000020BDE8F08703F0E3FADFF8CC80DFF82A
:1020B000E4900646D8F8DC00BF2EC9EB0007C7F550
:1020C000C067B24651D9C02E04D00220FEF79CF85A
:1020D000D8F8DC00BE4231D9002F3BD12849524606
:1020E000394407F097F8D8F8DC005044C8F8DC0011
:1020F000244B984228BFC8F8DC9095F89D33B3FA7A
:1021000083F35B0985F89D331D4AD02328460121BE
:1021100006F092FA1C4B9A69002AB1D1D8F8DC106B
:102120001A4A15489142ABD3194AD0F8E000956895
:1021300001242246C0219C61A847A1E7002ED7D0E8
:102140000F49324607F066F8D8F8DC003044C8F88A
:10215000DC00CDE70A493A4607F05CF8B6EB070A1F
:10216000C8F8DC90C9D00B48B8E72046FEF74CF819
:10217000D8F8DC00AEE700BF28000020EC370020D4
:102180001837002010370020F427002010340020DA
:102190007C06002010310020F8B50C7814F06004A3
:1021A0000D46064616D0202C11D14F78212F5CD039
:1021B00024D8012F6CD0202F64D1434B434DCA88C3
:1021C00043491C60AA60002403F01AFA00E00024CE
:1021D0002046F8BD4B780A2B3DD00B2B18D0062B90
:1021E000F6D14B881B0A212B03D1CA88092A28BFA4
:1021F00009223046374903F0EBF9E9E7222FE6D010
:10220000812F3FD1CA88344903F0E2F90024DFE787
:102210008B780A79032B3FD8012A3FD12B4D2B61B4
:102220002B69012B08BFAC832F69284B67B939464E
:102230004FF4C07229489F6107F086F83946284854
:102240004FF4C07207F080F8002330468121AB774D
:1022500006F078FABCE70A79012A31D0032AB7D10F
:102260002049012203F0B4F9B2E7174B1849DB68A3
:10227000EA88384698473046EA88154903F0A8F9B5
:102280000024A5E73046294600F03AFC02249FE7E7
:10229000CA8832B914469BE7012A0ED00B4A136351
:1022A00096E70D4903F0ACF9AA88084BE9881F703E
:1022B000120A5A70596000248AE700F021FC87E76F
:1022C000094903F085F983E728000020F42700205E
:1022D0002C38002052000020D0300020B4650020AF
:1022E0005C6D0020242800200428002010B5012166
:1022F000044606F085F92046812106F081F9204642
:10230000832106F07DF92046822106F079F92046E6
:10231000022106F075F9064B06495A680023184653
:102320008B779047002814BF0220002010BD00BF0B
:102330007C060020F4270020012110B50B4604463E
:10234000D02206F02DF9032201238121204606F038
:1023500027F98121204606F0F5F983210A2203237B
:10236000204606F01DF9822140220223204606F075
:1023700017F902210B464022204606F011F90221EE
:10238000094A4023204606F057F9084B4BF68030A7
:102390001B6850210022984708B1022010BD044B51
:1023A00001229A7710BD00BFEC3700207C06002088
:1023B000F427002020281AD0212816D1144BD3F856
:1023C000EC200A70D3F8EC20120A4A70B3F8EE2021
:1023D0008A7093F8EF20CA7093F8F0200A7193F88E
:1023E000F1204A7193F8F2308B710020704730B4BD
:1023F000074B0C7948798A790D6883F8F10083F8E6
:10240000F04083F8F220C3F8EC50002030BC704755
:102410002800002008B50369064A9B68C3F300231F
:10242000D377937F23B100238121937706F08AF934
:10243000002008BDF4270020012938B51BD002294F
:1024400001D0002038BD174991F82430012BF8D174
:10245000CB6AD3B1402B04468A6A19D8D51800201C
:102460008B634A638D62C8620F4920460A44822109
:1024700006F008F9E5E70B4C0C4A002581210323FF
:10248000A58306F0FFF8002038BD81F82430D8E796
:10249000A3F1400502F1400040234A63CD62886207
:1024A0008B63E1E7F4270020403800201001002072
:1024B000704700BF114B9A69012A0AD0104B114A8C
:1024C0001148C3F8E000C3F8DC00C0219368022281
:1024D000184710B50B4B0A4C9B68D4F8E000C0219C
:1024E0009847D4F8E030094AC03393422ABFA2F596
:1024F000C062C4F8E030C4F8E02010BDF42700202A
:10250000280000207C060020103100201037002019
:10251000074AD36810B4591C064CB1F5006FE0545B
:102520000ABF0023D160D3605DF8044B704700BF41
:10253000F4270020403800200378CBB170B4014666
:102540000346002213F8014F0132002CFAD1094D45
:10255000094EEB68024411F8010BF0540133B3F556
:10256000006F12BFEB60EC6000239142F3D170BCAE
:10257000704700BFF42700204038002091B170B4AC
:10258000094C0A4DE3680144002610F8012BEA5477
:102590000133B3F5006F12BFE360E66000238842A9
:1025A000F3D170BC704700BFF427002040380020F2
:1025B000094A0A491368096899420BD00849CB5C5B
:1025C000037013680133B3F5006F08BF0023136075
:1025D0000120704700207047E83700204440002069
:1025E000D0280020F0B41E4F1E4D3C682B689C4242
:1025F0000ED01D49CA5C1AB10A2A01D00D2A0AD18F
:102600000133B3F5006F08BF00239C42F2D12C6068
:102610000020F0BC70472B60002303E00A2A10D092
:102620000D2A0ED0C2542C683E6801331A19B2F537
:10263000006F04BF002263429642E9D08A5C002A00
:10264000ECD10022C2542A6806491A44B2F5006F40
:1026500001D3A2F5006218460A60F0BC704700BFC3
:1026600044400020E8370020D028002070B54B7887
:1026700082B00C460546092B06D8DFE803F040522D
:102680000565057C9805AF2094F90030002B11DB1F
:10269000E3887BB12846002106F018F8284605F0AB
:1026A0006DFA002002B070BD91F90030002B01DB03
:1026B000002AEFD12846802106F008F8EEE7897855
:1026C000AC4E01293170DFD890F81231022B00F0A6
:1026D0009E80032BD8D1002900F0418190F8101181
:1026E000012900F0E08005F0EBFC317885F810114D
:1026F000284605F0D9FC284602F09AFFD1E790F869
:102700001231023B012BBFD8D0F814319949002B6C
:1027100014BF0323012341F8083F012202F058FFB0
:10272000BFE790F81231023B012BADD84B88012B4B
:10273000B7D1D0F8E03500229B68C0F81421984743
:10274000284602F075FFACE74B88012B00F0FD80B6
:10275000022BA6D18B8813F0FF0FA2D101691B0AAF
:102760004A68013B1046042B00F29C80DFE803F02E
:10277000A9AEA49F96008B88002B85D1CB88002B17
:102780003BD190F812318C78032B04F07F0491D068
:1027900080F81341214605F0E3FF284602F048FF88
:1027A000002C00F0CE80022385F8123179E74A88A8
:1027B000130A013B062B3FF667AF01A151F823F046
:1027C0007B2800083D2800082B28000889260008DF
:1027D000892600088926000889260008CA88012A57
:1027E0007FF462AF90F81231022B0CD0032B04D18E
:1027F00000F5887102F0ECFE53E794F90030002BED
:10280000BFF648AF56E75C4902F0E2FE49E700290F
:1028100049D00121032380F8101180F8123105F00E
:1028200043FC284602F004FF3BE7D2B2052A3FF6FC
:102830002BAFDFE802F07D746B625950D0F8E035C1
:1028400080789B6A0DF10601984702234370014688
:10285000C5F8EC05BDF80620002A3FF422AFE38856
:10286000002B3FF41EAF934228BF13461A4628465A
:10287000ADF8063002F0ACFE13E7D0F8E83580780A
:102880001B680DF106019847E388402B014603D0F1
:1028900095F81221012ADDD10822E1E7052363F32F
:1028A000061002464A60284602F0C2FEF9E60423FA
:1028B00063F306100246F5E7032363F306100246AE
:1028C000F0E7012363F306100246EBE7022363F30C
:1028D00006100246E6E7D0F8E83580789B690DF1EE
:1028E000060198470146B5E7D0F8E83580785B697E
:1028F0000DF1060198470146ACE7D0F8E83580783D
:102900001B690DF1060198470146A3E7D0F8E835A9
:102910008078DB680DF10601984701469AE7D0F808
:10292000E83580789B680DF106019847014691E7EC
:10293000D0F8E83580785B680DF1060198470146CC
:1029400088E7012385F81231ABE6D0F8E025C0F81E
:10295000143193689847284602F06AFEA1E60223E4
:1029600080F8101180F8123105F0AAFB284602F019
:102970005FFE96E6342800203828002038B590F80D
:102980001231032B04460D460AD10B79042B07D8CC
:10299000D0F8E0359B689847EB88ABB1002038BD94
:1029A00095F90030002B0ADBEB8843B1204600216B
:1029B00005F08CFE204605F0E1F8002038BD2046E9
:1029C000802105F083FEF5E7204602F031FE00206D
:1029D00038BD00BF38B54B788A88012B0C460546B8
:1029E000D1B222D018D3032B14D190F81231022B7C
:1029F00016D0032B3BD163881BB94A0601D005F0E2
:102A000065FED5F8E03521469B682846984728465C
:102A100002F00EFE002038BD90F81231022B12D1C8
:102A20004A06F7D005F052FEF4E790F81231022B77
:102A3000F6D0032B1BD16388002BEBD14B06E6D0DD
:102A400005F062FEDDE7032B11D1130623D401EB61
:102A5000810100EBC10191F8723333BB154B0022A9
:102A6000DA6028461449022202F0B2FDD2E794F956
:102A70000030002B0ADBE38843B12846002105F033
:102A800025FE284605F07AF8002038BD284680212A
:102A900005F01CFEF5E701F07F0101EB810100EB81
:102AA000C10191F81A31002BD8D0024B0122DA6013
:102AB000D7E700BF342800204028002090F8C83510
:102AC0000B7090F8C9354B7090F8CB2590F8CA354B
:102AD00003EB02234B8090F8CD2590F8CC3503EB27
:102AE00002238B8090F8CF2590F8CE3503EB02239C
:102AF0009BB20122CB80C0F83C3180F81121704795
:102B000010B591F90030002B044609DBCB883BB1AE
:102B1000002105F0DBFD2046BDE8104005F02EB891
:102B20002046802105F0D2FD2046BDE8104005F08A
:102B300025B800BF00B3037830B4F3B104460023D6
:102B400014F8015F0133DBB2002DF9D15B000233D1
:102B5000DCB2032513800C704D7004785CB1022345
:102B600000255A1CD2B2CC548D5410F8014F0233B8
:102B7000DBB2002CF5D130BC704702242346E8E7D5
:102B800002683749002310B422F001022124884250
:102B90000260036043608360C360036144614DD0A1
:102BA000304B984235D0304B984239D02F4B984219
:102BB0003DD02F4B984247D02E4B984248D02E4BB9
:102BC00098421DD02D4B98421ED02D4B984243D099
:102BD0002C4B98421DD02C4B984221D02B4B984225
:102BE00025D02B4B98422FD02A4B984230D02A4BDD
:102BF000984205D0294B984206D05DF8044B7047A7
:102C0000274A43F8942CF8E74FF03D5243F8AC2C98
:102C1000F3E74FF4746243F8202C5DF8044B7047DF
:102C20004FF4741243F8382C5DF8044B70474FF0A2
:102C3000746243F8502C5DF8044B7047194B5DF8F3
:102C4000044B3D229A607047174A43F8642CD4E73E
:102C5000164A43F87C2CD0E73D2243F8082CCCE7F9
:102C6000106002402860024040600240586002400C
:102C70007060024088600240A0600240B86002407C
:102C800010640240286402404064024058640240DC
:102C90007064024088640240A0640240B86402404C
:102CA00000003D20006002403D000020400F002059
:102CB0002DE9F04182B08B6A0193CB684F698E6930
:102CC000CD690C6A4A6AD0F800C0DFF850E0984637
:102CD0000B6848EA030848EA07073E4335432C439C
:102CE000019B0E6B0D69224313434A6B4C681343DF
:102CF0008A6B0CEA0E0E134343EA0E03036042692B
:102D0000CB6A896822F0070233431343436145606D
:102D10008460C16002B0BDE8F08100BF3F801CF05C
:102D20000023036043608360C36003614361836188
:102D3000C361036243628362C36203634363836369
:102D4000704700BF036819B923F00103036070479F
:102D500043F0010303607047036819B923F400438B
:102D60000360704743F4004303607047036819B978
:102D700023F020030360704743F020030360704793
:102D800041607047406880B2704700BF036822B955
:102D900023F4002303600161704743F400230360C0
:102DA00001617047036819B923F4802303607047F9
:102DB00043F48023036070470AB9C1607047016122
:102DC000704700BF0068C0F3C0407047006800F063
:102DD00001007047406900F0380070470B4B0C4A07
:102DE00010B40C4CA04294BF184610468B004CBF48
:102DF000436803685DF8044B21F0F02121F0821153
:102E0000194214BF01200020704700BF006002403B
:102E1000006402400F64024010B4094B094C0A4A96
:102E2000A04294BF1846104611F0005F21F0F02137
:102E300021F0821114BFC16081605DF8044B7047BE
:102E4000006002400F640240006402400B060CD593
:102E50004369AAB143F08003802943610FD003681E
:102E600001F01E01194301607047802907D0002A34
:102E7000F5D1036801F01E0123EA010101607047EA
:102E800023F0800380294361F3D1704770B4104A66
:102E9000104E114C21F0F02323F0C315B04298BF1F
:102EA00014468DB1006800F01E0000EAD1228900AE
:102EB0004CBF6068206823F08213184002D0101CB9
:102EC00018BF012070BC7047406900F08002EEE737
:102ED000006002400F6402400064024010B4094BDD
:102EE000094C0A4AA04294BF1846104611F0005FF0
:102EF00021F0F02121F0821114BFC16081605DF8E2
:102F0000044B7047006002400F64024000640240BE
:102F10002DE9F04F824693B04088DAF808400A91D4
:102F20008E4600F1804125460139079205EB81026A
:102F30000D941646DAF804400E9203F003029B0843
:102F40000F90029410921F46119300F0D5818308D0
:102F50005A1E039300F003030493013B9BB2013319
:102F60009B0092B20132059306F1100310460893BC
:102F700073460692103305EB001202F10C08099318
:102F800005F10C0C0C97099A089C52F8103C44F877
:102F9000103C52F80C3C44F80C3C114651F8083CEB
:102FA00044F8083C51F8043C44F8043C9AF80030DA
:102FB0000B931C46002B00F0988103F10109079F39
:102FC0000CF110034FF0010E019308F11005029B64
:102FD0005CED034A5CED025A1CED015ADFEDC77A45
:102FE000CEEB040003EB8000039B002B00F08180FC
:102FF00026B2019BB100B0EE677AF0EE676AB0EEE0
:10300000676A3601024692ED004A53ED043AA4EE97
:10301000846A0A4402EB010BE5EE846A1033A5EEE4
:10302000047AE3EE847A53ED074A92ED004A9BED71
:10303000003AA5EE846A8B440BEB0102E5EE046ACC
:10304000A3EE847AE4EE847A53ED065A9BED004AAF
:10305000A5EE036AE3EE836AA4EE837AE5EE837A53
:1030600013ED055AAB42A3EE846AE4EE846AA5EE42
:10307000847AE5EE047AC6D1069B06FB030043463C
:10308000049ABAB1059AA4009A18F3EC013A90EDAB
:10309000004A9342A4EE846A2044E5EE846AA5EED9
:1030A000047AF0EE654AE3EE847AF0EE455AB0EE2B
:1030B000635AEAD187ED006A9AF8003007EB830380
:1030C000C3ED006A9AF8003007EBC30383ED007A82
:1030D0009AF800300EF1010E03EB430307EB830374
:1030E000CE45C3ED007A07F104070AD09AF80040F4
:1030F0006DE7B0EE677AF0EE676AB0EE676A634636
:10310000BEE7079B0B9ADDF804C003EB820307932D
:103110009AF80030079A03EB430302EB830307930B
:10312000089B10330893099B103309930C9B013BB8
:10313000A8460C937FF427AF119B0E9A1B011A44EB
:103140000E920A9A1A440A920D9AD318099310996A
:10315000002900F089800F9A0891930802F0030279
:103160001046019303925A1E431E92B209989BB2D5
:1031700002F1010B01330E9ACDF814B000EB0B18DD
:103180009B00DDF808B00692049384460A9A52F830
:10319000043B0A92069A42F8043B9AF800300692E1
:1031A0001D460293002B52D0DDF81CE003F101090B
:1031B000012708F11006019BDFED507AEC1B0BEBA9
:1031C0008404002B00F08F80A8000CF1100123462E
:1031D00011ED045A93ED007A11ED036A51ED025A94
:1031E00051ED016AE5EE077A03441A1893ED007A6F
:1031F000E6EE077A1318103192ED006A93ED007A2B
:10320000E5EE867AB1420344E6EE877AE0D1059B8B
:10321000800003FB00444346039A5AB1049AAD0070
:103220009A18F3EC016A94ED007A93422C44E6EE8E
:10323000877AF6D101374F45EEEC017A02D09AF841
:103240000050B8E7079B029A03EB82030793089BA1
:10325000013B0CF1040C08F10408089396D1099B7A
:10326000109A03EB820309930F9B591EC1F38F033E
:1032700033B3013B0D9A9CB2A51C134602EB051516
:10328000099A1033103252F8100C43F8100C52F80F
:103290000C0C43F80C0C52F8080C43F8080C52F8CC
:1032A000040C43F8040C1033AB4202F11002EAD1D3
:1032B0000D9A631C1B011A440D92099A1A44099233
:1032C00011F003020CD0013A92B209990D9B013220
:1032D00001EB820251F8040B43F8040B9142F9D13F
:1032E00013B0BDE8F08F634696E70CF1100201922F
:1032F00008F1100594460DE7099528E70000000045
:10330000FEF760B901700120704700BFF0B52DEDE8
:10331000028B062AB5EEC00AA8BF0622F1EE10FA0B
:1033200083B0B0EE408A0546164600F1ED800020DD
:103330000446012718EE102A8F4BC2F3C7527F3A7A
:1033400083FB02E3D217C2EBA303002BC0F2E98098
:1033500000F0FF80012B00F00881022B00F00881B3
:10336000032B00F0F080042B00F0F080052B00F020
:10337000BD80062B00F0DE80072B00F0DE80082BDE
:1033800000F0DE80092B00F0EA800A2B00F0EA80D2
:103390000C2B40F0E180B7EE007ADFED787ADFEDBC
:1033A000786AB4EEC78AF1EE10FA67EEA67A00F1F9
:1033B000A780F4EEC77AF1EE10FA15DBF4EEC87AC6
:1033C000F1EE10FA17D9F2EE046AB7EE007A04E0D3
:1033D000F4EEC87AF1EE10FA0DD9C7EEA67AF4EE43
:1033E000C77AF1EE10FAF3DAB7EE007AF4EEC77AA4
:1033F000F1EE10FA1DDB2A19B2EE046AF7EE006A4C
:1034000088EE277A0134BCEEC77A8DED017A9DF8FB
:10341000043007EE103AB8EE477A3033A7EE678AE9
:1034200002F8013BC7EE867AF4EEE67AF1EE10FA86
:10343000E6DA091B891B4F1E1EB900296CDD6718CF
:1034400002E0002F50DD27442B19EA19681E13F8FB
:10345000011902F801198342F9D17A1E121B06D410
:103460000132381B801A2844202105F06DFF002E00
:10347000CABF7C1C3C462E232644C8BFEB55B44231
:1034800016DC621E2A44A919B2EE047A28EE078AD5
:10349000FCEEC87A17EE903AFDEEC87A303302F8A7
:1034A000013FF8EEE77A8A4238EE678AEED1741C63
:1034B000601E2E182B5C342B10D9A01E0ED42B1896
:1034C00030251C4613F80129A2F13001092902D840
:1034D000392A23D15D7010F1FF30F2D2002333700E
:1034E00003B0BDEC028BF0BD2746C0E7DFED257AC7
:1034F000B7EE007AB4EEC78AF1EE10FA7FF55EAF50
:1035000030233C462B5494E72D230120B1EE408A12
:103510002B70044602270DE72646B2E701322270DF
:10352000DCE7F7EE007AB4EEE78AF1EE10FA7FF509
:1035300045AFE5E7DFED147ADAE7DFED147AD7E798
:10354000DFED137AD4E7DFED137AD1E7DFED127AFE
:10355000CEE7DFED0A7ACBE7DFED097AC8E7DFEDEA
:103560000F7AC5E7DFED0E7AC2E7DFED0E7ABFE72F
:10357000DFED0D7ABCE700BF6766666600007A443F
:10358000CD97407B6B0B5E5D26D758621BC253679D
:103590008ECB4E6CA5D46853A95F6358C9F24971AC
:1035A0001837457600247449286B6E4E0B7810B49A
:1035B0005BB1024602F8013B11F8013F141A002BDF
:1035C000F8D120465DF8044B70471C46F9E700BF70
:1035D000092B2DE9F84315461C4602F1FF37064634
:1035E00014D8002FD8BF012004DD3A4605F0ACFE08
:1035F0003E4428461C4BA3FB0423DB0803EB830358
:10360000A4EB430330333370BDE8F883164BA3FBC0
:1036100004284FEAD808B8F1090FA5F1020914D817
:10362000B9F1000F1CDD4A4605F08EFEB144284674
:103630000D4BA3FB0823DB0803EB8303A8EB430339
:1036400030333E4489F80030D4E7A3FB0823DB087D
:103650004A46FFF7BDFF06EB0009471C0230E7E7CB
:10366000814601270220E3E7CDCCCCCC2DE9F843FD
:10367000002B1446054639DB092B1E4618DC541E68
:10368000002CD8BF012007DD012CB8BF0124224641
:1036900005F05AFE2544601C4C49A1FB0631C908BF
:1036A00001EB8101A6EB410130312970BDE8F883BF
:1036B000464BA3FB0627FF08092F29D8A4F10208CF
:1036C000B8F1000F72DD424605F03EFE05EB080240
:1036D000611E20463D4BA3FB0743DB0803EB83033E
:1036E000A7EB4303303313700D44D5E75E42092E38
:1036F0002FDC941E002C5DDD012CB8BF0124224676
:1037000005F022FE2544A01C2D2305F8013BC3E74C
:10371000A3FB07284FEAD808B8F1090FA4F1030961
:1037200028D9A3FB0823DB084A46FFF79FFF05EBD8
:10373000000E421C811C0330244BA3FB0843DB0812
:1037400003EB8303A8EB430330332A448EF80030A5
:10375000C0E71E4BA3FB0627FF08092F16DDA3FBBE
:103760000723DB08A21E5B42FFF780FF2A18411CDB
:103770000230AFE7B9F1000F1EDD4A4605F0E4FD67
:1037800005EB090EA21E611E2046D5E7A4F1030831
:10379000B8F1000F15DD424605F0D6FD05EB080235
:1037A000611E20462D2302F8013B93E702460121CA
:1037B00002208FE70220A7E786460221032001228C
:1037C000BAE7024602210320ECE700BFCDCCCCCC07
:1037D0002DE9F04383B015460A9C27090646984612
:1037E0001ED1013A002AD8BF012003DD164405F09E
:1037F000ABFD284604F00F04092C0CD9B8F1000FDA
:1038000004D15734347003B0BDE8F08337343470DA
:1038100003B0BDE8F0833034347003B0BDE8F0830A
:10382000A2F10209220A19D1B9F1000F24DD4A469A
:1038300005F08AFDB1446B1E284607F00F07092FDB
:1038400007D9B8F1000F12D1573789F800701E441C
:10385000D0E7303789F800701E44CBE700924A4623
:10386000FFF7B6FF06EB0009431C0230E5E73737E8
:1038700089F800701E44BDE7814601230220DCE781
:103880002DE9F04F0F468BB014469846064608B116
:1038900000230370DFF8C892002523785BB1BD4296
:1038A00080F0B480252B0ED001343370237801359D
:1038B0000136002BF3D1AF4240F2A8802846337086
:1038C0000BB0BDE8F08F6178252937D030293AD088
:1038D0000B4601342021A3F13002092A4FF00002E7
:1038E0000CD802EB820203EB420214F8013FA3F171
:1038F0003000303A092802F0FF02F2D994462A44F7
:10390000974238BF7A1BA3F1580338BF5FFA82FC95
:10391000202B00F28280DFE803F06D8080808080C1
:103920008080808080655B808080805B80808080FC
:1039300080808080804B8028808019003170023424
:1039400001350136A9E7A3780234C4E7D8F800307E
:103950000093624630460023FFF73AFF08F104085F
:10396000024601341644054497E7D8F800B0BBF18D
:10397000090F08F10408E2460CF1FF3352D8002B7E
:1039800078DD1A463046CDF810C0039305F0DCFC14
:10399000DDF810C0039B624633446046A9FB0BE18F
:1039A000C90801EB8101ABEB410130311970D8E757
:1039B000D8F800100A7808F10408CAB1334603F8B1
:1039C000012B11F8012F981B002AF8D10246C8E7F5
:1039D0006246D8F800303046FFF748FE08F1040888
:1039E0000246BEE7D8F800303370012208F104081F
:1039F0001046B6E7D8F800300093624630460123FF
:103A0000FFF7E6FE08F104080246AAE70023681E55
:103A100006F8013C0BB0BDE8F08F4FF0FF300BB063
:103A2000BDE8F08FA9FB0B02D208ACF10200092A15
:103A30000592039022D8002817DD039A049330469C
:103A400005F082FC039B33449C46049B5246059838
:103A5000A9FB00E1C90801EB8101A0EB4101303174
:103A6000334450468CF8001098E702229246B44640
:103A70000123ECE70122104633468FE7A9FB02023F
:103A8000D208ACF10300092A079204901AD8002842
:103A900042DD049A0693304605F056FC049BDDF89F
:103AA0000CC033440493069B52460799A9FB01E0DE
:103AB000C00800EB8000A1EB400004993030B44412
:103AC0000870C4E7A9FB0220C208092A0692ACF1DB
:103AD000040C31D8BCF1000F25DD62463046099355
:103AE000CDF820C005F030FCDDF820C0099B06EBC6
:103AF0000C0EDDF80CC052460698A9FB0010C00859
:103B000000EB80010698A0EB41000499303031446D
:103B100004918EF80000C8E703229246049602231F
:103B20004FF0010CC1E7042201219246B64603235F
:103B30004FF0020C0491DFE71346A9FB0323DB08D7
:103B400062463046FFF744FD431C00F1040A04932B
:103B5000524606EB000E00F1020CC31CCCE700BF7E
:103B6000CDCCCCCC0CB400B583B004AB53F8042B53
:103B70000193FFF785FE03B05DF804EB02B07047D8
:103B800013460A466421FFF77BBE00BFF0B5224D05
:103B90008E46164607460FCDA3B06C460FC40FCD18
:103BA0000FC42B6823607246334609A86421FFF7CF
:103BB00067FE632814DD194E9DF800003368DD6848
:103BC00068B16C4605E0FDF7FDFC14F8010F30B15B
:103BD00033689A689542F6D0DB689D42F3D0FEE7E1
:103BE0009DF824000446A0B10C4E09AD002405E068
:103BF000FDF7E8FC15F8010F013450B133689A68FD
:103C00009742F5D0DB689F42F2D04FF0FF3023B0EF
:103C1000F0BD204623B0F0BD1494000848010020F8
:103C2000F0B5224D224E84468E460FCDA3B06C4691
:103C30000FC40FCD0FC437682B68236062467346EC
:103C400009A86421BF68FFF71BFE632813DD3368F2
:103C50009DF80000DD6868B16C4605E0FDF7B2FC38
:103C600014F8010F30B133689A689542F6D0DB68DA
:103C70009D42F3D0FEE79DF82400044698B109ADBB
:103C8000002405E0FDF79EFC15F8010F013450B14A
:103C900033689A689742F5D0DB689F42F2D04FF0C4
:103CA000FF3023B0F0BD204623B0F0BD14940008CF
:103CB000480100200EB4F0B5254D07460FCDA4B045
:103CC00002AC0FC40FCD0FC429AE2B6856F8042BDD
:103CD00023600BA8334664210196FFF7D1FD6328CA
:103CE00014DD1C4E9DF808003368DD6868B102AC35
:103CF00005E0FDF767FC14F8010F30B133689A68EE
:103D00009542F6D0DB689D42F3D0FEE79DF82C008B
:103D10000446B8B10F4E0BAD002405E0FDF752FC90
:103D200015F8010F013468B133689A689742F5D0ED
:103D3000DB689F42F2D04FF0FF3024B0BDE8F04086
:103D400003B07047204624B0BDE8F04003B0704790
:103D500014940008480100200FB4F0B5254D264EFC
:103D60000FCDA5B002AC0FC40FCD0FC42AAF2B6886
:103D700057F8042B2360346801973B460BA8642155
:103D8000A768FFF77DFD632813DD33689DF8080001
:103D9000DD6868B102AC05E0FDF714FC14F8010F12
:103DA00030B133689A689542F6D0DB689D42F3D013
:103DB000FEE79DF82C000446B0B10BAD002405E0F1
:103DC000FDF700FC15F8010F013468B133689A68FB
:103DD0009742F5D0DB689F42F2D04FF0FF3025B01C
:103DE000BDE8F04004B07047204625B0BDE8F04083
:103DF00004B0704714940008480100200EB400B5C8
:103E000082B003AB642153F8042B0193FFF738FD14
:103E100002B05DF804EB03B0704700BFF8B5104F77
:103E200006463B6800789C68B8B1224694424FF041
:103E3000000502D0DB689C420CD1FDF7C3FB16F8ED
:103E4000010F013550B13B689A689442F5D0DB68A8
:103E50009C42F2D04FF0FF30F8BD05462846F8BD31
:103E600048010020084B1B689A688A4210B5044636
:103E700002D0DB688B4204D1E0B2FDF7A3FB204601
:103E800010BD4FF0FF3010BD48010020F8B50646C8
:103E90000078A8B10B4F0D4600243B689A68954204
:103EA00002D0DB689D4208D1FDF78CFB16F8010FAC
:103EB00001340028F1D12046F8BD4FF0FF30F8BDA5
:103EC0000446F8E74801002008B54FF4804001217E
:103ED00001F08CFD4FF480400021BDE8084001F066
:103EE00085BD00BF014B1860704700BF003801401E
:103EF00001F0FC0303F1804303F59C3301F003015F
:103F000010B489009C680F228A4024EA02029A6059
:103F10009A685DF8044B884002439A60704700BF7E
:103F2000014B1860704700BFDC002742014B18604E
:103F3000704700BF00042742024B186AC0F30020FC
:103F4000704700BF003801402DE9F04383B002AC58
:103F50000220012101F0DEFC4FF4806606200121E1
:103F600001F0D8FC224D44F8086D032200232846B6
:103F700021464FF00109DFF87C808DF805208DF88F
:103F800006308DF807308DF8049000F013FE4FF4E2
:103F900080732146284600934FF4006700F00AFE24
:103FA00021464046009700F005FE484604F00CFC10
:103FB0004046394600F088FE28460A21052200F0D6
:103FC00093FE28460F21052200F08EFE02224FF4B8
:103FD0000043214628468DF80420009300F0EAFDB6
:103FE00021462846009600F0E5FD03B0BDE8F083C9
:103FF0000004024000080240F0B5164C87B00746A6
:1040000001214FF4804001F0A9FC2046FDF754F84F
:104010004FF4404600234FF40072204601A94FF4AC
:104020008275ADF80830ADF80A30ADF80C30ADF857
:104030001230ADF80E20ADF81070ADF80460ADF898
:104040000650FDF76FF820460121FDF703F907B090
:10405000F0BD00BF0038004010B5B0F5887F82B0D9
:1040600038BF4FF488700446ADF806002848802118
:10407000FDF7B6F90028F9D125480221FDF7B0F97E
:104080000028F9D022482821FDF770F92048802126
:10409000FDF7A6F90028F9D1012004F095FB1D4891
:1040A0004FF4807100F010FE012004F08DFB1848E1
:1040B0000221FDF795F90028F9D0E1B21448FDF787
:1040C00055F913480221FDF78BF90028F9D0104863
:1040D0009DF80710FDF74AF90D480221FDF780F918
:1040E0000028F9D00A481221FDF740F9084880213C
:1040F000FDF776F90028F9D1012004F065FB0548A9
:104100004FF4807102B0BDE8104000F0DFBD00BF89
:10411000003800400004024000B583B001902948F7
:104120008021FDF75DF90028F9D126480221FDF72D
:1041300057F90028F9D023482921FDF717F921481C
:104140008021FDF74DF90028F9D1012004F03CFB56
:104150001D484FF4807100F0B7FD012004F034FBDE
:1041600018480221FDF73CF90028F9D015489DF8C0
:104170000410FDF7FBF813480221FDF731F9002880
:10418000F9D010489DF80510FDF7F0F80D48022110
:10419000FDF726F90028F9D00A489DF80610FDF72A
:1041A000E5F808488021FDF71BF90028F9D1012026
:1041B00004F00AFB04484FF4807100F087FD03B05F
:1041C0005DF804FB0038004000040240454B00222B
:1041D00002212DE9F0411D465F1D1E461C461A7046
:1041E0005A709A70D97019713F488021FDF7F8F81C
:1041F0000028F9D114F8011B3B48FDF7B7F8BC4281
:10420000F2D139488021FDF7EBF804460028F8D1B7
:104210003648DFF8E4804FF4807100F055FD3348F4
:104220004FF4807100F052FD01224F237470B4707E
:104230003270F370A8F1040634462B488021FDF754
:10424000CFF80028F9D114F8011B2748FDF78EF8A4
:104250004445F2D124488021FDF7C2F80028F9D165
:1042600000F1804000F501304FF4807100F02CFD2A
:104270001E484FF4807100F029FD1D4B1D4A1A6045
:104280004FF0804EDFF874C0CEF840C004242320E5
:10429000FB217222EA2334707070B170F2703371B6
:1042A00011488021FDF79CF80028F9D115F8011B71
:1042B0000D48FDF75BF8AF42F2D10B488021FDF7C6
:1042C0008FF80028F9D100F1804000F501304FF45B
:1042D000807100F0F9FC05484FF48071BDE8F041B1
:1042E00000F0F4BC144100200038004000040240FB
:1042F00010410020EA72FB231841002023FB72EAE0
:1043000038B542F6F113174A174D03FB00F001BA16
:10431000042328601446C2F801101370551D134879
:104320008021FDF75DF80028F9D114F8011B0F4832
:10433000FDF71CF8AC42F2D10C488021FDF750F893
:104340000028F9D100F1804000F501304FF4807170
:1043500000F0BAFC06484FF48071BDE8384000F028
:10436000B5BC00BF144100201041002000380040BF
:104370000004024008B50B480B49FEF787FD58B909
:1043800008480A49FEF782FD00B908BD05480749FB
:10439000BDE80840FEF7A2BD02480349FEF79EFDB6
:1043A000EEE700BF106002401040001020800010B7
:1043B0002DE9F04F83B0054603F006F918B9002047
:1043C00003B0BDE8F08F284603F00CF901900028F7
:1043D000F5D0C0F3074707F0080303F0FF00002BF8
:1043E00040F09C807E0730D49DF80440A10702D5A0
:1043F000EB6802225A61019B002BC0F2EA81C3F3F1
:104400000726320700F1C581270700F1B881E106D0
:1044100000F18F81F20600F1F380B30600F1D58040
:10442000019BC3F3074919F0100F40F0C38019F046
:10443000200FC5D0714B1B6828461B6A9847EB6854
:104440004FF400125A610120BAE7284603F090FBAE
:104450008046002860D02E4605F118094FF0000B69
:104460002FE0580703D5D9F80020042393601907DB
:1044700003D5D9F8002008239360DA0603D5D9F8CC
:104480000020102393609F0603D5D9F80020202335
:1044900093605C0603D5D9F8002040239360980709
:1044A00003D5D9F8002002239360DB0940F0D381C3
:1044B0005FEA58080BF1010B06F1280609F104091F
:1044C0002AD018F0010FF3D029695FFA8BFA086936
:1044D0004B6B05EB8A0223FA0AF39269DB01DBB22C
:1044E000926803431340DBB2DC07BAD5434A4B6BF7
:1044F000D9F800401268012000FA0BF723EA0703FD
:104500004B635368A060514628469847EC78012CCD
:1045100000F0EE810123A4E7012065E7284603F0BF
:1045200019FB0446002843D0DFF8D08005F154067B
:10453000A9464FF0000B07E064080BF1010B06F1F0
:10454000040609F1280933D0E207F5D55FFA8BFAA2
:104550005146284603F004FBC0B2C30713D53368A5
:1045600001209860EA78824200F0DE81D8F80030BD
:1045700051461B682846984795F803A0BAF1010FE9
:1045800000F0C4810120810702D5336802209860C1
:10459000420702D53368042098600307CCD5D8F8C9
:1045A000003028469B689847336808209860C3E726
:1045B000012017E7114B1B682846DB699847EB6819
:1045C0004FF480125A61012031E7284603F010F9B8
:1045D000EB682846DC6803F0FBF8032800F0328122
:1045E000012140220523A970AA8063F38D24EB6882
:1045F0004FF40052DC6001205A6111E79806002058
:104600002A695368002723F001035360394628467E
:1046100002F076FF6B78002B6BD0AA69FF239360C2
:104620006A6D93606A78012A63D9EA699360AA6D1A
:1046300093606A78022A5CD92A6A9360EA6D936073
:104640006A78032A55D96A6A93602A6E93606A78F9
:10465000042A4ED9AA6A93606A6E93606A78052A22
:1046600047D9EA6A9360AA6E93606A78062A40D9AD
:104670002A6B9360EA6E93606A78072A39D96A6B6D
:1046800093602A6F93606B78082B32D9AA6BFF2353
:1046900093606A6F93606A78092A2AD9EA6B9360FB
:1046A000AA6F93606A780A2A23D92A6C9360EA6F0A
:1046B00093606A780B2A1CD96A6C9360D5F88020C5
:1046C00093606A780C2A14D9AA6C9360D5F8842078
:1046D00093606A780D2A0CD9EA6C9360D5F888202B
:1046E00093606A780E2A04D92A6D9360D5F88C20DD
:1046F000936001242B6964F30F070F214FF0FF3003
:104700002F2264F31F479861DF6159611A611A68AB
:104710006FF30A121A60284603F030FA874BEA68F2
:104720001B684FF480511B69516128469847204609
:1047300073E6EB689A6922F010029A611C6AC4F36E
:104740004342022A04F00F075FD0062A11D107EB7B
:10475000870705EBC707284605F5B961082202F06F
:104760002FFCD7F88833C4F30A141C44C7F88843D5
:10477000EB689A6942F010029A6101204AE66F4B99
:104780001B682846DB689847EB6808225A610120BD
:104790003DE66A4B1B6828465B6998472A69EB68C7
:1047A00091684FF400625A61AB7A83B1CB070ED5A2
:1047B000D5F80C3162491A6842F001021A601A6891
:1047C00042F003021A600B6943F006030B610120FB
:1047D0001AE6AB7A43B1D5F80C31D5F80C216FF35A
:1047E00041036FF3000313602A6954495368096851
:1047F00023F00103536028468B699847EB684FF01C
:1048000000425A610120019BF9E547F6F07222400F
:10481000002AAED007EB870705EBC707C4F30A14DD
:104820002246D7F87C13284602F0CAFBD7F87C232F
:10483000D7F8883322442344C7F87C23C7F8883349
:10484000EB6896E700214FF400720923A970AA8053
:1048500063F38D24CBE6D6F82C71D6F830E1D6F888
:104860002021D9F80010CEEB070494428B69204632
:1048700028BF104603309BB2B3EB900F33D9774576
:1048800031D987B3D6F8241109E0D9F80040A269DC
:1048900092B297422AD248B3D6F82021C41A944241
:1048A00028BF1446A3B22846524602F075FBD6F83C
:1048B0003031D6F82411D6F82C012344E71C2144CA
:1048C00083424FEA9707C6F82411C6F83031DCD38B
:1048D000286996F81841426BD9F800100123A340CB
:1048E00022EA0303436380238B60E1E52146FAE774
:1048F000BBF1000F7FF40EAE95F81131042B7FF45D
:1049000009AE284603F03AF92346AAE5BBF1000FA9
:104910007FF438AE95F81131052B7FF433AE28467D
:1049200003F02CF950462EE61A69D9F87833C2F311
:1049300012029B1AC9F8883318E600BF98060020B7
:1049400000ED00E00C4B0D4A1B68A2FB03231B0982
:10495000013BB3F1807F00D3FEE7094A094810B458
:10496000F0245360002180F82340072391605DF814
:10497000044B1360704700BF24000020ABAAAAAA12
:1049800010E000E000ED00E0704700BF704700BF9E
:10499000704700BF704700BF704700BF044B054918
:1049A00000221A605A609A60DA605961704700BF4D
:1049B000003C0140FFFF7F00837933B31C4B027939
:1049C0004179F0B404681E68E7433E401E605D68AC
:1049D00002F1804202F59E323D405D6015682C4335
:1049E000146002689C68D5432C409C60D8681029EC
:1049F00000EA0500D86013D001F1804303F59E332F
:104A0000F0BC19680A431A6070470379016803F122
:104A1000804303F59E331A6822EA01021A60704748
:104A2000996811439960D9680A43DA60F0BC70470D
:104A3000003C014000230C2242710360037183712A
:104A4000704700BF024A136918431061704700BFE6
:104A5000003C0140034B5B69184214BF0120002059
:104A6000704700BF003C0140014B5861704700BFD8
:104A7000003C0140054B1A685B69034004D01042BA
:104A800014BF01200020704718467047003C0140C9
:104A9000014B5861704700BF003C014008B53C4BDA
:104AA000984224D03B4B98422BD03B4B984232D07B
:104AB0003A4B984239D03A4B984240D0394B9842C1
:104AC00047D0394B98424ED0384B984255D0384B4E
:104AD000984200D008BD4FF48070012100F056FFCD
:104AE0004FF480700021BDE8084000F04FBF012066
:104AF000014600F04BFF01200021BDE8084000F016
:104B000045BF0220012100F041FF02200021BDE845
:104B1000084000F03BBF0420012100F037FF0420D3
:104B20000021BDE8084000F031BF0820012100F05D
:104B30002DFF08200021BDE8084000F027BF10200D
:104B4000012100F023FF10200021BDE8084000F003
:104B50001DBF2020012100F019FF20200021BDE809
:104B6000084000F013BF4020012100F00FFF40205B
:104B70000021BDE8084000F009BF8020012100F0BD
:104B800005FF80200021BDE8084000F0FFBE00BF07
:104B9000000002400004024000080240000C0240F5
:104BA000001002400014024000180240001C0240A5
:104BB0000020024000222DE9F0431346D1F800E026
:104BC00001274FF0030C04E00133102B02F1020225
:104BD00028D007FA03F404EA0E05A542F4D1D0F870
:104BE00000800E790CFA02F4E44304EA0808C0F8E5
:104BF0000080D0F8008006FA02F9013E49EA080870
:104C0000012EC0F800800FD9C568CE792C40C46051
:104C1000C56806FA02F401332C43102BC46002F17C
:104C20000202D6D1BDE8F083D0F8089091F8058053
:104C30008E7904EA0909C0F80890D0F8089008FABB
:104C400002F848EA0908C0F80880D0F8048028EA89
:104C500005054560D0F8048006FA03F5ADB245EAD3
:104C600008054560D0E700BF00234FF6FF720260E1
:104C7000037143718371C371704700BF82B04FF4F9
:104C800080330193019B0B430193019BC361C1617D
:104C9000019BC361C3690193C369019302B070476B
:104CA0000369194214BF012000207047006980B2D7
:104CB000704700BF4369194214BF012000207047AC
:104CC000406980B2704700BF0183704741837047DD
:104CD0000AB9418370470183704700BF4161704743
:104CE0004369594041617047CB0800EB830001F0F4
:104CF000070110B48900046A0F238B4024EA0303E0
:104D00000362036A5DF8044B8A40134303627047F1
:104D100012230B80004870479405002004230B8069
:104D200000487047A805002010B5044C04480A4606
:104D30002146FDF7FFFE204610BD00BF4840002081
:104D40003894000808B50A4628B106480649FDF718
:104D5000F1FE054808BD05480349FDF7EBFE024892
:104D600008BD00BF70940008484000204C94000823
:104D700008B50A4628B106480649FDF7DBFE054896
:104D800008BD05480349FDF7D5FE024808BD00BF30
:104D9000A4940008484000209494000810B5044CE6
:104DA00004480A462146FDF7C5FE204610BD00BF57
:104DB00048400020B494000810B5044C04480A464A
:104DC0002146FDF7B7FE204610BD00BF4840002039
:104DD000C494000870B50120284C82B0014600F050
:104DE00099FD032600232046694602224FF4D85538
:104DF0008DF806308DF8073000958DF804208DF879
:104E00000560FFF7D7FE204608210A22FFF76CFF56
:104E1000204609210A22FFF767FF20460B210A22BC
:104E2000FFF762FF20460A220C21FFF75DFF0125F4
:104E30004FF480636946204600938DF805608DF835
:104E400006508DF80750FFF7B5FE0A210A462046A6
:104E5000FFF74AFF29464FF4804000F08BFD2946BA
:104E6000802000F063FD29464FF0805000F0B2FD35
:104E70002846FFF70DFE02B070BD00BF00000240E3
:104E800000B54FF4C06083B000F036FE012343212B
:104E9000032201A88DF804108DF805308DF8073035
:104EA0008DF8062000F032FE03B05DF804FB00BF71
:104EB000C0EB0010064BC200A3FB0213D21A03EB97
:104EC00052029208002301339A42FCD2704700BF7D
:104ED00025499224074A084B02FB00F0A3FB00235C
:104EE000C21A03EB52029208002301339A42FCD209
:104EF000704700BFC0D4010025499224254AC3133E
:104F000010B418BFD38B440444BF948B6340840413
:104F100044BF548B6340C40444BF148B63400405F6
:104F200044BFD48A6340440544BF948A63408405E7
:104F300044BF548A6340C40544BF148A63400406D6
:104F400044BFD4896340440644BF948963408406C7
:104F500044BF54896340C40644BF148963400407B6
:104F600044BFD4886340440744BF948863408407A7
:104F700044BF54886340C40748BF148802EB410211
:104F800048BF6340128C5DF8044B0004534040EA74
:104F900083107047D40500202DE9F04F544CDFF802
:104FA0008481544E4FF4A06283B0A7180D46824608
:104FB0004146204604F02EF908F5A06138464FF42A
:104FC000AC784FF4C87204F025F9424604F520602D
:104FD000002104F0B9F904F6B84942464FF4137BB6
:104FE00004F65C30002104F0AFF904F604785A4668
:104FF0004846002104F0A8F95A464046002104F032
:10500000A3F904F52063F06ADFF81CB18DE82800ED
:10501000514623464FF4A07201F010FF04F65C33B2
:10502000306B51468DE828004FF4A072234601F002
:1050300005FF706B00954B463A466421FCF782FEF3
:10504000B06B00953A4643466421FCF77BFE2A4B41
:105050002A4A2B49DFF8D4E02A4F2B4E2B4899657A
:105060004FF0010A0021C3F85CE04FF07E5E82F849
:1050700000A0274D5160DFF8B890D160DFF8B48010
:105080001161DFF8B4C01175C3F864E05175DFF841
:10509000ACE0D1829F661F491F4F5E67D8671F4EE5
:1050A0001F48C3F8849000244FF0030AA2F818A008
:1050B000C3F88C80C3F894C0C3F89CE0C3F8A47014
:1050C000C3F8AC601C66DC661867C3F88000C3F8E0
:1050D0009000C3F8A0009967C3F88810C3F898102F
:1050E000C3F8A810C5F800B003B0BDE8F08F00BF4A
:1050F000D8060020D4050020D01700204428002026
:10510000CDCC4C4042535F3E406C000C80A24452D8
:105110001C4D0020006D23F1C009070C4020747362
:10512000008623F1D49400080AD7A33DFBE300C016
:105130000002010CC0FE2053C0B0020CC0246574F4
:105140002DE9F04F83B0BDF83050002D00F0918173
:105150006C1E0E46A4B2D049023402EB84041F46F2
:10516000043201F1C00032F8023C32F904EC1BB207
:1051700007EE10EA07EE903AB8EEC77AF8EEE77A53
:105180000432A242E0EC017AA1EC017AEBD1C249EF
:10519000C24C01F5C072E06A2B46FDF7B9FEC0496A
:1051A000206B01F5D8622B46FDF7B2FE06FB05FE2B
:1051B000BEF1000F00F02281D4F840C0B94BE16B82
:1051C000B94DDFF8FC8200974FEA4C0B0BEB0C005B
:1051D000002201901E461046F246D3F820E08E448D
:1051E000C3F820E0D3F820E08E4580F0828096F866
:1051F00015E00EF0FF09BEF1000F30D196F800E087
:105200000EF0FF07BEF1000F00F02281012F26D122
:1052100096F814E0A54FBEF1200F08BF86F8149051
:1052200093F814E007EB4E0E4FF01009BEF890E62D
:10523000A3F81AE093F814E007EB4E0E4FF00007C6
:10524000BEF892E6A3F81CE093F814E00EF1020E0B
:105250005FFA8EFE83F814E01F7083F8159093F8C0
:1052600000E00EF10C0E03EB4E0EBEF802E00EF461
:10527000004E1FFA8EFEA3F816E0B3F816E01FFAF0
:105280008EFEBEF1000F00F0E0804FF00107F782C4
:10529000B3F816E0B3F8189089EA0E0E1FFA8EFEE6
:1052A000A3F816E0B3F816E01EF0010E1ABF0327AC
:1052B0003783A6F818E093F8009093F800E00EF119
:1052C0000C0E03EB4E0E09F10C09BEF802E01FFABA
:1052D0008EFE03EB49094FEA4E0E1FFA8EFEA9F827
:1052E00002E093F815E00EF1FF3E5FFA8EFE83F8C0
:1052F00015E0B3F816E01FFA8EFEBEF1030F0ED8CC
:10530000DFE80EF08B7F9702D3F820E0684F4FEA7A
:105310009E4E07EB4E0EBEF998E0C3F804E0D3F8BA
:1053200024E0019FD4ED116A94ED124A94ED133AF2
:10533000D8ED003ADE44C3F824E0D3F828E0E64490
:10534000C3F828E0D3F824E04FEA9E4E05EB4E0E5A
:105350009200BEF9D4E9C3F82CE0D3F828E04FEA74
:105360009E4E05EB4E0E0130BEF9D4E9C3F830E095
:10537000D3F834E0BE44C3F834E0D3F834E04D4F02
:105380004FEA9E4E05EB4E0E80B2BEF9D4E9C3F84B
:1053900038E007EB020E07F503673A4493ED0B7A0A
:1053A000D2ED005A9EED8C5AD3ED0C4A93ED016A72
:1053B000009F75EE657AB8EEC77A67EE847A27EEBD
:1053C000267AF8EEE44A67EE877A93ED0E7AE4EEF9
:1053D000837A5045024675EE255AB8EEC66AB8EE95
:1053E000C77AE4EE257A26EE077A66EE876AE6EE5D
:1053F000A37AE7EC017A0097FFF6EFAE03B0BDE8C1
:10540000F08FD3F820E02C4F4FEA9E4E07EB4E0E64
:105410003EF9E8ECC3F804E081E7D3F820E0234F3D
:105420004FEA9E4E07EB4E0EBEF9D4E6C3F804E0F9
:1054300075E7D3F820E0214F4FEA9E4E07EB4E0E62
:10544000BEF954E8C3F804E069E7A6F816E01FE7E0
:105450004FF001073770B6F81CE01FFA8EFE4FEAD6
:105460008E1E1FFA8EFE4FF00A07A6F81CE0777515
:10547000F5E60A4C0849E06A01F5C0722B46FDF7D3
:1054800047FD0749206B2B4601F5D86203B0BDE804
:10549000F04FFDF73DBD00BF80180020D40500206F
:1054A0004019002044280020E4910208D494000808
:1054B0001C1B0208D0170020941C01085C930108F3
:1054C0001C4D0020BAB130B40B4D541EA4B295ED62
:1054D000147A03EB8404043BF1EC017A67EE277A3B
:1054E000FDEEE77A17EE902A024412BA43F8042F31
:1054F000A342F1D130BC7047D405002003B3F0B50E
:10550000104C114F666D5D1EADB202EB4505023ABF
:10551000F0EC017AFDEEE77A17EE904A06FB04F410
:1055200087FB04E3E417C4EB631303F30F0422F8CF
:10553000024F83F31003AA4221F8023BE8D1F0BDE9
:10554000704700BFD40500201F85EB512DE9F043C3
:105550001B4CBDF81C1004FB02F204FB03F361B307
:1055600001F1FF3E1FFA8EFE0EF1020E1549164F95
:10557000164E00EB8E0E0430CC6B1444CC630C6CD6
:105580001C440C64CD6B0C6CAD0CA40C07EB4404F8
:1055900007EB4505B4F9D4C9B5F9D48986FB0845AC
:1055A00086FB0C94A5EBE875A4EBEC7420F8045C86
:1055B00020F8024C04307045DED1BDE8F08300BF16
:1055C000865D010044280020E4910208ABAAAA2AC3
:1055D00038B5134602250A46C0F83831C0F83431D0
:1055E00080F81151002103F04DF8002038BD00BFB4
:1055F00008B513460A46002103F044F8002008BD10
:1056000038B5134603250A46C0F89033C0F88C33EA
:1056100080F81151002103F00FF8002038BD00BFC1
:1056200008B513460A46002103F006F8002008BD1D
:1056300010B50021042304460A4680F811310B46B8
:1056400003F020F8204602F099FA002010BD00BFB8
:1056500010B50021052304460A4680F811310B4697
:1056600002F0EAFF204602F089FA002010BD00BFD8
:1056700001EB810100EBC100B0F88803704700BF67
:105680000A4B0B481A68002142F001021A60996027
:105690001A6822F0847222F480321A6058601A6804
:1056A00022F480221A60D960704700BF003802409F
:1056B00010300024024B00221A701870704700BF8F
:1056C0000238024082B000230A4A019302E0B3F597
:1056D000A06F08D0136813F4003F019B03F101038E
:1056E0000193019BF3D0034B1868C0F3404002B014
:1056F000704700BF00380240034A136823F0F803E4
:1057000043EAC0001060704700380240014B186047
:10571000704700BF00004742064B002201281A7064
:105720001A7005D0042802D105221A7070477047FC
:105730001870704770380240014B1860704700BF06
:10574000800E474230B4029C064D40EA046001439B
:105750005B08013B41EA821242EA0340686030BCC8
:10576000704700BF00380240014B1860704700BF0F
:10577000600047420907034B41EA8010C3F88400E8
:10578000704700BF00380240014B1860704700BFEF
:1057900068004742014B1860704700BF4C00474209
:1057A000034A936823F0EC63194308439060704701
:1057B00000380240034A936823F0784319430843B2
:1057C0009060704700380240034A936823F0030357
:1057D00018439060704700BF00380240024B986841
:1057E00000F00C00704700BF00380240034A936885
:1057F00023F0F00318439060704700BF0038024068
:10580000034A936823F4E05318439060704700BF45
:1058100000380240034A936823F4604343EAC0001F
:10582000906070470038024010B4214CA36803F028
:105830000C03042B1BD0082B1CD01E4B03601C4AEE
:105840001D499468C4F303140C5DE34043609468FD
:10585000C4F382240C5D23FA04F4846092685DF83A
:10586000044BC2F342328A5CD340C3607047134B8F
:105870000360E4E76368616813F4800F636818BF2E
:105880000E4C01F03F020CBF0A49B4FBF2F1C3F326
:10589000881308BFB1FBF2F101FB03F2044B5B6814
:1058A000C3F3014301335B00B2FBF3F30360C6E7CC
:1058B000003802400024F4003406002000127A0070
:1058C00000F44073B3F5407F09D108498B6820F09C
:1058D000704223F4F81322F4407213438B60034A9E
:1058E000136FC0F30B001843106770470038024075
:1058F000014B1860704700BF3C0E4742014B1860D7
:10590000704700BF400E4742014B1860704700BF10
:105910005C014742044A136B19B923EA0000106383
:10592000704718431063704700380240044A536BB5
:1059300019B923EA00005063704718435063704759
:1059400000380240044A936B19B923EA00009063BF
:10595000704718439063704700380240044A136C44
:1059600019B923EA000010647047184310647047A7
:1059700000380240044A536C19B923EA000050640D
:10598000704718435064704700380240044A136956
:1059900019B923EA0000106170471843106170477D
:1059A00000380240044A536919B923EA00005061E3
:1059B000704718435061704700380240044A9369A9
:1059C00019B923EA0000906170471843906170474D
:1059D00000380240044A136A19B923EA0000106231
:1059E000704718431062704700380240044A536AF7
:1059F00019B923EA0000506270471843506270479B
:105A000000380240044A136D19B923EA00001065FA
:105A1000704718431065704700380240044A536DC0
:105A200019B923EA00005065704718435065704764
:105A300000380240044A936D19B923EA00009065CA
:105A4000704718439065704700380240044A136E4F
:105A500019B923EA000010667047184310667047B2
:105A600000380240044A536E19B923EA0000506618
:105A7000704718435066704700380240044A137854
:105A800019B923EA0000107070471843107070476E
:105A90000D3802404309012B0BD0022B094B0CBFE0
:105AA0001A6F5A6F00F01F0322FA03F000F0010092
:105AB0007047044B1A6800F01F0322FA03F000F04D
:105AC0000100704700380240024A536F43F0807370
:105AD0005367704700380240034BDB68184214BF1D
