:020000040800F2
:10000000A00B00201D300008112B0008132B000846
:10001000152B0008172B0008192B00080000000002
:100020000000000000000000000000001B2B000882
:100030001D2B0008000000001F2B0008212B0008CA
:1000400075300008793000087D30000881300008E4
:1000500085300008893000088B2B0008913000089B
:1000600095300008993000089D300008A130000844
:10007000A5300008A9300008AD300008B1300008F4
:10008000B5300008B9300008BD300008C1300008A4
:10009000C5300008C9300008CD300008D130000854
:1000A000D5300008D9300008DD300008E130000804
:1000B000E5300008E9300008ED300008F1300008B4
:1000C000F5300008F9300008FD3000080131000863
:1000D00005310008093100080D3100081131000810
:1000E00015310008193100089B2B00082131000848
:1000F00025310008293100082D3100083131000870
:1001000035310008393100083D310008413100081F
:1001100045310008493100084D31000851310008CF
:1001200055310008593100085D310008613100087F
:1001300065310008693100086D310008713100082F
:1001400075310008793100087D310008C52B0008A1
:1001500085310008893100088D310008913100088F
:1001600095310008993100089D310008A13100083F
:10017000A5310008A9310008AD310008B1310008EF
:10018000B5310008B931000800221100C2685FF0E3
:10019000FF335360C2685FF0FF33536151F0004199
:1001A00051F40061C2689161704770B582B004007B
:1001B0000025002600200090032000F044FEE068A7
:1001C00000690090761CDFF89803864201D3002076
:1001D0001DE000980028EFD500200600009850F0A0
:1001E00001000090E06800990161E06800690090FA
:1001F000761CDB48864205D2009810F00100C0B2A0
:100200000028F2D1032000F01EFE2800C0B276BD07
:10021000F0B504000020E578002D1BD10025002654
:100220009BB213F1030C5FF0040E9CFBFEFC6546D1
:10023000D2B214EB820CDCF8D0C067465FF0000C41
:100240006646AE4206D2D1F800C0C7F800C0761CA0
:10025000091DF6E7C0B2F0BD70B40300080000212C
:1002600092B2D41C042594FBF5F4D3F8D0500026A8
:100270003100A14204D22E680660491C001DF8E737
:1002800070BC704770B40200002400200025D570B7
:100290000125957040259580C9B201290ED15FF0E6
:1002A000A0452C000125D572082515700425557030
:1002B0004FF4A075D580022515720DE0C9B2002952
:1002C0000AD1A84D2C000025D5720C2515700625E5
:1002D00055704FF4A065D580D46014F500651561A4
:1002E00000252B005578AB420FD212EB830514EB9F
:1002F000431616F51066AE6112EB830514EB431638
:1003000016F530666E655B1CECE714F5806555618B
:1003100014F58865C2F8CC5000252B001578AB4247
:1003200009D212EB830514EB431616F5A066C5F847
:1003300090605B1CF2E700252B001578AB420BD2D6
:1003400012EB83054FF4805606FB034616F58056E4
:10035000C5F8D0605B1CF0E714F56065C2F80C517D
:10036000C0B270BC70472DE9F8430400002500209E
:1003700006000020070000208146207A01282FD1A6
:10038000E068806B070037F48037607A002801D07E
:1003900057F48017E068876300200600E068C068B3
:1003A000060036F0400636F4800656F0100636F0A9
:1003B000080636F0800636F4003636F40026E0688B
:1003C000C6602000FFF7F1FEE078012853D1052038
:1003D00060F3440959F02009E068C0F808904AE049
:1003E000E068C068060056F04006E068C66020007D
:1003F000FFF7DBFE0020070057F48037207A032840
:1004000001D157F4003757F4802757F4002757F4E9
:100410000017607A002801D057F48017E0688763DE
:10042000142000F01CFDE068C0680600207A032854
:1004300001D156F48036E068C660207A03281AD1CC
:10044000E068006B8046012060F39B6838F4000888
:1004500058F080582D2060F31648E068C0F83080CE
:10046000C82000F0FCFC58F40008E068C0F83080B8
:10047000C82000F0F4FCE07801280AD1E068806828
:100480008146052060F3440959F02009E068C0F86E
:1004900008902800C0B2BDE8F28310B4010000202B
:1004A00000231A0052F00102CB689B681343CC680A
:1004B000A360C0B210BC704710B40100002000233C
:1004C0001A0052F00102CB689B689343CC68A3608A
:1004D000C0B210BC7047F8B504000D00002600271C
:1004E00000200090009850F020000090009865F3E4
:1004F0008A100090E06800990161E068006900904E
:100500007F1C1748874204D20098C0F34010C007F0
:10051000F3D4032000F097FC3000C0B2F2BD70B5F8
:1005200082B004000025002600200090009850F0C2
:1005300010000090E06800990161E0680069009097
:10054000761C0748864204D20098C0F30010C0070A
:10055000F3D4032000F077FC2800C0B276BD000081
:10056000410D030000000440F8B504000D00002612
:10057000E068C068070037F0005737F08047EDB2F9
:10058000012D02D157F0005704E0EDB2002D01D14A
:1005900057F08047E068C760322000F060FC300010
:1005A000C0B2F2BDC068406910F00100704710B5DC
:1005B00004002000FFF7F6FF012801D0012000E031
:1005C0000020C0B210BD01000020CA6852691000AE
:1005D000CA6892691040704703691B681A00C9B263
:1005E00061F3010203691A6070472DE9F84F0400B6
:1005F00000208DF800000020824600200700002027
:1006000080460020814600200500D4F80C0100211E
:10061000016020690068070037F4C057206907604F
:10062000E07A01282CD103212000FFF7D5FFE068F4
:1006300080214162402060F31F48802060F30F0852
:10064000E068C0F8288018EB184060F30F0980209C
:1006500060F31F49E068C0F8049119EB194060F39A
:100660000F091FFA89F9E068C0F8089119EB1940E1
:1006700080B250F000091FFA89F9E068C0F80C91C7
:1006800010212000FFF727FF2000FFF748FF206917
:100690000021016120690021416120695FF0FF3183
:1006A000816120690021C161002083466078834513
:1006B00022D214EB8B00806900688246BAF1000FE9
:1006C00006D5002082465AF0804A5AF0006A01E0BE
:1006D0000020824614EB8B008069C0F800A014EB68
:1006E0008B0080690021016114EB8B008069FF2180
:1006F00081601BF1010BD9E70020834660788345B8
:1007000020D214EB8B01496D09680800002806D53A
:100710000021080050F0804050F0006001E000210E
:10072000080014EB8B01496D086014EB8B01496DD7
:1007300000220A6114EB8B01496DFF228A601BF1D4
:10074000010BDBE7002005004FF4807005432069B2
:100750000069A843284321690861E07801280FD186
:100760000020060056F0010656F00206402060F315
:100770008A0656F48036402060F3594620690663A5
:10078000200000F004F89DF80000BDE8F28F70B57D
:100790000400002500200600E06800218161E06877
:1007A0005FF0FF3141612000FFF7EEFCE0780028A8
:1007B00001D156F0100656F4006656F4805656F4F1
:1007C000005656F4802656F4002656F0080656F4D5
:1007D000801656F40016E0688069B0433043E16843
:1007E00088612800C0B270BD010000200B699B68C1
:1007F0001A00530813F00303002B05D0022B09D075
:1008000005D3032B03D007E00323180004E00223E1
:10081000180001E001231800C0B2704770B4010055
:10082000002000252C000D69AD682A008D692D6817
:100830002B00550815F00305002D04D0022D05D01E
:1008400001D3032D05D1DB0ADB0202E0032565F3AA
:100850000A038D692B604FF480752C430D696D6818
:10086000A54325430E697560C0B270BC7047F0B4F3
:100870000200002000263300002634004E78012EAE
:100880000BD10E7812EB8606B6693500012691F978
:100890000070BE4066F30F040AE00E7812EB860685
:1008A000766D3500012691F90070BE4066F31F4455
:1008B0002E683300C3F3C036F6070DD48E6866F396
:1008C0000A03CE7866F39343CE8866F3995353F0C8
:1008D000805353F400432B601669F6692643176969
:1008E000FE61C0B2F0BC7047F0B4020000200026E8
:1008F0003300002634004E78012E0BD10E7812EB17
:100900008606B6693500012691F90070BE4066F38F
:100910000F040AE00E7812EB8606766D350001268C
:1009200091F90070BE4066F31F4433F400432B601E
:100930001669F669A6431769FE61C0B2F0BC70473C
:100940002DE9F04704000D0000265FF0000A0020AA
:10095000070000208046687801286BD1287814EBC6
:100960008000806900680700287814EB80008069A7
:10097000006980466869002807D15FEAD8485FEAC5
:10098000C848012060F3DC4811E0686960F3120890
:100990006869A9680818401EA968B0FBF1F060F307
:1009A000DC48E878012802D1012060F35E782878DD
:1009B00014EB80008069C0F81080E078012806D12F
:1009C000287814EB800080692969416110E0E8789B
:1009D00001280DD0686900280AD0012095F900107F
:1009E000884082462069406B5AEA000021694863CA
:1009F000E87801280AD12069806881465FEAC950F9
:100A000002D457F0005701E057F0805757F0806745
:100A100057F00047287814EB800080690760E87879
:100A200001284FD16B699BB22A78E9682000FFF753
:100A3000EFFB47E0287814EB8000406D006807006A
:100A4000287814EB8000406D0069804668690028B2
:100A500006D1A86860F31208012060F3DC480EE0BC
:100A60006869A9680818401EA968B0FBF1F060F336
:100A7000DC48C8F3C940A968484360F312082878E5
:100A800014EB8000406DC0F81080E078012805D19B
:100A9000287814EB8000406D29694161E8780128CD
:100AA00007D16879002802D057F0005701E057F0CD
:100AB000805757F0806757F00047287814EB800084
:100AC000406D07603000C0B2BDE8F087FCB40200A2
:100AD0000020002500263300002600964E78012EC7
:100AE00049D19669340026683300266900964E691C
:100AF000002E09D1009EF609F60100960126009FFE
:100B000066F3D447009715E08E684F69BE4207D25E
:100B10008E684E618E68009F66F30607009704E0BA
:100B20004E69009F66F3060700970126009F66F353
:100B3000D4470097009E2661D678012E05D10E7805
:100B400012EB8606B6690F69776153F0806353F044
:100B500000432360D678002E4BD14E69002E48D03A
:100B6000012691F90070BE4035431669766B2E431D
:100B700017697E633DE00E7812EB8606766D366867
:100B800033000E7812EB8606766D366900964E6954
:100B9000002E0AD18E68009F66F306070097012693
:100BA000009F66F3D44700970BE08E684E618E6815
:100BB000009F66F3060700970126009F66F3D4475F
:100BC00000970E7812EB8606766D009F3761D67817
:100BD000012E05D10E7812EB8606766D0F697761CE
:100BE00053F0806353F000430E7812EB8606766D67
:100BF0003360C0B2F6BC704730B40200002000255C
:100C00002C004D78012D0ED10D7812EB8505AD69C4
:100C10002B001D682C00002C01D554F0804454F4A6
:100C200000141C6009E00D7812EB85056D6D2B003A
:100C30001D682C0054F400141C60C0B230BC704716
:100C400030B40200002000252C004D78012D05D184
:100C50000D7812EB8505AD692B0004E00D7812EBE1
:100C600085056D6D2B001D682C0034F40014CD78C3
:100C7000032D02D0CD78022D01D154F080541C6098
:100C8000C0B230BC704701000A69926910000A695D
:100C9000D2691040000C70470200C9B212EB810308
:100CA0005B6D9B68180013695B6918407047010011
:100CB0000A69926910000A69D269104080B27047CF
:100CC00082B000210091009951F040410091012132
:100CD000009A61F3D44200921821009A61F306024F
:100CE0000092416D009A0A61C17801290FD100225A
:100CF0001100426D00F2C8535361426D1268110039
:100D000051F000415FF080221100426D116002B08D
:100D10007047817A002911D003699B68190011F08E
:100D20000103DBB2002B09D0D0F80C311A0032F0ED
:100D3000020252085200D0F80C311A60704710B409
:100D400050F8041B81B102681218001D50F8043BD2
:100D5000DC0744BFA9F10104E31852F8044B43F83F
:100D6000044B091FF9D1EBE710BC70471CB5040018
:100D70000121012000F0FCF84FF4D850009003202E
:100D80008DF8050002208DF8040000208DF8060083
:100D900000208DF8070000A91E4800F037F90A224C
:100DA00008211C4800F094F90A220921194800F092
:100DB0008FF90A220B21174800F08AF90A220C2128
:100DC000144800F085F94FF48060009001208DF800
:100DD000060001208DF8070003208DF8050000A90A
:100DE0000C4800F013F90A220A210A4800F070F9B1
:100DF00001214FF4804000F0D9F80121802000F05B
:100E0000C6F801215FF0805000F0DFF8012000F00B
:100E1000E1F913BD0000024010B582B004004FF4A8
:100E2000C06000F0E5F943208DF8000001208DF846
:100E3000010003208DF8020001208DF8030000A8B6
:100E400000F0DBF913BD0021782202FB00F207233A
:100E5000B2FBF3F2491C8A4200D3FBE7704710B59E
:100E600004004FF47A7000FB04F0FFF7ECFF10BDB4
:100E7000F0B4002100220023022400250226DFF81E
:100E800068713F6817F00C0739000F00002F04D07D
:100E9000042F06D0082F08D03CE0DFF8547107601B
:100EA0003BE0DFF85071076037E0DFF840713F68E2
:100EB000C7F380573D00DFF834713F6817F03F07F4
:100EC0003E00002D0DD0DFF82C71B7FBF6F7DFF8F0
:100ED0001CC1DCF800C0CCF3881C0CFB07F73B00FE
:100EE0000CE0DFF80C71B7FBF6F7DFF800C1DCF8B7
:100EF00000C0CCF3881C0CFB07F73B00DFF8EC705C
:100F00003F68C7F301477F1C7F003C00B3FBF4F749
:100F1000076002E0DFF8D8700760DFF8CC703F6848
:100F200017F0F00739000909DFF8CC70CF5D3A00FF
:100F30000768D7404760DFF8B0703F6817F4E057A4
:100F40003900890ADFF8B070CF5D3A004768D740B2
:100F50008760254F3F6817F460473900490BDFF879
:100F60009870CF5D3A004768D740C760F0BC7047C3
:100F7000C9B2002905D0214A126802431F4B1A60EA
:100F800004E01E4A126882431C4B1A607047C9B2C3
:100F9000002905D01A4A12680243194B1A6004E06E
:100FA000174A12688243164B1A607047C9B200296B
:100FB00005D0144A12680243124B1A6004E0114A29
:100FC000126882430F4B1A607047C9B2002905D0DE
:100FD0000D4A126802430C4B1A6004E00A4A126878
:100FE0008243094B1A6070470838024004380240B7
:100FF0000024F40000127A0024010020303802405E
:10100000343802404438024020380240F0B4002214
:101010000023002400252A00102A4AD201259540E9
:101020002B000D681D402C009C4240D10568032612
:101030001700FFB27F00BE40B543056005680E791A
:101040001700FFB27F00BE40354305600D79012DCA
:1010500002D00D79022D1AD1856803261700FFB240
:101060007F00BE40B543856085684E791700FFB2AA
:101070007F00BE4035438560456801269640B543F4
:10108000456045688E799640B6B235434560C5687F
:1010900003261700FFB27F00BE40B543C560C56898
:1010A000CE791700FFB27F00BE403543C560521CA9
:1010B000B2E7F0BC70470200002013699BB20B42FC
:1010C00002D00123180001E000231800C0B27047CD
:1010D000F0B400230024D2B211F00705EDB2AD0048
:1010E00012FA05F52B0089B2CD1010EB850589B2F7
:1010F000CE1010EB8606366A0F2711F0070C5FFA48
:101100008CFC5FEA8C0C17FA0CF7BE432E6289B296
:10111000CD1010EB85052D6A1D432C0089B2CD1032
:1011200010EB85052C62F0BC704750F8041B61B1D0
:1011300050F8042BD30744BFA9F101039A180023E8
:1011400042F8043B091FFAD1EFE770470021234A18
:1011500011008279002A36D0204A126803689A4327
:101160001E4B1A601E4A126803689A431C4B1A6091
:10117000027989180A6803681A430A60194A1268D2
:1011800003689A43174B1A60174A126803689A4318
:10119000154B1A604279102A0CD1124A1268036862
:1011A0001A43104B1A60104A126803681A430E4B18
:1011B0001A600EE0094A1100427989180A6803682A
:1011C0001A430A6005E0027989180A6803689A439D
:1011D0000A6070470549086070470000003C014004
:1011E000043C0140083C01400C3C0140143C0140DF
:1011F0001C4901431C4A11607047F0B400230021D0
:101200000F22C478002C21D0174C246814F4E06419
:10121000D4F5E064240A2300D3F104042100D2B2FF
:101220001A4144788C4023008478144023431B01E6
:1012300004780E4D6355047864110D4D012607782E
:1012400017F01F07BE4045F8246009E004786411D8
:10125000084D0126077817F01F07BE4045F82460A7
:10126000F0BC70470000FA050CED00E000E400E07F
:1012700000E100E080E100E070B5040000262000FD
:10128000FFF795F9002869D02000FFF79CF90500C9
:10129000002D01D1002062E0C5F3C040C00704D595
:1012A000200000F059F930430600C5F38040C00724
:1012B00004D5200000F0B1F830430600C5F340002B
:1012C000C00705D50021080050F00200E168486120
:1012D000002D04D5200000F043F830430600C5F38C
:1012E000C020C00704D5200000F060F8304306009D
:1012F000C5F3C000C00704D5200000F0A9F93043B1
:101300000600C5F30010C00704D5200000F0AFF9B7
:1013100030430600C5F30030C00704D5200000F0BC
:1013200048FA30430600C5F34030C00704D520001A
:1013300000F0A8FA30430600C5F30050C00704D5FA
:10134000200000F0C6FA30430600C5F34050C00745
:1013500004D5200000F0CCFA30430600300070BD08
:10136000F8B50400A07A002809D0D4F80C010600D2
:1013700036F0020676087600D4F80C0106600020EC
:10138000070057F0010720694068B84321694860A9
:101390002000DFF87C15096889698847002005006E
:1013A00055F00045E06845610120F2BDF8B5040044
:1013B0002000DFF85C150968496988472069806862
:1013C00007000020050055F40065E0684561A07A3B
:1013D000002820D017F00100C0B200281BD0002048
:1013E000060056F00106D4F80C0100683043D4F82A
:1013F0000C11086056F00206D4F80C010068304366
:10140000D4F80C110860DFF80C05006850F00600F5
:10141000DFF8001508600120F2BD2DE9F04104005D
:101420000027002005002000FFF741FC0600002EE9
:1014300000F08F803000C00740F188803900C9B2C9
:10144000200000F069FA050015F00100C0B2002884
:1014500024D00120B84080462069406B30EA080063
:10146000216948630020050055F0010514EB870051
:10147000806985603900C9B22000DFF894241268C1
:1014800052689047E078012808D1002F06D194F8DF
:101490001101042802D12000FFF712FCC5F38000DF
:1014A000C00707D50020050055F0040514EB8700A0
:1014B00080698560C5F3C000C00707D5002005001E
:1014C00055F0080514EB870080698560C5F30010AE
:1014D000C00707D50020050055F0100514EB870064
:1014E00080698560C5F34010C00707D5002005005E
:1014F00055F0200514EB870080698560C5F38010E6
:10150000C00707D50020050055F0400514EB870003
:1015100080698560C5F34000C00707D5002005003D
:1015200055F0020514EB870080698560C5F3C01093
:10153000C0070BD53900200000F0EBF800200500B3
:1015400055F0800514EB8700806985607F1C760864
:101550006DE70120BDE8F0812DE9F04104005FF066
:101560000008002006002000FFF78DFB0500002D7D
:101570006BD02800C00764D54146C9B22000FFF7F0
:101580008BFB060016F00100C0B2002830D000200E
:10159000060056F0010614EB8800406D8660E07886
:1015A000012811D114EB8800406D00690700282044
:1015B00000FB0840D0F878037903490B401A282132
:1015C00001FB0841C1F888034146C9B22000D04A56
:1015D000126812689047E078012809D1B8F1000F2D
:1015E00006D194F81101052802D12000FFF768FB0D
:1015F000C6F34000C00707D50020060056F00206DB
:1016000014EB8800406D8660C6F38000C00707D5E4
:101610000020060056F0040614EB8800406D86603A
:10162000C6F3C000C0070CD52000B9490968896815
:1016300088470020060056F0080614EB8800406D2D
:10164000866018F101086D0891E70120BDE8F0817E
:1016500038B504002000AE490968C96888470020F1
:10166000050055F00805E0684561012032BDF8B578
:1016700004000020070057F01007E0688069B843B5
:10168000E1688861E068006A050015F00F00282114
:1016900001FB004000F270300600680C10F00F00F3
:1016A000012808D0022807D003281DD004281CD008
:1016B00006281BD026E025E028094005400D80B211
:1016C000002810D0C5F30A1292B2F1682000FEF78C
:1016D000C3FDC5F30A10F1684018F060B069C5F3A6
:1016E0000A110818B0610DE00CE00BE0082214F5B7
:1016F000B9612000FEF7B0FDB069C5F30A11081802
:10170000B061FFE7E06880693843E16888610120E3
:10171000F2BD2DE9F84304000D005FF00008002041
:101720000600282000FB054000F218100700786929
:10173000B969401A8046B868404501D2B868804609
:1017400018F103008008814614EB850080698069E8
:101750000600B0B2814529D2B8697969884225D29C
:101760007869002822D07869B969401A8046B8683B
:10177000404501D2B868804618F1030080088146D0
:1017800043469BB22A00D2B2F9682000FEF740FD22
:10179000F86818EB0000F860B86918EB0000B86151
:1017A00014EB8500806980690600D2E70120BDE85E
:1017B000F2832DE9F84F0400002081460020050047
:1017C00000200600002007000020804600208246FE
:1017D00059F001092069406830EA09002169486030
:1017E00000212000FEF777FE0020834660788345C5
:1017F0000CD214EB8B008069FF21816014EB8B000D
:10180000406DFF2181601BF1010BEFE720695FF064
:10181000FF318161012060F30F05012060F31F4556
:101820002069C56156F0080656F0010656F0040618
:1018300056F002062069466157F0010757F0080785
:1018400057F0020757F0040757F020072069076197
:1018500020690068804638F4FE682069C0F800807E
:101860002000FFF72DFA002082465AF4805AE068E3
:10187000C0F814A02000264909680969884701209A
:10188000BDE8F28F70B504002000FEF7C7FFE068E6
:10189000C06806002000FEF7A7FF032808D100203B
:1018A000A0704FF40070A080092060F38D2606E040
:1018B0000120A0704020A080052060F38D26E06804
:1018C000C6600020050055F40055E0684561012020
:1018D00070BD38B504000020050020000C490968DF
:1018E000C969884755F48015E0684561012032BD1B
:1018F00038B5040000200500200005490968096A80
:10190000884755F40015E0684561012032BD0000AC
:101910003C01002010ED00E030B4020015692D6993
:101920002C0015696D6B2B0033FA01F515F00105DC
:1019300054EAC514C9B212EB8105AD69AD68254002
:10194000280030BC7047010070B504000D0000266F
:101950006878002820D0012828D0032821D0052825
:101960000BD0062804D0082811D009280AD022E07C
:101970002900200000F003F921E02900200000F0F8
:1019800099F91CE02900200000F0C4F917E02900B3
:10199000200000F022FA12E02900200000F041FAB5
:1019A0000DE02900200000F063FA08E02900200083
:1019B00000F0A3FA03E02900200000F0DDFA300077
:1019C000C0B270BD70B504000D00002694F812017D
:1019D000032818D1A888C0B202280FD229002000FD
:1019E000D4F8E02592689047E88800280AD1F6B23A
:1019F000002E07D1200000F03DFB03E0290020006D
:101A000000F0BAFA03E02900200000F0B5FA300037
:101A1000C0B270BDF8B504000D000027A88806000C
:101A20006878002864D0012832D0032840F0A480D0
:101A300094F81201022802D003280CD023E0F6B259
:101A4000002E07D0F6B2802E04D03100C9B220009B
:101A500000F04AFC1BE0688800280AD1F6B2002E8C
:101A600007D0F6B2802E04D03100C9B2200000F0B9
:101A70003BFC29002000D4F8E02592689047200024
:101A800000F0F8FA03E02900200000F075FA73E096
:101A900094F81201022802D003280CD023E0F6B2F9
:101AA000002E07D0F6B2802E04D03100C9B220003B
:101AB00000F01AFC1BE06888002813D1F6B2002E53
:101AC0000DD0F6B2802E0AD03100C9B2200000F04D
:101AD00033FC29002000D4F8E025926890472000CC
:101AE00000F0C8FA03E02900200000F045FA43E0C6
:101AF00094F81201022802D003280CD037E0F6B285
:101B0000002E07D0F6B2802E04D03100C9B22000DA
:101B100000F0EAFB2FE0F6B2300611D5F6B216F06F
:101B20007F00282101FB004090F81A01002803D013
:101B3000CB480121016014E0C9480021016010E098
:101B400030060ED4F6B2282000FB064090F872034F
:101B5000002803D0C2480121016002E0C0480021F2
:101B600001600222BE49200000F04EFA03E0290085
:101B7000200000F001FAFFE73800C0B2F2BD70B5F6
:101B800082B004000D00688880B2000AC0B201284B
:101B900008D0022818D0032822D0062862D00728AF
:101BA00065D069E000A9A078D4F8E82512689047CC
:101BB0000600E888402803D094F81201012802D1D9
:101BC0000820ADF800005CE000A9A078D4F8E0257A
:101BD000926A9047060002207070C4F8EC6550E0ED
:101BE000A878002808D0022816D00DD3042823D0C6
:101BF0001AD3052828D02FE000A9A078D4F8E8252A
:101C00005268904706002CE000A9A078D4F8E82597
:101C100092689047060024E000A9A078D4F8E8254F
:101C2000D268904706001CE000A9A078D4F8E82507
:101C300012699047060014E000A9A078D4F8E825BE
:101C40005269904706000CE000A9A078D4F8E82576
:101C500092699047060004E02900200000F08CF90A
:101C600027E00EE02900200000F086F921E029009D
:101C7000200000F081F91CE02900200000F07CF930
:101C800017E0BDF80000002813D0E888002810D025
:101C9000BDF80000E988884202D2BDF8000000E0EB
:101CA000E888ADF80000BDF800203100200000F009
:101CB000ABF973BD70B504000D00A888002824D1CD
:101CC000E888002821D1A87810F07F00060094F859
:101CD0001201032804D12900200000F04DF918E07A
:101CE00084F813613100C9B2200000F05FFB2000CE
:101CF00000F0C0F9F6B2002E03D0022084F81201E1
:101D000007E0012084F8120103E02900200000F020
:101D100033F970BD38B504000D006888514908706A
:101D200050480078022804D32900200000F024F94C
:101D300052E094F81201022802D0032818D047E09C
:101D40004848007800280FD04648007884F81001F1
:101D5000032084F8120143480178200000F069FC58
:101D6000200000F087F902E0200000F083F933E062
:101D70003C48007800280FD1022084F8120139482D
:101D8000007884F8100137480178200000F061FCE9
:101D9000200000F06FF91AE03248007894F8101132
:101DA000884211D094F81011200000F052FC2D4808
:101DB000007884F810012B480178200000F039FCED
:101DC000200000F057F902E0200000F053F903E092
:101DD0002900200000F0D0F831BD38B504000D0016
:101DE000E888012804D02900200000F0C5F817E099
:101DF00094F81201022802D0032806D00CE0012238
:101E00001949200000F000F90AE0012204F2101143
:101E1000200000F0F9F803E02900200000F0ACF801
:101E200031BD38B504000D0094F81201801E012860
:101E300010D8D4F81401002803D00C480321016005
:101E400002E00A480121016001220849200000F057
:101E5000DBF803E02900200000F08EF831BD00001F
:101E6000900700209F07002094070020980700207B
:101E7000F8B504000D000027688801280CD1012066
:101E8000C4F8140129002000D4F8E0259268904796
:101E9000200000F0EFF82FE0688802282CD1287984
:101EA000000629D1206940680600A88880B2000A8F
:101EB0000700FFB2012F07D019D3032F0CD007D38F
:101EC000052F11D00CD312E0012060F306160EE0AE
:101ED000022060F306160AE0032060F3061606E00F
:101EE000042060F3061602E0052060F30616206960
:101EF0004660200000F0BEF8F1BD38B504000D00CA
:101F000094F81201801E01280FD8688801280BD18F
:101F10000020C4F8140129002000D4F8E0259268BC
:101F20009047200000F0A6F803E02900200000F010
:101F300023F831BD90F8C8250A7090F8C9254A7079
:101F400090F8CA2590F8CB351B029A184A8090F871
:101F5000CC2590F8CD351B029A188A8090F8CE25B2
:101F600090F8CF351B029A18CA80CA88C0F83C2165
:101F7000012280F81121704738B504000D0028783F
:101F8000000604D58021200000F0AEF90BE0E888BF
:101F9000002804D18021200000F0A6F903E00021F0
:101FA000200000F0A1F92000FEF78AFE31BDF8B54F
:101FB00004000D0016000027002C1AD0200000F0AD
:101FC00019F84000801C3080FFB2308878557F1CA3
:101FD000FFB2032078557F1C2078002809D0FFB27B
:101FE00020787855641C7F1CFFB2002078557F1C38
:101FF000F2E7F1BD010000200A78002A02D0401C5F
:10200000491CF9E7C0B27047F8B504000D0016008E
:102010000027B6B2C4F83861B6B2C4F83461022001
:1020200084F81101B6B233002A000021200000F02C
:102030002CF93800C0B2F2BDF8B504000D0016004E
:102040000027B6B233002A000021200000F01DF95D
:102050003800C0B2F2BDF8B504000D00160000272C
:1020600033009BB22A000021200000F0DBF838008A
:10207000C0B2F2BD38B504000025042084F8110177
:10208000002300220021200000F0FFF82000FEF7CE
:1020900017FE2800C0B232BD38B504000025052067
:1020A00084F81101002300220021200000F0BAF87A
:1020B0002000FEF705FE2800C0B232BDF8B50400CE
:1020C0000D002900C9B22000FEF7DCF8012084F8D9
:1020D0001201002084F81301002006006078864277
:1020E00013D2282000FB064000F218100700012040
:1020F00078703E70FE800020F8704020B8600020AC
:10210000F86000207861761CE8E70020060060781F
:10211000864213D2282000FB064000F270300700F0
:10212000002078703E70FE800020F8704020B8607B
:102130000020F86000207861761CE8E72000FEF7B8
:10214000BBF92000FEF70FF900212000FEF70CFA82
:102150002000FEF74AFA2000FEF79FF9F1BD2DE9B5
:10216000F04104000D0016001F00EDB2280609D54D
:10217000EDB215F07F00282101FB004000F218109D
:10218000804608E0EDB215F07F00282101FB0040F9
:1021900000F27030804615F07F0088F80000C5F32B
:1021A000C01088F80100B6B2C8F8086088F803705B
:1021B00098F80100002803D098F80000A8F806005D
:1021C000FFB2022F02D1002088F80400414620000F
:1021D000FEF74DFB0020BDE8F08170B504000D0056
:1021E000EDB2280609D5EDB215F07F00282101FBDC
:1021F000004000F21810060008E0EDB215F07F0074
:10220000282101FB004000F27030060015F07F002D
:102210003070C5F3C010707031002000FEF764FB11
:10222000002070BD2DE9F04104000D0016001F00D4
:10223000EDB215F07F00282101FB004000F2703064
:102240008046C8F80C60BFB2C8F814700020C8F807
:102250001800002088F8010015F07F0088F80000C1
:10226000E078012801D1C8F8106098F80000002833
:1022700004D141462000FEF729FC03E0414620003E
:10228000FEF75EFB0020BDE8F0812DE9F04104007F
:102290000D0016001F00EDB215F07F00282101FB94
:1022A000004000F218108046012088F8010015F067
:1022B0007F0088F80000C8F80C60C8F810600020A3
:1022C000C8F81800C8F8147098F80000002804D165
:1022D00041462000FEF7FAFB03E041462000FEF7EE
:1022E0002FFB0020BDE8F08170B504000D00EDB2B9
:1022F000280609D5EDB215F07F00282101FB00402A
:1023000000F21810060006E0EDB2282000FB0540A0
:1023100000F2703006000120B07015F07F003070C0
:10232000C5F3C010C0B210F0010070703100200081
:10233000FEF762FC002070BD70B504000D00EDB228
:10234000280609D5EDB215F07F00282101FB0040D9
:1023500000F21810060006E0EDB2282000FB054050
:1023600000F2703006000020B07015F07F00307071
:10237000C5F3C010C0B210F0010070703100200031
:10238000FEF75EFC002070BD38B504000D00EDB214
:10239000280606D5EDB215F07F012000FEF79BF868
:1023A00002E02000FEF7BBF8002032BD10B400238D
:1023B0001A00C9B261F30A1203691B681343046966
:1023C000236010BC70472DE9F04104000D00160099
:1023D0001F00DDF818802000FEF7C8FC200000F088
:1023E00014F8C4F8E075C4F8E485C4F8E865290079
:1023F000C9B22000FFF762FED4F8E4050068804708
:102400002000FEF709FDBDE8F081010000207047C3
:102410001CB5040000A92000FFF78CFD9DF800000A
:1024200010F01F00C0B2002803D002280BD005D343
:102430000EE000A92000FFF787FA10E000A92000B5
:10244000FFF7C0FA0BE000A92000FFF7E3FA06E06F
:102450009DF8000010F080012000FFF745FF0020EC
:1024600016BD70B504000D00EDB2002D34D104F29C
:102470007030060094F8110103283DD1B068F1696D
:10248000884217D2F069B168401AF061E0780128FB
:1024900003D1B068F1684018F060F069B168884213
:1024A00001D2F26900E0B26892B2F1682000FFF751
:1024B000D2FD21E0D4F8E0050069002808D094F8A6
:1024C0001201032804D12000D4F8E01509698847D7
:1024D0002000FFF7CFFD0FE0D4F8E0058069002869
:1024E0000AD094F81201032806D12900C9B22000AD
:1024F000D4F8E02592699047002070BD70B50400C3
:102500000D00EDB2002D46D104F21810060094F82B
:10251000110102284FD1B068F169884211D2F069E7
:10252000B168401AF061E078012803D1B068F16821
:102530004018F060F26992B2F1682000FFF77CFD6C
:1025400039E0306AB168B0FBF1F201FB12000028FB
:102550000FD1306AB16888420BD3306A716A884201
:1025600007D2002200212000FFF766FD00207062E4
:1025700021E0D4F8E005C068002808D094F81201E2
:10258000032804D12000D4F8E015C968884720004A
:10259000FFF782FD0FE0D4F8E005406900280AD07B
:1025A00094F81201032806D12900C9B22000D4F8FA
:1025B000E02552699047002070BD10B5040000234B
:1025C000402200212000FFF7CAFD00234022802185
:1025D0002000FFF7C4FD012084F81201A078D4F890
:1025E000E41549688847002010BD10B50400D4F8F0
:1025F000E40500698047032084F81201002010BD23
:1026000010B50400042084F81201D4F8E405C06871
:102610008047002010BD10B50400D4F8E005C06963
:10262000002804D02000D4F8E015C96988470020AC
:1026300010BD38B504000D002900C9B22000D4F83F
:10264000E02512689047D4F8E405806880470020B0
:1026500032BD38B504000D002900C9B22000D4F8FD
:10266000E02552689047002032BD10B504002000DC
:10267000D4F8E015096A8847002010BD10B50400A1
:102680002000D4F8E015496A8847002010BD0100F9
:1026900080B54E48006850F001004C4908604C4835
:1026A00000210160494800684A49084047490860DC
:1026B00049484A4901604548006830F48020434950
:1026C000086047480021016000F005F845485FF0C8
:1026D0000061016001BD82B00020019000200090E7
:1026E0003A48006850F4803038490860374800683C
:1026F00010F4003000900198401C019000980028D0
:1027000003D10198B0F5A06FF0D130480068800384
:1027100002D50120009001E00020009000980128DF
:102720003ED13148006850F080502F4908602F4852
:10273000006850F480402D49086025482449096804
:1027400001602348006850F4004021490860204897
:10275000006850F4A0501E4908601F4824490160D9
:102760001A48006850F080701849086017480068DF
:102770008001FBD51F4840F20561016014480068E4
:1027800080088000124908601148006850F002007B
:102790000F4908600E48006810F00C000828F9D1B5
:1027A0000B48006830F400000949086012481349DA
:1027B00001600648006850F08060044908600348E2
:1027C00000680001FBD502B07047000000380240ED
:1027D00008380240FFFFF6FE0438024010300024A3
:1027E0000C38024008ED00E0403802400070004024
:1027F00008544007003C024084380240003000503A
:1028000038B504000D000323042281212000FFF7C6
:10281000A6FC0323042201212000FFF7A0FC0020D6
:1028200032BD38B504000D0081212000FFF7D5FC32
:1028300001212000FFF7D1FC002032BDF8B50400D3
:102840000D0000260027287810F06000C0B2002894
:1028500028D020285BD16878022816D0032807D01A
:102860000A280BD00B2816D1A8783549086018E043
:10287000012233492000FFF7C7FB12E0688880B2CD
:10288000000AC0B22F4908600BE001222D49200048
:10289000FFF7BAFB05E029002000FFF76DFB0220DF
:1028A00036E034E06878062804D00A2826D00B28C1
:1028B0002AD02CE0688880B2000AC0B2222808D151
:1028C000E8884B2801D34A2600E0EE881E4807001E
:1028D0000DE0688880B2000AC0B2212807D11B48E9
:1028E0000700E8880A2801D3092600E0EE883200B4
:1028F00092B239002000FFF787FB08E0012214495B
:102900002000FFF781FB02E0A87811490860002051
:10291000F2BD70B504000D00160094F812010328F2
:1029200006D1B6B233002A0081212000FFF7ADFCAA
:10293000002070BD02002220088006487047000079
:10294000880700208C07002000000020B60000202F
:1029500084070020A400002038B504000D00812168
:102960002000FFF711FD002032BD00001CB504005F
:102970000121E4B2474850F82400FEF7F9FAE4B226
:10298000454830F81400009001208DF80400002024
:102990008DF8060001208DF8070002208DF8050053
:1029A00000A9E4B23D4850F82400FEF72FFB13BD08
:1029B000C0B23A4951F82010C0B2374A32F810205C
:1029C0000A837047C0B2354951F82010C0B2324A6C
:1029D00032F810204A83704730B585B004000D00EE
:1029E0000121E4B22E4850F82400FEF7C1FA01217B
:1029F0004FF48040FEF7DAFA00208DF81000002036
:102A00008DF81300E4B2274830F81400039003A9AE
:102A1000E4B2254850F82400FEF7F8FAEDB2012D93
:102A200029D1E4B22148215CE4B22148205C00F0C5
:102A300045F8E4B21F4830F81400019000208DF8EA
:102A4000080008208DF8090001208DF80A0001A86F
:102A5000FEF77CFBE4B21848205C8DF800000F20E4
:102A60008DF801000F208DF8020001208DF8030081
:102A700000A8FEF7C2FB05B030BD10B50400E4B2FB
:102A8000084830F81410E4B2074850F82400FEF764
:102A900012FB10BDDC2F0008443000081401002098
:102AA0004C30000846190008340100206B2900084A
:102AB0006A2900088E2600085E2F000830B4002224
:102AC0000F2311F00304E4B2A400A3401A00C9B21A
:102AD0008B100E4C54F823309343C9B28C100B4D1D
:102AE00045F82430C9B28B10084C54F82330C0B2DA
:102AF00011F00304E4B2A40010FA04F42343C9B2B1
:102B00008C10024D45F8243030BC70470838014025
:102B10007047FEE7FEE7FEE7FEE770477047704745
:102B200010B546480078002802D100F0FDF82BE0EF
:102B300000F04DF804006078002802D1A078002849
:102B400004D0042221003E48FFF7E3FE3D48007810
:102B5000401C3C4908703B4800780A2814D10020EA
:102B6000FFF78BFF012806D137486421017003204D
:102B7000FFF71EFF05E03448002101700320FFF736
:102B800021FF30480021017010BD80B52F48012180
:102B900001700120FEF71EFB01BD80B52848807A38
:102BA00000280AD02A48006830F00600284908604A
:102BB000FFF76EFD2248FEF7ACF85FF48020FEF7C9
:102BC00009FB01BD80B51E48FEF756FB01BD21483B
:102BD000002141701F48002181701B4890F90200BC
:102BE00040B210F1020F04DA1A484078C01D1949AA
:102BF0004870154890F9020040B2032804DB1548DC
:102C00004078C01F134948700F4890F9000040B247
:102C100010F1020F04DA0F488078C01D0D4988704A
:102C2000094890F9000040B2032804DB0948807885
:102C3000C01F084988700748704700009C070020A3
:102C4000440100209E070020740700209D070020FB
:102C500010ED00E08007002040B2002808D540B207
:102C600010F00F02354BD2180B0102F8043C03E0C0
:102C700040B2334A0B018354704710B50400B4F1DD
:102C8000807F01D3012010E02002000A401E2D4960
:102C900008600F215FF0FF30FFF7DEFF2A480021B8
:102CA00001602A4807210160002010BD00B585B0F1
:102CB00001210020FFF790FE0020FFF757FE0120C2
:102CC000FFF754FE0220FFF751FE0320FFF74EFEF0
:102CD00000A8FEF7CDF801986421B0FBF1F0FFF7F2
:102CE000CCFF1B48002101701A480021017000A888
:102CF000FEF7BEF801986421B0FBF1F0FFF7BDFFCD
:102D00000120FFF755FE12480121017000F001F883
:102D1000FEE780B510480090104B114A0121114880
:102D2000FFF751FB002002BD0F480068002804D0C7
:102D30000D480068401E0C490860704718ED00E01F
:102D400000E400E014E000E018E000E010E000E043
:102D50009C0700209D070020E40000207800002050
:102D6000C8000020440100207C070020020012203F
:102D700008802E4870470200042008802C487047C5
:102D800038B504000D00E4B2002C05D12A00294911
:102D90002948FFF70CF904E02A0026492748FFF7E5
:102DA00006F9244832BD38B504000D002A00214937
:102DB0002348FFF7FCF81F4832BD38B504000D006A
:102DC000E4B2002C05D12A001A491E48FFF7EFF89B
:102DD00004E02A0017491C48FFF7E9F8154832BDFE
:102DE00038B504000D00E4B2002C05D12A001149C9
:102DF0001648FFF7DCF804E02A000E491348FFF7F5
:102E0000D6F80C4832BD38B504000D00E4B2002CF1
:102E100005D12A0007490E48FFF7C9F804E02A0047
:102E200004490B48FFF7C3F8024832BD00010020F7
:102E30004001002034070020A02F0008B42F000814
:102E4000C82F0008EC2F0008FC2F00082C300008C9
:102E50000C30000840B2002808D540B210F00F0234
:102E6000174BD2180B0102F8043C03E040B2154A9C
:102E70000B018354704710B50400B4F1807F01D377
:102E8000012010E02002000A401E0F4908600F21B7
:102E90005FF0FF30FFF7DEFF0C48002101600C48B7
:102EA00007210160002010BD80B50A480068182184
:102EB000B0FBF1F0FFF7DFFF002800D0FEE701BD17
:102EC00018ED00E000E400E014E000E018E000E0AD
:102ED00010E000E038010020C0B2002802D0012834
:102EE00001D001E000E0FFE770477047704770478E
:102EF0007047704710B5084979441C31074C7C4431
:102F00001A34A14206D0081D0A68511888470146A4
:102F1000A142F8D110BD00BF080000002800000049
:102F20000BE2FFFF5C0600004401002000000000EF
:102F30000FDEFFFF440100008402000000000020BB
:102F4000000000004EF68851CEF20001086840F4FF
:102F5000700008604FF00070E1EE100A7047060044
:102F600000F009F8002801D0FFF7C4FF0020FFF7A8
:102F70009DFE00F002F80120704700F001B800004B
:102F80000746384600F002F8FBE7000080B5C0466F
:102F9000C046024A11001820ABBEFBE72600020023
:102FA0004A6F79737469636B20696E204853206D92
:102FB0006F6465004A6F79737469636B20696E2072
:102FC0004653204D6F64650053544D6963726F65BD
:102FD0006C656374726F6E696373000008000000B3
:102FE0000800000008000000080000003030303009
:102FF000303030303031314200000000303030307D
:103000003030303030313143000000004849442036
:10301000496E74657266616365000000014880470F
:1030200001480047912600083930000848494420EB
:10303000436F6E6669670000C046C046FFF782FFB7
:10304000FFF78EFF0010002000400080010000000C
:10305000FFF75EBDFFF75DBDFFF75CBDFFF75BBD32
:10306000FFF75ABDFFF759BDFFF758BDFFF757BD32
:10307000FFF756BDFFF7FEBFFFF7FEBFFFF7FEBF2E
:10308000FFF7FEBFFFF7FEBFFFF7FEBFFFF77DBDF7
:10309000FFF7FEBFFFF7FEBFFFF7FEBFFFF7FEBF64
:1030A000FFF7FEBFFFF7FEBFFFF7FEBFFFF7FEBF54
:1030B000FFF7FEBFFFF7FEBFFFF7FEBFFFF7FEBF44
:1030C000FFF7FEBFFFF7FEBFFFF7FEBFFFF7FEBF34
:1030D000FFF7FEBFFFF7FEBFFFF7FEBFFFF7FEBF24
:1030E000FFF7FEBFFFF7FEBFFFF7FEBFFFF7FEBF14
:1030F000FFF7FEBFFFF7FEBFFFF7FEBFFFF7FEBF04
:10310000FFF7FEBFFFF7FEBFFFF7FEBFFFF7FEBFF3
:10311000FFF7FEBFFFF7FEBFFFF7FEBFFFF73DBDA6
:10312000FFF7FEBFFFF7FEBFFFF7FEBFFFF7FEBFD3
:10313000FFF7FEBFFFF7FEBFFFF7FEBFFFF7FEBFC3
:10314000FFF7FEBFFFF7FEBFFFF7FEBFFFF7FEBFB3
:10315000FFF7FEBFFFF7FEBFFFF7FEBFFFF7FEBFA3
:10316000FFF7FEBFFFF7FEBFFFF7FEBFFFF7FEBF93
:10317000FFF7FEBFFFF7FEBFFFF7FEBFFFF7FEBF83
:10318000FFF720BDFFF7FEBFFFF7FEBFFFF7FEBF53
:10319000FFF7FEBFFFF7FEBFFFF7FEBFFFF7FEBF63
:1031A000FFF7FEBFFFF7FEBFFFF7FEBFFFF7FEBF53
:1031B000FFF7FEBFFFF7FEBFFFF7FEBF05010902E5
:1031C000A1010901A1000509190129031500250123
:1031D000950375018102950175058101050109308D
:1031E000093109381581257F750895038106C009C5
:1031F0003C05FF09011500250175019502B12275F5
:10320000069501B101C0000063240008FD240008F8
:103210001124000817260008BB2500080126000815
:10322000EB2500086B2600087D2600080000000042
:103230000000000001280008232800083D2800089D
:1032400000000000000000005929000800000000F4
:103250000000000000000000000000003529000808
:1032600009022200010100E032090400000103010B
:103270000200092111010001224A0007058103040F
:10328000000A00006D2D0008772D0008A72D00080A
:10329000812D0008BB2D0008E12D0008072E000835
:1032A000A92E0008D92E0008EB2E0008F12E0008E8
:1032B000F32E0008ED2E0008EF2E00081201000288
:1032C00000000040830410570002010203010000C7
:1032D000000C0240000C0240000C0240000C0240B6
:1032E00000000000010203040102030406070809AC
:1032F00000000240007A030A4C0000200403090485
:040000050800303986
:00000001FF
