:020000040800F2
:10000000D013002085310008D12F0008D32F00081D
:10001000D52F0008D72F0008D92F000800000000B6
:10002000000000000000000000000000DB2F0008BE
:10003000DD2F000800000000DF2F0008E12F00087E
:10004000DD310008E1310008E5310008E931000840
:10005000ED310008F1310008E92F0008F9310008FE
:10006000FD3100080132000805320008093200089D
:100070000D3200081132000815320008193200084C
:100080001D320008213200082532000829320008FC
:100090002D320008313200083532000839320008AC
:1000A0003D3200084132000845320008493200085C
:1000B0004D3200085132000855320008593200080C
:1000C0005D320008613200086532000869320008BC
:1000D0006D3200087132000875320008793200086C
:1000E0007D32000881320008FB2F000889320008A9
:1000F0008D320008913200089532000899320008CC
:100100009D320008A1320008A5320008A93200087B
:10011000AD320008B1320008B5320008B93200082B
:10012000BD320008C1320008C5320008C9320008DB
:10013000CD320008D1320008D5320008D93200088B
:10014000DD320008E1320008E53200082530000801
:10015000ED320008F1320008F5320008F9320008EB
:10016000FD32000801330008053300080933000898
:100170000D33000811330008153300081933000847
:100180001D3300082133000800221100C2685FF00F
:10019000FF335360C2685FF0FF33536151F0004199
:1001A00051F40061C2689161704770B582B004007B
:1001B0000025002600200090032000F044FEE068A7
:1001C00000690090761CDFF89803864201D3002076
:1001D0001DE000980028EFD500200600009850F0A0
:1001E00001000090E06800990161E06800690090FA
:1001F000761CDB48864205D2009810F00100C0B2A0
:100200000028F2D1032000F01EFE2800C0B276BD07
:10021000F0B504000020E578002D1BD10025002654
:100220009BB213F1030C5FF0040E9CFBFEFC6546D1
:10023000D2B214EB820CDCF8D0C067465FF0000C41
:100240006646AE4206D2D1F800C0C7F800C0761CA0
:10025000091DF6E7C0B2F0BD70B40300080000212C
:1002600092B2D41C042594FBF5F4D3F8D0500026A8
:100270003100A14204D22E680660491C001DF8E737
:1002800070BC704770B40200002400200025D570B7
:100290000125957040259580C9B201290ED15FF0E6
:1002A000A0452C000125D572082515700425557030
:1002B0004FF4A075D580022515720DE0C9B2002952
:1002C0000AD1A84D2C000025D5720C2515700625E5
:1002D00055704FF4A065D580D46014F500651561A4
:1002E00000252B005578AB420FD212EB830514EB9F
:1002F000431616F51066AE6112EB830514EB431638
:1003000016F530666E655B1CECE714F5806555618B
:1003100014F58865C2F8CC5000252B001578AB4247
:1003200009D212EB830514EB431616F5A066C5F847
:1003300090605B1CF2E700252B001578AB420BD2D6
:1003400012EB83054FF4805606FB034616F58056E4
:10035000C5F8D0605B1CF0E714F56065C2F80C517D
:10036000C0B270BC70472DE9F8430400002500209E
:1003700006000020070000208146207A01282FD1A6
:10038000E068806B070037F48037607A002801D07E
:1003900057F48017E068876300200600E068C068B3
:1003A000060036F0400636F4800656F0100636F0A9
:1003B000080636F0800636F4003636F40026E0688B
:1003C000C6602000FFF7F1FEE078012853D1052038
:1003D00060F3440959F02009E068C0F808904AE049
:1003E000E068C068060056F04006E068C66020007D
:1003F000FFF7DBFE0020070057F48037207A032840
:1004000001D157F4003757F4802757F4002757F4E9
:100410000017607A002801D057F48017E0688763DE
:10042000142000F01CFDE068C0680600207A032854
:1004300001D156F48036E068C660207A03281AD1CC
:10044000E068006B8046012060F39B6838F4000888
:1004500058F080582D2060F31648E068C0F83080CE
:10046000C82000F0FCFC58F40008E068C0F83080B8
:10047000C82000F0F4FCE07801280AD1E068806828
:100480008146052060F3440959F02009E068C0F86E
:1004900008902800C0B2BDE8F28310B4010000202B
:1004A00000231A0052F00102CB689B681343CC680A
:1004B000A360C0B210BC704710B40100002000233C
:1004C0001A0052F00102CB689B689343CC68A3608A
:1004D000C0B210BC7047F8B504000D00002600271C
:1004E00000200090009850F020000090009865F3E4
:1004F0008A100090E06800990161E068006900904E
:100500007F1C1748874204D20098C0F34010C007F0
:10051000F3D4032000F097FC3000C0B2F2BD70B5F8
:1005200082B004000025002600200090009850F0C2
:1005300010000090E06800990161E0680069009097
:10054000761C0748864204D20098C0F30010C0070A
:10055000F3D4032000F077FC2800C0B276BD000081
:10056000410D030000000440F8B504000D00002612
:10057000E068C068070037F0005737F08047EDB2F9
:10058000012D02D157F0005704E0EDB2002D01D14A
:1005900057F08047E068C760322000F060FC300010
:1005A000C0B2F2BDC068406910F00100704710B5DC
:1005B00004002000FFF7F6FF012801D0012000E031
:1005C0000020C0B210BD01000020CA6852691000AE
:1005D000CA6892691040704703691B681A00C9B263
:1005E00061F3010203691A6070472DE9F84F0400B6
:1005F00000208DF800000020824600200700002027
:1006000080460020814600200500D4F80C0100211E
:10061000016020690068070037F4C057206907604F
:10062000E07A01282CD103212000FFF7D5FFE068F4
:1006300080214162202060F31F48802060F30F0872
:10064000E068C0F8288018EB184060F30F0980209C
:1006500060F31F49E068C0F8049119EB194060F39A
:100660000F09202060F31F49E068C0F8089119EBDA
:10067000194060F30F091FFA89F9E068C0F80C917E
:1006800010212000FFF727FF2000FFF748FF206917
:100690000021016120690021416120695FF0FF3183
:1006A000816120690021C161002083466078834513
:1006B00022D214EB8B00806900688246BAF1000FE9
:1006C00006D5002082465AF0804A5AF0006A01E0BE
:1006D0000020824614EB8B008069C0F800A014EB68
:1006E0008B0080690021016114EB8B008069FF2180
:1006F00081601BF1010BD9E70020834660788345B8
:1007000020D214EB8B01496D09680800002806D53A
:100710000021080050F0804050F0006001E000210E
:10072000080014EB8B01496D086014EB8B01496DD7
:1007300000220A6114EB8B01496DFF228A601BF1D4
:10074000010BDBE7002005004FF4807005432069B2
:100750000069A843284321690861E07801280FD186
:100760000020060056F0010656F00206402060F315
:100770008A0656F48036402060F3594620690663A5
:10078000200000F004F89DF80000BDE8F28F70B57D
:100790000400002500200600E06800218161E06877
:1007A0005FF0FF3141612000FFF7EEFCE0780028A8
:1007B00001D156F0100656F4006656F4805656F4F1
:1007C000005656F4802656F4002656F0080656F4D5
:1007D000801656F40016E0688069B0433043E16843
:1007E00088612800C0B270BD010000200B699B68C1
:1007F0001A00530813F00303002B05D0022B09D075
:1008000005D3032B03D007E00323180004E00223E1
:10081000180001E001231800C0B2704770B4010055
:10082000002000252C000D69AD682A008D692D6817
:100830002B00550815F00305002D04D0022D05D01E
:1008400001D3032D05D1DB0ADB0202E0032565F3AA
:100850000A038D692B604FF480752C430D696D6818
:10086000A54325430E697560C0B270BC7047F0B4F3
:100870000200002000263300002634004E78012EAE
:100880000BD10E7812EB8606B6693500012691F978
:100890000070BE4066F30F040AE00E7812EB860685
:1008A000766D3500012691F90070BE4066F31F4455
:1008B0002E683300C3F3C036F6070DD48E6866F396
:1008C0000A03CE7866F39343CE8866F3995353F0C8
:1008D000805353F400432B601669F6692643176969
:1008E000FE61C0B2F0BC7047F0B4020000200026E8
:1008F0003300002634004E78012E0BD10E7812EB17
:100900008606B6693500012691F90070BE4066F38F
:100910000F040AE00E7812EB8606766D350001268C
:1009200091F90070BE4066F31F4433F400432B601E
:100930001669F669A6431769FE61C0B2F0BC70473C
:100940002DE9F04704000D0000265FF0000A0020AA
:10095000070000208046687801286BD1287814EBC6
:100960008000806900680700287814EB80008069A7
:10097000006980466869002807D15FEAD8485FEAC5
:10098000C848012060F3DC4811E0686960F3120890
:100990006869A9680818401EA968B0FBF1F060F307
:1009A000DC48E878012802D1012060F35E782878DD
:1009B00014EB80008069C0F81080E078012806D12F
:1009C000287814EB800080692969416110E0E8789B
:1009D00001280DD0686900280AD0012095F900107F
:1009E000884082462069406B5AEA000021694863CA
:1009F000E87801280AD12069806881465FEAC950F9
:100A000002D457F0005701E057F0805757F0806745
:100A100057F00047287814EB800080690760E87879
:100A200001284FD16B699BB22A78E9682000FFF753
:100A3000EFFB47E0287814EB8000406D006807006A
:100A4000287814EB8000406D0069804668690028B2
:100A500006D1A86860F31208012060F3DC480EE0BC
:100A60006869A9680818401EA968B0FBF1F060F336
:100A7000DC48C8F3C940A968484360F312082878E5
:100A800014EB8000406DC0F81080E078012805D19B
:100A9000287814EB8000406D29694161E8780128CD
:100AA00007D16879002802D057F0005701E057F0CD
:100AB000805757F0806757F00047287814EB800084
:100AC000406D07603000C0B2BDE8F087FCB40200A2
:100AD0000020002500263300002600964E78012EC7
:100AE00049D19669340026683300266900964E691C
:100AF000002E09D1009EF609F60100960126009FFE
:100B000066F3D447009715E08E684F69BE4207D25E
:100B10008E684E618E68009F66F30607009704E0BA
:100B20004E69009F66F3060700970126009F66F353
:100B3000D4470097009E2661D678012E05D10E7805
:100B400012EB8606B6690F69776153F0806353F044
:100B500000432360D678002E4BD14E69002E48D03A
:100B6000012691F90070BE4035431669766B2E431D
:100B700017697E633DE00E7812EB8606766D366867
:100B800033000E7812EB8606766D366900964E6954
:100B9000002E0AD18E68009F66F306070097012693
:100BA000009F66F3D44700970BE08E684E618E6815
:100BB000009F66F3060700970126009F66F3D4475F
:100BC00000970E7812EB8606766D009F3761D67817
:100BD000012E05D10E7812EB8606766D0F697761CE
:100BE00053F0806353F000430E7812EB8606766D67
:100BF0003360C0B2F6BC704730B40200002000255C
:100C00002C004D78012D0ED10D7812EB8505AD69C4
:100C10002B001D682C00002C01D554F0804454F4A6
:100C200000141C6009E00D7812EB85056D6D2B003A
:100C30001D682C0054F400141C60C0B230BC704716
:100C400030B40200002000252C004D78012D05D184
:100C50000D7812EB8505AD692B0004E00D7812EBE1
:100C600085056D6D2B001D682C0034F40014CD78C3
:100C7000032D02D0CD78022D01D154F080541C6098
:100C8000C0B230BC704701000A69926910000A695D
:100C9000D2691040000C70470200C9B212EB810308
:100CA0005B6D9B68180013695B6918407047010011
:100CB0000A69926910000A69D269104080B27047CF
:100CC00082B000210091009951F040410091012132
:100CD000009A61F3D44200921821009A61F306024F
:100CE0000092416D009A0A61C17801290FD100225A
:100CF0001100426D00F2C8535361426D1268110039
:100D000051F000415FF080221100426D116002B08D
:100D10007047817A002911D003699B68190011F08E
:100D20000103DBB2002B09D0D0F80C311A0032F0ED
:100D3000020252085200D0F80C311A60704710B409
:100D400050F8041B81B102681218001D50F8043BD2
:100D5000DC0744BFA9F10104E31852F8044B43F83F
:100D6000044B091FF9D1EBE710BC70471CB5040018
:100D70000121012000F0FCF84FF4D850009003202E
:100D80008DF8050002208DF8040000208DF8060083
:100D900000208DF8070000A91E4800F037F90A224C
:100DA00008211C4800F087F90A220921194800F09F
:100DB00082F90A220B21174800F07DF90A220C2142
:100DC000144800F078F94FF48060009001208DF80D
:100DD000060001208DF8070003208DF8050000A90A
:100DE0000C4800F013F90A220A210A4800F063F9BE
:100DF00001214FF4804000F0D9F80121802000F05B
:100E0000C6F801215FF0805000F0DFF8012000F00B
:100E1000C3F913BD0000024010B582B004004FF4C6
:100E2000C06000F0C7F943208DF8000001208DF864
:100E3000010003208DF8020001208DF8030000A8B6
:100E400000F0BDF913BD0021782202FB00F2072358
:100E5000B2FBF3F2491C8A4200D3FBE7704710B59E
:100E600004004FF47A7000FB04F0FFF7ECFF10BDB4
:100E7000F0B4002100220023022400250226DFF81E
:100E800068713F6817F00C0739000F00002F04D07D
:100E9000042F06D0082F08D03CE0DFF8547107601B
:100EA0003BE0DFF85071076037E0DFF840713F68E2
:100EB000C7F380573D00DFF834713F6817F03F07F4
:100EC0003E00002D0DD0DFF82C71B7FBF6F7DFF8F0
:100ED0001CC1DCF800C0CCF3881C0CFB07F73B00FE
:100EE0000CE0DFF80C71B7FBF6F7DFF800C1DCF8B7
:100EF00000C0CCF3881C0CFB07F73B00DFF8EC705C
:100F00003F68C7F301477F1C7F003C00B3FBF4F749
:100F1000076002E0DFF8D8700760DFF8CC703F6848
:100F200017F0F00739000909DFF8CC70CF5D3A00FF
:100F30000768D7404760DFF8B0703F6817F4E057A4
:100F40003900890ADFF8B070CF5D3A004768D740B2
:100F50008760254F3F6817F460473900490BDFF879
:100F60009870CF5D3A004768D740C760F0BC7047C3
:100F7000C9B2002905D0214A126802431F4B1A60EA
:100F800004E01E4A126882431C4B1A607047C9B2C3
:100F9000002905D01A4A12680243194B1A6004E06E
:100FA000174A12688243164B1A607047C9B200296B
:100FB00005D0144A12680243124B1A6004E0114A29
:100FC000126882430F4B1A607047C9B2002905D0DE
:100FD0000D4A126802430C4B1A6004E00A4A126878
:100FE0008243094B1A6070470838024004380240B7
:100FF0000024F40000127A000C0100203038024076
:10100000343802404438024020380240F0B4002214
:101010000023002400252A00102A4AD201259540E9
:101020002B000D681D402C009C4240D10568032612
:101030001700FFB27F00BE40B543056005680E791A
:101040001700FFB27F00BE40354305600D79012DCA
:1010500002D00D79022D1AD1856803261700FFB240
:101060007F00BE40B543856085684E791700FFB2AA
:101070007F00BE4035438560456801269640B543F4
:10108000456045688E799640B6B235434560C5687F
:1010900003261700FFB27F00BE40B543C560C56898
:1010A000CE791700FFB27F00BE403543C560521CA9
:1010B000B2E7F0BC7047F0B400230024D2B211F0C4
:1010C0000705EDB2AD0012FA05F52B0089B2CD107F
:1010D00010EB850589B2CE1010EB8606366A0F2715
:1010E00011F0070C5FFA8CFC5FEA8C0C17FA0CF716
:1010F000BE432E6289B2CD1010EB85052D6A1D43CB
:101100002C0089B2CD1010EB85052C62F0BC704725
:101110000021234A11008279002A36D0204A126821
:1011200003689A431E4B1A601E4A126803689A436A
:101130001C4B1A60027989180A6803681A430A600E
:10114000194A126803689A43174B1A60174A1268C3
:1011500003689A43154B1A604279102A0CD1124A3F
:10116000126803681A43104B1A60104A1268036829
:101170001A430E4B1A600EE0094A11004279891891
:101180000A6803681A430A6005E0027989180A6848
:1011900003689A430A607047054908607047000079
:1011A000003C0140043C0140083C01400C3C014033
:1011B000143C01401C4901431C4A11607047F0B4C3
:1011C000002300210F22C478002C21D0174C246862
:1011D00014F4E064D4F5E064240A2300D3F1040499
:1011E0002100D2B21A4144788C4023008478144004
:1011F00023431B0104780E4D6355047864110D4D93
:101200000126077817F01F07BE4045F8246009E063
:1012100004786411084D0126077817F01F07BE40B7
:1012200045F82460F0BC70470000FA050CED00E0C2
:1012300000E400E000E100E080E100E070B50400BF
:1012400000262000FFF7B3F9002869D02000FFF73F
:10125000BAF90500002D01D1002062E0C5F3C040BD
:10126000C00704D5200000F059F930430600C5F34B
:101270008040C00704D5200000F0B1F830430600DC
:10128000C5F34000C00705D50021080050F002005A
:10129000E1684861002D04D5200000F043F8304398
:1012A0000600C5F3C020C00704D5200000F060F898
:1012B00030430600C5F3C000C00704D5200000F08D
:1012C000A9F930430600C5F30010C00704D520007B
:1012D00000F0AFF930430600C5F30030C00704D575
:1012E000200000F048FA30430600C5F34030C00744
:1012F00004D5200000F0A8FA30430600C5F30050E2
:10130000C00704D5200000F0C6FA30430600C5F33C
:101310004050C00704D5200000F0CCFA304306004E
:10132000300070BDF8B50400A07A002809D0D4F8C8
:101330000C01060036F0020676087600D4F80C019F
:1013400006600020070057F0010720694068B84395
:10135000216948602000DFF87C15096889698847A1
:101360000020050055F00045E06845610120F2BD10
:10137000F8B504002000DFF85C1509684969884762
:101380002069806807000020050055F40065E068CA
:101390004561A07A002820D017F00100C0B20028D3
:1013A0001BD00020060056F00106D4F80C0100689E
:1013B0003043D4F80C11086056F00206D4F80C0142
:1013C00000683043D4F80C110860DFF80C050068A1
:1013D00050F00600DFF8001508600120F2BD2DE98D
:1013E000F04104000027002005002000FFF75FFC0B
:1013F0000600002E00F08F803000C00740F188808A
:101400003900C9B2200000F069FA050015F00100AA
:10141000C0B2002824D00120B84080462069406B2B
:1014200030EA0800216948630020050055F00105F5
:1014300014EB8700806985603900C9B22000DFF8AD
:101440009424126852689047E078012808D1002F50
:1014500006D194F81101042802D12000FFF730FCD6
:10146000C5F38000C00707D50020050055F004052E
:1014700014EB870080698560C5F3C000C00707D5FD
:101480000020050055F0080514EB87008069856091
:10149000C5F30010C00707D50020050055F0100562
:1014A00014EB870080698560C5F34010C00707D53D
:1014B0000020050055F0200514EB87008069856049
:1014C000C5F38010C00707D50020050055F0400582
:1014D00014EB870080698560C5F34000C00707D51D
:1014E0000020050055F0020514EB87008069856037
:1014F000C5F3C010C0070BD53900200000F0EBF891
:101500000020050055F0800514EB87008069856098
:101510007F1C76086DE70120BDE8F0812DE9F041E0
:1015200004005FF00008002006002000FFF7ABFB7E
:101530000500002D6BD02800C00764D54146C9B214
:101540002000FFF7A9FB060016F00100C0B200283A
:1015500030D00020060056F0010614EB8800406DE4
:101560008660E078012811D114EB8800406D006995
:101570000700282000FB0840D0F878037903490BC6
:10158000401A282101FB0841C1F888034146C9B22D
:101590002000D04A126812689047E078012809D1EB
:1015A000B8F1000F06D194F81101052802D12000EE
:1015B000FFF786FBC6F34000C00707D500200600F2
:1015C00056F0020614EB8800406D8660C6F380007A
:1015D000C00707D50020060056F0040614EB88006B
:1015E000406D8660C6F3C000C0070CD52000B94925
:1015F0000968896888470020060056F0080614EB41
:101600008800406D866018F101086D0891E701209F
:10161000BDE8F08138B504002000AE490968C9680A
:1016200088470020050055F00805E0684561012065
:1016300032BDF8B504000020070057F01007E0683D
:101640008069B843E1688861E068006A050015F0C8
:101650000F00282101FB004000F270300600680CEA
:1016600010F00F00012808D0022807D003281DD051
:1016700004281CD006281BD026E025E028094005B8
:10168000400D80B2002810D0C5F30A1292B2F16862
:101690002000FEF7E1FDC5F30A10F1684018F06084
:1016A000B069C5F30A110818B0610DE00CE00BE059
:1016B000082214F5B9612000FEF7CEFDB069C5F32C
:1016C0000A110818B061FFE7E06880693843E168F3
:1016D00088610120F2BD2DE9F84304000D005FF0A0
:1016E000000800200600282000FB054000F218102A
:1016F00007007869B969401A8046B868404501D248
:10170000B868804618F103008008814614EB850014
:10171000806980690600B0B2814529D2B8697969CB
:10172000884225D27869002822D07869B969401AA0
:101730008046B868404501D2B868804618F1030079
:101740008008814643469BB22A00D2B2F968200045
:10175000FEF75EFDF86818EB0000F860B86918EB5A
:101760000000B86114EB8500806980690600D2E74B
:101770000120BDE8F2832DE9F84F040000208146E6
:101780000020050000200600002007000020804601
:101790000020824659F001092069406830EA0900BA
:1017A0002169486000212000FEF795FE0020834655
:1017B000607883450CD214EB8B008069FF21816037
:1017C00014EB8B00406DFF2181601BF1010BEFE7F3
:1017D00020695FF0FF318161012060F30F05012076
:1017E00060F31F452069C56156F0080656F00106F2
:1017F00056F0040656F002062069466157F00107CC
:1018000057F0080757F0020757F0040757F0200772
:101810002069076120690068804638F4FE68206905
:10182000C0F800802000FFF74BFA002082465AF4EF
:10183000805AE068C0F814A02000264909680969A8
:1018400088470120BDE8F28F70B504002000FEF744
:10185000E5FFE068C06806002000FEF7C5FF03282A
:1018600008D10020A0704FF40070A080092060F320
:101870008D2606E00120A0704020A080052060F3A6
:101880008D26E068C6600020050055F40055E0682C
:101890004561012070BD38B504000020050020001E
:1018A0000C490968C969884755F48015E0684561A5
:1018B000012032BD38B50400002005002000054994
:1018C0000968096A884755F40015E06845610120F8
:1018D00032BD00002C01002010ED00E030B4020009
:1018E00015692D692C0015696D6B2B0033FA01F514
:1018F00015F0010554EAC514C9B212EB8105AD69B2
:10190000AD682540280030BC704750F8041B61B119
:1019100050F8042BD30744BFA9F101039A18002300
:1019200042F8043B091FFAD1EFE7704770B5040095
:101930000D0000266878002820D0012828D0032830
:1019400021D005280BD0062804D0082811D009285A
:101950000AD022E02900200000F003F921E029004C
:10196000200000F099F91CE02900200000F0C4F9E3
:1019700017E02900200000F022FA12E029002000E0
:1019800000F041FA0DE02900200000F063FA08E0C1
:101990002900200000F0A3FA03E02900200000F055
:1019A000DDFA3000C0B270BD70B504000D00002635
:1019B00094F81201032818D1A888C0B202280FD2C7
:1019C00029002000D4F8E02592689047E888002894
:1019D0000AD1F6B2002E07D1200000F055FB03E03B
:1019E0002900200000F0BAFA03E02900200000F0EE
:1019F000B5FA3000C0B270BDF8B504000D00002784
:101A0000A88806006878002864D0012832D003280E
:101A100040F0A48094F81201022802D003280CD0D0
:101A200023E0F6B2002E07D0F6B2802E04D03100AB
:101A3000C9B2200000F062FC1BE0688800280AD1CF
:101A4000F6B2002E07D0F6B2802E04D03100C9B213
:101A5000200000F053FC29002000D4F8E025926813
:101A60009047200000F010FB03E02900200000F068
:101A700075FA73E094F81201022802D003280CD002
:101A800023E0F6B2002E07D0F6B2802E04D031004B
:101A9000C9B2200000F032FC1BE06888002813D196
:101AA000F6B2002E0DD0F6B2802E0AD03100C9B2A7
:101AB000200000F04BFC29002000D4F8E0259268BB
:101AC0009047200000F0E0FA03E02900200000F039
:101AD00045FA43E094F81201022802D003280CD002
:101AE00037E0F6B2002E07D0F6B2802E04D03100D7
:101AF000C9B2200000F002FC2FE0F6B2300611D58A
:101B0000F6B216F07F00282101FB004090F81A0180
:101B1000002803D0CB480121016014E0C94800210E
:101B2000016010E030060ED4F6B2282000FB06401B
:101B300090F87203002803D0C2480121016002E03E
:101B4000C048002101600222BE49200000F04EFA88
:101B500003E02900200000F001FAFFE73800C0B2DE
:101B6000F2BD70B582B004000D00688880B2000A32
:101B7000C0B2012808D0022818D0032822D0062895
:101B800062D0072865D069E000A9A078D4F8E825DC
:101B9000126890470600E888402803D094F81201A4
:101BA000012802D10820ADF800005CE000A9A0786F
:101BB000D4F8E025926A9047060002207070C4F8BD
:101BC000EC6550E0A878002808D0022816D00DD384
:101BD000042823D01AD3052828D02FE000A9A07804
:101BE000D4F8E8255268904706002CE000A9A078B8
:101BF000D4F8E82592689047060024E000A9A07870
:101C0000D4F8E825D268904706001CE000A9A07827
:101C1000D4F8E82512699047060014E000A9A078DE
:101C2000D4F8E8255269904706000CE000A9A07896
:101C3000D4F8E82592699047060004E029002000C6
:101C400000F08CF927E00EE02900200000F086F972
:101C500021E02900200000F081F91CE0290020008B
:101C600000F07CF917E0BDF80000002813D0E888E8
:101C7000002810D0BDF80000E988884202D2BDF8E3
:101C8000000000E0E888ADF80000BDF80020310059
:101C9000200000F0ABF973BD70B504000D00A888FA
:101CA000002824D1E888002821D1A87810F07F00EE
:101CB000060094F81201032804D12900200000F046
:101CC0004DF918E084F813613100C9B2200000F02A
:101CD00065FB200000F0D8F9F6B2002E03D00220F8
:101CE00084F8120107E0012084F8120103E02900C2
:101CF000200000F033F970BD38B504000D0068888D
:101D00005149087050480078022804D32900200067
:101D100000F024F952E094F81201022802D00328BE
:101D200018D047E04848007800280FD0464800788F
:101D300084F81001032084F8120143480178200040
:101D400000F06FFC200000F09FF902E0200000F09E
:101D50009BF933E03C48007800280FD1022084F83A
:101D600012013948007884F81001374801782000C2
:101D700000F067FC200000F087F91AE03248007894
:101D800094F81011884211D094F81011200000F03E
:101D900058FC2D48007884F810012B480178200069
:101DA00000F03FFC200000F06FF902E0200000F09E
:101DB0006BF903E02900200000F0D0F831BD38B500
:101DC00004000D00E888012804D02900200000F05C
:101DD000C5F817E094F81201022802D0032806D0B3
:101DE0000CE001221949200000F000F90AE001226C
:101DF00004F21011200000F0F9F803E0290020009F
:101E000000F0ACF831BD38B504000D0094F81201B3
:101E1000801E012810D8D4F81401002803D00C48E3
:101E20000321016002E00A48012101600122084902
:101E3000200000F0DBF803E02900200000F08EF81D
:101E400031BD0000BC0F0020CB0F0020C00F0020D0
:101E5000C40F0020F8B504000D0000276888012891
:101E60000CD10120C4F8140129002000D4F8E02589
:101E700092689047200000F007F92FE06888022858
:101E80002CD12879000629D1206940680600A8884D
:101E900080B2000A0700FFB2012F07D019D3032F29
:101EA0000CD007D3052F11D00CD312E0012060F322
:101EB00006160EE0022060F306160AE0032060F327
:101EC000061606E0042060F3061602E0052060F323
:101ED000061620694660200000F0D6F8F1BD38B53E
:101EE00004000D0094F81201801E01280FD86888A4
:101EF00001280BD10020C4F8140129002000D4F8D7
:101F0000E02592689047200000F0BEF803E0290029
:101F1000200000F023F831BD90F8C8250A7090F831
:101F2000C9254A7090F8CA2590F8CB351B029A183B
:101F30004A8090F8CC2590F8CD351B029A188A80FB
:101F400090F8CE2590F8CF351B029A18CA80CA881F
:101F5000C0F83C21012280F81121704738B50400F7
:101F60000D002878000604D58021200000F0C6F975
:101F70000BE0E888002804D18021200000F0BEF9A1
:101F800003E00021200000F0B9F92000FEF798FEE0
:101F900031BDF8B504000D0016000027002C1AD042
:101FA000200000F019F84000801C3080FFB230881B
:101FB00078557F1CFFB2032078557F1C20780028BD
:101FC00009D0FFB220787855641C7F1CFFB2002036
:101FD00078557F1CF2E7F1BD010000200A78002A45
:101FE00002D0401C491CF9E7C0B27047F8B50400A4
:101FF0000D0016000027B6B2C4F83861B6B2C4F8B6
:102000003461022084F81101B6B233002A000021A5
:10201000200000F044F93800C0B2F2BDF8B5040069
:102020000D0016000027B6B233002A000021200060
:1020300000F035F93800C0B2F2BDF8B504000D006B
:1020400016000027B6B2C4F89063B6B2C4F88C6329
:10205000032084F8110133009BB22A0000212000E4
:1020600000F0EAF83800C0B2F2BDF8B504000D0087
:102070001600002733009BB22A000021200000F048
:10208000DBF83800C0B2F2BD38B5040000250420EA
:1020900084F81101002300220021200000F0FFF845
:1020A0002000FEF70DFE2800C0B232BD38B5040096
:1020B0000025052084F811010023002200212000C2
:1020C00000F0BAF82000FEF7FBFD2800C0B232BDD8
:1020D000F8B504000D002900C9B22000FEF7D2F8BF
:1020E000012084F81201002084F81301002006006A
:1020F0006078864213D2282000FB064000F21810B8
:102100000700012078703E70FE800020F8704020AB
:10211000B8600020F86000207861761CE8E70020B5
:1021200006006078864213D2282000FB064000F2A9
:1021300070300700002078703E70FE800020F8703C
:102140004020B8600020F86000207861761CE8E745
:102150002000FEF7B1F92000FEF705F9002120006C
:10216000FEF702FA2000FEF740FA2000FEF795F98C
:10217000F1BD2DE9F04104000D0016001F00EDB285
:10218000280609D5EDB215F07F00282101FB00409B
:1021900000F21810804608E0EDB215F07F0028210B
:1021A00001FB004000F27030804615F07F0088F897
:1021B0000000C5F3C01088F80100B6B2C8F8086086
:1021C00088F8037098F80100002803D098F8000000
:1021D000A8F80600FFB2022F02D1002088F8040000
:1021E00041462000FEF743FB0020BDE8F08170B5BA
:1021F00004000D00EDB2280609D5EDB215F07F0000
:10220000282101FB004000F21810060008E0EDB2A2
:1022100015F07F00282101FB004000F2703006001D
:1022200015F07F003070C5F3C010707031002000D1
:10223000FEF75AFB002070BD2DE9F04104000D00AF
:1022400016001F00EDB215F07F00282101FB0040B1
:1022500000F270308046C8F80C60BFB2C8F8147045
:102260000020C8F81800002088F8010015F07F0051
:1022700088F80000E078012801D1C8F8106098F8CB
:102280000000002804D141462000FEF71FFC03E0B7
:1022900041462000FEF754FB0020BDE8F0812DE907
:1022A000F04104000D0016001F00EDB215F07F0094
:1022B000282101FB004000F218108046012088F818
:1022C000010015F07F0088F80000C8F80C60C8F81D
:1022D00010600020C8F81800C8F8147098F80000C2
:1022E000002804D141462000FEF7F0FB03E0414600
:1022F0002000FEF725FB0020BDE8F08170B504004A
:102300000D00EDB2280609D5EDB215F07F002821A9
:1023100001FB004000F21810060006E0EDB2282094
:1023200000FB054000F2703006000120B07015F08F
:102330007F003070C5F3C010C0B210F001007070A3
:1023400031002000FEF758FC002070BD70B504007D
:102350000D00EDB2280609D5EDB215F07F00282159
:1023600001FB004000F21810060006E0EDB2282044
:1023700000FB054000F2703006000020B07015F040
:102380007F003070C5F3C010C0B210F00100707053
:1023900031002000FEF754FC002070BD10B4002373
:1023A0001A00C9B261F30A1203691B681343046976
:1023B000236010BC70472DE9F04104000D001600A9
:1023C0001F00DDF818802000FEF7D0FC200000F090
:1023D00014F8C4F8E075C4F8E485C4F8E865290089
:1023E000C9B22000FFF774FED4F8E4050068804706
:1023F0002000FEF711FDBDE8F081010000207047CC
:102400001CB5040000A92000FFF786FD9DF8000020
:1024100010F01F00C0B2002803D002280BD005D353
:102420000EE000A92000FFF781FA10E000A92000CB
:10243000FFF7BAFA0BE000A92000FFF7DDFA06E08B
:102440009DF8000010F080012000FFF757FF0020EA
:1024500016BD70B504000D00EDB2002D34D104F2AC
:102460007030060094F8110103283DD1B068F1697D
:10247000884217D2F069B168401AF061E07801280B
:1024800003D1B068F1684018F060F069B168884223
:1024900001D2F26900E0B26892B2F1682000FFF761
:1024A000E4FD21E0D4F8E0050069002808D094F8A4
:1024B0001201032804D12000D4F8E01509698847E7
:1024C0002000FFF7E1FD0FE0D4F8E0058069002867
:1024D0000AD094F81201032806D12900C9B22000BD
:1024E000D4F8E02592699047002070BD70B50400D3
:1024F0000D00EDB2002D46D104F21810060094F83C
:10250000110102284FD1B068F169884211D2F069F7
:10251000B168401AF061E078012803D1B068F16831
:102520004018F060F26992B2F1682000FFF776FD82
:1025300039E0306AB168B0FBF1F201FB120000280B
:102540000FD1306AB16888420BD3306A716A884211
:1025500007D2002200212000FFF760FD00207062FA
:1025600021E0D4F8E005C068002808D094F81201F2
:10257000032804D12000D4F8E015C968884720005A
:10258000FFF794FD0FE0D4F8E005406900280AD079
:1025900094F81201032806D12900C9B22000D4F80A
:1025A000E02552699047002070BD10B5040000235B
:1025B000402200212000FFF7DCFD00234022802183
:1025C0002000FFF7D6FD012084F81201A078D4F88E
:1025D000E41549688847002010BD10B50400D4F800
:1025E000E40500698047032084F81201002010BD33
:1025F00010B50400042084F81201D4F8E405C06882
:102600008047002010BD10B50400D4F8E005C06973
:10261000002804D02000D4F8E015C96988470020BC
:1026200010BD38B504000D002900C9B22000D4F84F
:10263000E02512689047D4F8E405806880470020C0
:1026400032BD38B504000D002900C9B22000D4F80D
:10265000E02552689047002032BD10B504002000EC
:10266000D4F8E015096A8847002010BD10B50400B1
:102670002000D4F8E015496A8847002010BD704753
:10268000C0B2002802D0012801D001E000E0FFE73D
:1026900070477047704770477047704770B50400C7
:1026A0000D000223D4F8EC05B0F839208121200078
:1026B000FFF75FFD0223D4F8EC05B0F840200121BC
:1026C0002000FFF756FD0323082282212000FFF798
:1026D00050FDDFF8200306000220307100207071E9
:1026E000C54800688047D4F8EC05B0F84030C34ACC
:1026F00001212000FFF7A0FD002070BD38B50400C7
:102700000D0081212000FFF772FD01212000FFF75D
:102710006EFD82212000FFF76AFDB74840688047C0
:10272000002032BDF8B504000D00287810F06000DC
:10273000C0B200282DD0202825D1E88800281AD042
:10274000287800060BD5EA88AD496878AA4B9B68C3
:102750009847EA88AA492000FFF748FC11E068780A
:10276000A8490860E888A8490860EA88A4492000C8
:10277000FFF763FC05E00022002168789E4B9B6810
:102780009847002035E029002000FFF7E7FB0220F2
:102790002FE06878062804D00A2817D00B281BD011
:1027A00026E0688880B2000AC0B2212807D1974885
:1027B0000700E8883B2801D33A2600E0EE88320083
:1027C00092B239002000FFF711FC11E0012290497C
:1027D0002000FFF70BFC0BE06888C0B2012803D291
:1027E000A8788B49086003E029002000FFF7B6FBBA
:1027F0000020F2BD10B5040082480068FF280AD00E
:10280000814802687E497F4800687B4B9B689847F7
:102810007C48FF210160002010BDF8B504000D00C8
:102820007C480078012844D17B480068002803D107
:102830007848002101703CE0D4F8EC05B0F839008C
:102840007549096888421BD2744800680600D4F8AC
:10285000EC05B0F83900070070480068D4F8EC15B2
:10286000B1F8391010FA81F06C4908606A480068C4
:10287000D4F8EC15B1F83910401A674908600FE038
:1028800066480068060064480068070063480068FE
:10289000614909680818614908605F4800210160C2
:1028A000BFB23B00B6B25E48321881212000FFF76C
:1028B000F6FC0020F2BD70B504000D00EDB228203A
:1028C00000FB0540D0F888030600B6B231004B4843
:1028D000494A12699047D4F8EC05B0F84030474AAD
:1028E00001212000FFF7A8FC002070BD10B50400F6
:1028F0004C480068411C4B4A1160052805D14948E5
:1029000000210160200000F002F8002010BD70B529
:10291000040040480078012865D040480068B0F5C0
:10292000006F02D13D48002101603C4800683E49EB
:102930000968884203D137480021017053E03A48C2
:10294000006836490968884206D234480068D0F5E4
:1029500000603149086006E0334800682F49096883
:10296000401A2D490860D4F8EC05B0F839002A491E
:10297000096888421BD2294800680500D4F8EC0594
:10298000B0F83900060025480068D4F8EC15B1F815
:10299000391010FA81F0214908601F480068D4F806
:1029A000EC15B1F83910401A1B4908600FE01B48BC
:1029B00000680500184800680600184800681649B5
:1029C000096808181549086013480021016011487A
:1029D00001210170B6B23300ADB211482A1881212D
:1029E0002000FFF75CFC70BD0200432008800F4808
:1029F00070470000E8000020D4000020240F0020D1
:102A0000980F002028010020B40F002012000020A1
:102A1000A40F0020CA0F0020B00F0020AC0F002030
:102A200034010020B80F0020A80F00200000002073
:102A300080B54E48006850F001004C4908604C4891
:102A400000210160494800684A4908404749086038
:102A500049484A4901604548006830F480204349AC
:102A6000086047480021016000F005F845485FF024
:102A70000061016001BD82B0002001900020009043
:102A80003A48006850F48030384908603748006898
:102A900010F4003000900198401C0190009800282C
:102AA00003D10198B0F5A06FF0D1304800688003E1
:102AB00002D50120009001E000200090009801283C
:102AC0003ED13148006850F080502F4908602F48AF
:102AD000006850F480402D49086025482449096861
:102AE00001602348006850F40040214908602048F4
:102AF000006850F4A0501E4908601F482449016036
:102B00001A48006850F0807018490860174800683B
:102B10008001FBD51F4840F2056101601448006840
:102B200080088000124908601148006850F00200D7
:102B30000F4908600E48006810F00C000828F9D111
:102B40000B48006830F40000094908601248134936
:102B500001600648006850F080600449086003483E
:102B600000680001FBD502B0704700000038024049
:102B700008380240FFFFF6FE0438024010300024FF
:102B80000C38024008ED00E0403802400070004080
:102B900008544007003C0240843802400030005096
:102BA0001CB504000121E4B2414850F82400FEF7AE
:102BB000DFF9E4B23F4830F81400009001208DF8AE
:102BC000040000208DF8060001208DF80700022087
:102BD0008DF8050000A9E4B2374850F82400FEF74C
:102BE00015FA13BDC0B2344951F82010C0B2314AB1
:102BF00032F810200A837047C0B22F4951F82010D4
:102C0000C0B22C4A32F810204A83704730B585B0E4
:102C100004000D000121E4B2284850F82400FEF71A
:102C2000A7F901214FF48040FEF7C0F900208DF88C
:102C3000100000208DF81300E4B2214830F8140091
:102C4000039003A9E4B21F4850F82400FEF7DEF910
:102C5000EDB2012D29D1E4B21B48215CE4B21B483E
:102C6000205C00F039F8E4B2194830F81400019003
:102C700000208DF8080008208DF8090001208DF84B
:102C80000A0001A8FEF744FAE4B21248205C8DF86D
:102C900000000F208DF801000F208DF802000120A8
:102CA0008DF8030000A8FEF78AFA05B030BD0000D9
:102CB00044310008AC310008FC000020B4310008A9
:102CC000EE300008240100201B3100081A310008F2
:102CD0000E3100082433000830B400220F2311F015
:102CE0000304E4B2A400A3401A00C9B28B100E4C36
:102CF00054F823309343C9B28C100B4D45F824305F
:102D0000C9B28B10084C54F82330C0B211F0030440
:102D1000E4B2A40010FA04F42343C9B28C10024DAB
:102D200045F8243030BC70470838014040B20028D4
:102D300008D540B210F00F022D4BD2180B0102F84B
:102D4000043C03E040B22B4A0B018354704710B59A
:102D50000400B4F1807F01D3012010E02002000ABA
:102D6000401E254908600F215FF0FF30FFF7DEFFAE
:102D7000224800210160224807210160002010BD87
:102D800000B585B001210020FFF740FF0020FFF7CC
:102D900007FF0120FFF704FF0220FFF701FF0320D8
:102DA000FFF7FEFE01A8FEF763F802984FF47A7170
:102DB000B0FBF1F0FFF7CBFF124800210170124881
:102DC0000021017011480090114B124A0121124854
:102DD000FFF7F1FA0B4801210170FEE70F48006888
:102DE000002804D00D480068401E0C490860704758
:102DF00018ED00E000E400E014E000E018E000E07E
:102E000010E000E0C80F0020C90F0020B80000202B
:102E1000440000209C00002034090020A00F002066
:102E20000200122008802E4870470200042008800B
:102E30002C48704738B504000D00E4B2002C05D1D1
:102E40002A0029492948FFF7A4F804E02A00264966
:102E50002748FFF79EF8244832BD38B504000D001E
:102E60002A0021492348FFF794F81F4832BD38B59E
:102E700004000D00E4B2002C05D12A001A491E48B6
:102E8000FFF787F804E02A0017491C48FFF781F88C
:102E9000154832BD38B504000D00E4B2002C05D150
:102EA0002A0011491648FFF774F804E02A000E4979
:102EB0001348FFF76EF80C4832BD38B504000D001A
:102EC000E4B2002C05D12A0007490E48FFF761F84B
:102ED00004E02A0004490B48FFF75BF8024832BDC2
:102EE000E800002030010020640F00206830000856
:102EF0008C3000083031000854310008643100087B
:102F00009431000874310008002070470020704799
:102F100003001800002810D001280FD002280ED07E
:102F200003280DD004280CD020280BD021280AD04B
:102F3000222809D0232808D008E007E006E005E0B1
:102F400004E003E002E001E000E0FFE7002070475A
:102F500030B40200002003008B4213D2985C0B4C6B
:102F600024680B4D605509480068401C074C2060E0
:102F700006480068B0F5006F02D1044800240460E0
:102F80005B1CE9E7002030BC70470000A80F002060
:102F90003401002070B504000D0000200600AE4290
:102FA00014D2305D612802D0305D412803D1032066
:102FB000FFF718FE08E0305D732802D0305D53281B
:102FC00002D10320FFF718FE761CE8E7002070BD51
:102FD0007047FEE7FEE7FEE7FEE770477047704781
:102FE00080B5FFF7FBFE01BD80B50120FEF7D4F8E8
:102FF00005210F48FFF7ACFF01BD80B50D48807A71
:1030000000280AD00C48006830F006000A49086021
:10301000FFF70EFD0748FDF77CFE5FF48020FEF70A
:10302000BBF801BD80B50348FEF708F901BD0000FB
:103030001C0100203409002010ED00E010B5084903
:1030400079441C31074C7C441A34A14206D0081D37
:103050000A68511888470146A142F8D110BD00BF47
:10306000500000007000000053544D333220566968
:10307000727475616C20436F6D506F727420696E4D
:10308000204853206D6F64650000000053544D3399
:1030900032205669727475616C20436F6D506F7287
:1030A0007420696E204653204D6F64650000000057
:1030B0005BE8FFFF980E00003401002000000000D4
:1030C0007FDCFFFF340100006002000000000020F0
:1030D000000000004EF68851CEF20001086840F46E
:1030E000700008604FF00070E1EE100A70470100B8
:1030F00000F009F8002801D0FFF7A0FF0020FFF73B
:103100003FFE00F002F80120704700F001B8010016
:103110000746384600F002F8FBE7000080B5C046DD
:10312000C046024A11001820ABBEFBE72600020091
:1031300053544D6963726F656C656374726F6E6929
:103140006373000008000000080000000800000091
:103150000800000030303030303030303035304210
:103160000000000030303030303030303035304307
:103170000000000056435020496E7465726661631A
:10318000650000000148804701480047312A0008D7
:10319000A131000856435020436F6E6669670000F6
:1031A000C046C046FFF796FFFFF7A2FF00100020C1
:1031B0000040008001000000FFF70ABFFFF709BFD1
:1031C000FFF708BFFFF707BFFFF706BFFFF705BF11
:1031D000FFF704BFFFF703BFFFF702BFFFF7FEBF14
:1031E000FFF7FEBFFFF7FEBFFFF7FEBFFFF7FEBF13
:1031F000FFF7FEBFFFF7F8BEFFF7FEBFFFF7FEBF0A
:10320000FFF7FEBFFFF7FEBFFFF7FEBFFFF7FEBFF2
:10321000FFF7FEBFFFF7FEBFFFF7FEBFFFF7FEBFE2
:10322000FFF7FEBFFFF7FEBFFFF7FEBFFFF7FEBFD2
:10323000FFF7FEBFFFF7FEBFFFF7FEBFFFF7FEBFC2
:10324000FFF7FEBFFFF7FEBFFFF7FEBFFFF7FEBFB2
:10325000FFF7FEBFFFF7FEBFFFF7FEBFFFF7FEBFA2
:10326000FFF7FEBFFFF7FEBFFFF7FEBFFFF7FEBF92
:10327000FFF7FEBFFFF7FEBFFFF7FEBFFFF7FEBF82
:10328000FFF7FEBFFFF7B9BEFFF7FEBFFFF7FEBFB8
:10329000FFF7FEBFFFF7FEBFFFF7FEBFFFF7FEBF62
:1032A000FFF7FEBFFFF7FEBFFFF7FEBFFFF7FEBF52
:1032B000FFF7FEBFFFF7FEBFFFF7FEBFFFF7FEBF42
:1032C000FFF7FEBFFFF7FEBFFFF7FEBFFFF7FEBF32
:1032D000FFF7FEBFFFF7FEBFFFF7FEBFFFF7FEBF22
:1032E000FFF7FEBFFFF7FEBFFFF79CBEFFF7FEBF75
:1032F000FFF7FEBFFFF7FEBFFFF7FEBFFFF7FEBF02
:10330000FFF7FEBFFFF7FEBFFFF7FEBFFFF7FEBFF1
:10331000FFF7FEBFFFF7FEBFFFF7FEBFFFF7FEBFE1
:10332000FFF7FEBF0600000009024300020100C0D3
:103330003209040000010202010005240010010509
:10334000240100010424020205240600010705826D
:10335000030800FF09040100020A0000000705013C
:103360000240000007058102400000009D26000881
:10337000FD2600082527000800000000F5270008AA
:103380001B280008B7280008ED28000800000000EE
:1033900000000000E929000853240008ED2400087B
:1033A0000124000807260008AB250008F1250008C5
:1033B000DB2500085B2600086D26000800000000E1
:1033C00000000000212E00082B2E00085B2E0008B4
:1033D000352E00086F2E0008952E0008BB2E000821
:1033E0007F260008812600089326000899260008F9
:1033F0009B2600089526000897260008092F00083C
:103400000D2F0008112F0008512F0008952F0008DC
:103410001201000200000040830440570002010234
:1034200003010000000C0240000C0240000C0240AE
:10343000000C02400000000001020304010203042A
:103440000607080948454C4C4F00000000000240A8
:0C345000FF0000007000002004030904CD
:04000005080031A11D
:00000001FF
